:020000040800F2
:1000000000000220CDB303088B0A00088D0A000807
:100010008F0A0008910A0008930A000800000000F7
:10002000000000000000000000000000950A000829
:10003000970A000800000000990A00089B0A0008BF
:100040001DB403081DB403081DB403081DB4030840
:100050001DB403081DB403081DB403081DB4030830
:100060001DB403081DB403081DB403081DB4030820
:100070001DB403081DB403081DB403081DB4030810
:100080001DB403081DB403081DB403081DB4030800
:100090001DB403081DB403081DB403081DB40308F0
:1000A0001DB403081DB403081DB403081DB40308E0
:1000B0001DB403081DB403081DB403081DB40308D0
:1000C0001DB403081DB403081DB403081DB40308C0
:1000D0001DB403081DB403081DB403081DB40308B0
:1000E0001DB403081DB403081DB403081DB40308A0
:1000F0001DB403081DB403081DB403081DB4030890
:100100001DB403081DB403081DB403081DB403087F
:100110001DB403081DB403081DB403081DB403086F
:100120001DB403081DB403081DB403081DB403085F
:100130001DB403081DB403081DB403081DB403084F
:100140001DB403081DB403081DB403081DB403083F
:100150001DB403081DB403081DB403081DB403082F
:100160001DB403081DB403081DB403081DB403081F
:100170001DB403081DB403081DB403081DB403080F
:100180001DB403081DB403081DB403081DB40308FF
:100190001DB40308000000001DB403081DB40308CB
:1001A0001DB403081DB403081DB403081DB40308DF
:1001B0001DB403081DB403081DB403081DB40308CF
:1001C0001DB403081DB403081DB403081DB40308BF
:0801D0001DB403081DB403086F
:1001D80010B5054C237833B9044B13B10448AFF379
:1001E80000800123237010BD5C0000200000000087
:1001F80094B4030808B5034B1BB103490348AFF394
:10020800008008BD000000006000002094B40308CE
:100218007BB972B90029BEBF00204FF0004106E04B
:1002280008BF00281CBF6FF000414FF0FF3000F0FE
:10023800D3B9ADF1080C6DE904CE002909DB002B18
:100248001ADB00F04DF8DDF804E0DDE9022304B024
:100258007047404261EB4101002B1BDB00F040F886
:10026800DDF804E0DDE9022304B0404261EB41011E
:10027800524263EB43037047524263EB430300F07F
:100288002FF8DDF804E0DDE9022304B0404261EB19
:1002980041017047524263EB430300F021F8DDF857
:1002A80004E0DDE9022304B0524263EB43037047E4
:1002B80053B94AB9002908BF00281CBF4FF0FF31C5
:1002C8004FF0FF3000F088B9ADF1080C6DE904CEAD
:1002D80000F006F8DDF804E0DDE9022304B0704719
:1002E8002DE9F047089D0F4604468C46002B48D15F
:1002F8008A42164661D9B2FA82F34BB1C3F12002A1
:1003080001FA03FC20FA02F29E4042EA0C0C9C40DF
:100318004FEA164EB7B2BCFBFEF1220C0EFB11CC15
:1003280042EA0C4201FB07F0904209D9B21801F1E8
:10033800FF3C80F0EE80904240F2EB80023932447C
:10034800121AA4B2B2FBFEF00EFB102244EA0244D9
:1003580000FB07F7A74209D9341900F1FF3280F0F2
:10036800DA80A74240F2D7803444023840EA01409C
:10037800E41B00211DB1DC400023C5E90043BDE8B2
:10038800F0878B4206D90DB1C5E900010021084666
:10039800BDE8F087B3FA83F1002948D1BB4202D304
:1003A800824200F20781841A67EB03020120944617
:1003B800002DE4D0C5E9004CE1E7002A00F0928066
:1003C800B2FA82F3002B40F0A8808A1A4FEA164E40
:1003D8001FFA86FC0121200CB2FBFEF70EFB172248
:1003E80040EA02420CFB07F0904207D9B21807F125
:1003F800FF3802D2904200F2E2804746121AA4B2B5
:10040800B2FBFEF00EFB102244EA02440CFB00FC97
:10041800A44507D9341900F1FF3202D2A44500F2ED
:10042800CB801046A4EB0C0440EA0740A2E7C1F1D8
:1004380020068B4022FA06FC4CEA030C07FA01F46A
:1004480020FA06F3F7404FEA1C49234300FA01F863
:100458001FFA8CFEB7FBF9F01C0C09FB107744EA75
:10046800074400FB0EF7A74202FA01F20AD91CEB77
:10047800040400F1FF3A80F09B80A74240F2988084
:1004880002386444E41B9FB2B4FBF9F309FB13443C
:1004980047EA044403FB0EFEA64509D91CEB0404F5
:1004A80003F1FF3780F08280A6457FD9023B644480
:1004B80043EA0040A4EB0E04A0FB02E7BC427346EB
:1004C800B94663D360D05DB1B8EB030264EB0904AD
:1004D80004FA06F622FA01F31E43CC40C5E900648B
:1004E80000214CE76208480842EAC1710B0C43EA54
:1004F80000438AB242EA0342B3FBF6F1E407B4468A
:100508003746B6461F23B0FBF6F0D21B41EA00413E
:1005180061E7614614E7104628E7C3F1200120FA95
:1005280001F29E4027FA01F19F403A434FEA164EE6
:100538001FFA86FCB1FBFEF70EFB1710110C41EAFF
:10054800004107FB0CF8884504FA03F43AD97118FE
:1005580007F1FF3001D288451FD8A1EB0801B1FB94
:10056800FEF808FB0CF70EFB181192B242EA0142A2
:10057800BA422FD2B21808F1FF31C6D2BA42C4D259
:10058800A8F102013244C0E7F0459CD2BEEB020359
:1005980067EB0C070138B94695E7A6EB0808414414
:1005A800B81EB1FBFEF808FB0CF7DCE73B467FE71B
:1005B800504667E70846FBE63444023832E7023F14
:1005C80032441BE7A1EB08013846B1FBFEF808FBF3
:1005D8000CF7C8E7414698E7704700BF72B6FEE7D8
:1005E80030B595B006AD3822002128463AF013FF01
:1005F8000024019402940394049405944FF4007029
:1006080000F068FA022306934FF48073099340239D
:100618000A930D94284600F075FB68B90F230193DF
:1006280001230293002103910491059101A800F090
:100638001FFE18B915B030BDFFF7D0FFFFF7CEFF8A
:1006480008B500F0FDFAFFF7CBFF00F003F800F063
:100658004BF8FEE782B0064BDA6C42F00102DA642E
:10066800DB6C03F001030193019B02B0704700BFEC
:100678000010024070B5054616460A890888141A03
:10068800A4B20134A4B28B898988A3EB010C1FFAA8
:100698008CFC0CF1010C1FFA8CFC0CFB04F400F030
:1006A80087F82146304600F090F8284609F045FBC7
:1006B80070BD000010B582B04FF4A071AC2009F0F5
:1006C80089FB0446064909F0B3FA002200924FF468
:1006D800D7530449204609F0C4FA02B010BD00BF40
:1006E8007D0600087800002010B500F01DF801F024
:1006F8004BF80B4811F072F8FFF7DCFF09F039FDF1
:1007080026F070FA0446074926F078FA204605F0E4
:1007180043FA10F0A3FE052000F0B4FAF9E700BF91
:10072800810C0008D4B4030808B500F095F808BD9A
:1007380010B50446000A00F098F9E0B200F095F907
:1007480010BDF8B50E461F46AB2800D9AB20AB2A22
:1007580000D9AB22B6F5A07F01D340F23F16B7F51A
:10076800A07F01D340F23F17904202D813460246B9
:100778001846BE4202D83B4637461E46223295B23C
:10078800223084B22A2000F064F92846FFF7D0FF0F
:100798002046FFF7CDFF2B2000F05BF93846FFF726
:1007A800C7FF3046FFF7C4FF2C2000F052F9F8BD10
:1007B80008B5FFF7C6FF08BD10B50446000A00F0EB
:1007C80054F9E0B200F051F910BD70B506460D4677
:1007D800002404E036F81400FFF7EEFF0134AC42C1
:1007E800F8D370BD70B5BDF8106042B31C4615460D
:1007F8002BB3AB2823D8B1F5A07F20D28318AC2B1C
:1008080002D9C0F1AC05ADB20B19B3F5A07F02D97E
:10081800C1F5A074A4B22A1892B2013A63189BB227
:10082800013B9BB292B2FFF78CFF04FB05F5002455
:1008380003E03046FFF7C0FF0134AC42F9D370BD86
:1008480000B583B000904FF4A073AC220021084695
:10085800FFF7C8FF03B000BD08B500F095F800F039
:10086800ECF8112000F0F5F8782000F00BFA1320CE
:1008780000F0EFF83A2000F0ECF8552000F0F5F819
:10088800362000F0E6F8002000F0EFF8212000F014
:10089800E0F8292000F0DDF8142000F0F3F900203A
:1008A800FFF7CEFF08BD82B00823019303E000BF25
:1008B800019B013B0193019B002BF8D102B07047CB
:1008C80008B501224FF48061014800F0BDFE08BD63
:1008D8000004004808B500224FF48061014800F088
:1008E800B3FE08BD0004004808B501224FF40061BA
:1008F800014800F0A9FE08BD0004004808B5002220
:100908004FF40061014800F09FFE08BD0004004854
:1009180008B501224FF48051014800F095FE08BD4A
:100928000004004808B500224FF48051014800F047
:100938008BFE08BD0004004808B501224FF40051A1
:10094800014800F081FE08BD0004004808B50022F7
:100958004FF40051014800F077FE08BD000400483C
:1009680008B501224FF40041014800F06DFE08BDB2
:100978000004004808B500224FF40041014800F087
:1009880063FE08BD00040048F0B587B001AC00253F
:1009980001950295039504950595164BDA6C42F07E
:1009A8000202DA64DB6C03F002030093009B4FF44D
:1009B800E05301930126029604960F4F21463846CC
:1009C80000F052FD4FF42043019302960395022351
:1009D80004932146384600F047FDFFF771FFFFF703
:1009E80097FFFFF78BFFFFF7B1FFFFF7C3FF07B0D4
:1009F800F0BD00BF001002400004004808B550B127
:100A0800FFF7AEFFFFF798FFFFF74DFFFFF79EFFD9
:100A1800FFF749FF08BDFFF7ADFFF3E738B5044618
:100A2800002507E004F08000FFF7E8FF6400E4B267
:100A38000135EDB2072DF5D938BD08B5FFF74AFFE6
:100A4800142000F01FF9FFF73BFF782000F01AF997
:100A580008BD10B50446FFF751FFFFF763FF2046B6
:100A6800FFF7DCFFFFF754FF10BD10B50446FFF792
:100A78003BFFFFF757FF2046FFF7D0FFFFF748FF80
:100A880010BDFEE7FEE7FEE7FEE7FEE770477047AA
:100A9800704708B500F0E4F808BD000000B583B061
:100AA8000B4B1A6E42F001021A661A6E02F001022E
:100AB8000092009A9A6D42F080529A659B6D03F0FD
:100AC80080530193019B00F08BF803B000BD00BF79
:100AD80000100240002836D13E4B1B6803F4C06367
:100AE800B3F5806F08D03B4AD2F8803023F4807386
:100AF800C2F8803000207047364AD2F8803023F49C
:100B08008073C2F88030136823F4C06343F4007321
:100B18001360314B1B68322202FB03F32F4AA2FBFE
:100B280003239B0C013300E0013B2A4A526912F46B
:100B3800806F01D0002BF7D1264B5B6913F4806FCF
:100B480044D100207047B0F5007F08D0214A1368CF
:100B580023F4C06343F480631360002070471D4B87
:100B68001B6803F4C063B3F5806F08D0194AD2F844
:100B7800803043F48073C2F8803000207047154AF3
:100B8800D2F8803043F48073C2F88030136823F4BD
:100B9800C06343F4007313600F4B1B68322202FBDF
:100BA80003F30E4AA2FB03239B0C013300E0013B35
:100BB800084A526912F4806F01D0002BF7D1054B17
:100BC8005B6913F4806F03D10020704703207047DE
:100BD80003207047007000400800002083DE1B439C
:100BE800024A936843F48043936070470070004062
:100BF800104B1B680BB90120704710B504460E4A0C
:100C080010684FF47A72B2FBF3F3B0FBF3F000F024
:100C180075FD68B90F2C01D901200AE00022214690
:100C28004FF0FF3000F05AFD044B1C60002000E03C
:100C3800012010BD00000020080000200400002052
:100C480010B5032000F038FD0F20FFF7D1FF10B1D9
:100C58000124204610BD0446FFF720FFF9E70000F5
:100C6800034A1368034909680B441360704700BFBF
:100C7800581B002000000020014B1868704700BF77
:100C8800581B002038B50446FFF7F6FF0546B4F1B7
:100C9800FF3F02D0044B1B681C44FFF7EDFF401BCD
:100CA800A042FAD338BD00BF00000020124BDA681A
:100CB80002F00302DB68C3F303130133032A11D0E4
:100CC8000E48B0FBF3F00C4BDB68C3F3062303FBC1
:100CD80000F0094BDB68C3F3416301335B00B0FBF1
:100CE800F3F070470648B0FBF3F0034BDB68C3F33F
:100CF800062303FB00F0ECE7001002400024F40098
:100D080000127A00002800F04F8270B582B00446C5
:100D1800036813F0010F37D0A44A936803F00C035B
:100D2800D26802F003020C2B23D0082B23D063686F
:100D3800B3F5803F4ED0B3F5A02F51D09B4B1A6826
:100D480022F480321A601A6822F480221A606368DA
:100D5800002B52D0FFF790FF0546944B1B6813F405
:100D6800003F11D1FFF788FF401B6428F5D9032005
:100D780023E2032AD9D18D4B1B6813F4003F03D01B
:100D88006368002B00F01282236813F0020F5DD015
:100D9800864A936803F00C03D26802F003020C2B16
:100DA8003AD0042B3AD0E368002B75D07F4A1368F9
:100DB80043F480731360FFF75FFF05467B4B1B68A6
:100DC80013F4806F5FD1FFF757FF401B0228F5D956
:100DD8000320F2E1754A136843F480331360B6E7E1
:100DE80003F18043A3F53C331A6842F480221A6069
:100DF8001A6842F480321A60A9E7FFF73DFF0546FA
:100E08006A4B1B6813F4003FBED0FFF735FF401B49
:100E18006428F5D90320D0E1022AC2D1634B1B68AC
:100E280013F4806F03D0E368002B00F0C1815F4AA0
:100E3800536823F0FE43216943EA016353605C4B26
:100E48001868FFF7D5FE002840F0B481236813F036
:100E5800080F4CD063699BB3544AD2F8943043F0DE
:100E68000103C2F89430FFF707FF05464F4BD3F84C
:100E7800943013F0020F3AD1FFF7FEFE401B022810
:100E8800F4D9032099E1494A536823F0FE432169C4
:100E980043EA01635360D9E7444A136823F4807333
:100EA8001360FFF7E9FE0546404B1B6813F4806F9B
:100EB800CCD0FFF7E1FE401B0228F5D903207CE1E6
:100EC8003A4AD2F8943023F00103C2F89430FFF77D
:100ED800D3FE0546354BD3F8943013F0020F06D0F5
:100EE800FFF7CAFE401B0228F4D9032065E12368F6
:100EF80013F0040F00F081802C4B9B6D13F0805F82
:100F080036D12A4B9A6D42F080529A659B6D03F058
:100F180080530193019B0125264B1B6813F4807FA6
:100F280028D0A368012B39D0052B45D01F4BD3F807
:100F3800902022F00102C3F89020D3F8902022F0EC
:100F48000402C3F89020A368002B43D0FFF794FE57
:100F58000646164BD3F8903013F0020F4CD1FFF72A
:100F68008BFE801B41F288339842F2D9032024E19A
:100F78000025D1E70F4A136843F480731360FFF725
:100F88007BFE06460B4B1B6813F4807FC9D1FFF725
:100F980073FE801B0228F5D903200EE1034AD2F81C
:100FA800903043F00103C2F89030CCE700100240C3
:100FB8000400002000700040884BD3F8902042F0D5
:100FC8000402C3F89020D3F8902042F00102C3F83D
:100FD8009020B8E7FFF750FE0646804BD3F89030D4
:100FE80013F0020F08D0FFF747FE801B41F2883349
:100FF8009842F2D90320E0E0E5B9236813F0200F06
:1010080035D0A369E3B1754AD2F8983043F00103AB
:10101800C2F89830FFF730FE0546704BD3F8983089
:1010280013F0020F23D1FFF727FE401B0228F4D943
:101038000320C2E0694A936D23F080539365DCE78F
:10104800664AD2F8983023F00103C2F89830FFF7C7
:1010580013FE0546614BD3F8983013F0020F06D003
:10106800FFF70AFE401B0228F4D90320A5E0E36934
:10107800002B00F0A180594A926802F00C020C2A59
:1010880064D0022B13D0554A136823F08073136081
:10109800FFF7F2FD0446514B1B6813F0007F4ED05A
:1010A800FFF7EAFD001B0228F5D9032085E04B4A2B
:1010B800136823F080731360FFF7DEFD0546474B86
:1010C8001B6813F0007F06D0FFF7D6FD401B0228EF
:1010D800F5D9032071E0414AD36841491940236A90
:1010E800606A013843EA0013A06A43EA0023206BD0
:1010F8004008013843EA4053606B4008013843EA2E
:101108004063E06A43EAC0631943D160136843F05F
:1011180080731360D36843F08073D360FFF7ACFD2E
:1011280004462E4B1B6813F0007F06D1FFF7A4FD81
:10113800001B0228F5D903203FE000203DE0274AA4
:10114800D168284B0B40D360002036E0012B36D005
:10115800224BDB6803F00301226A914231D103F08C
:10116800F002616A0139B2EB011F2CD103F4FE428F
:10117800A16AB2EB012F28D103F07842E16AB2EB01
:10118800C16F24D103F4C001226B5208013AB1EBBC
:10119800425F1ED103F0C063626B5208013AB3EBA1
:1011A800426F18D1002008E001207047012004E0B8
:1011B800012002E0012000E0002002B070BD012003
:1011C800FBE70120F9E70120F7E70120F5E7012017
:1011D800F3E70120F1E70120EFE700BF001002402C
:1011E8000C809F01FCFFEEFE1E4B9B6803F00C0376
:1011F800042B33D01B4B9B6803F00C03082B2FD018
:10120800184B9B6803F00C030C2B01D0002070478F
:10121800144BDA6802F00302DB68C3F303130133EB
:10122800032A11D01048B0FBF3F00E4BDB68C3F370
:10123800062303FB00F00B4BDB68C3F34163013368
:101248005B00B0FBF3F070470848B0FBF3F0054BC8
:10125800DB68C3F3062303FB00F0ECE702487047A2
:1012680002487047001002400024F40000127A007F
:10127800002800F0E680F8B50C460546744B1B685C
:1012880003F00F038B420BD2714A136823F00F034C
:101298000B431360136803F00F038B4240F0D380B5
:1012A8002E6816F001065FD06B68032B2FD0022B37
:1012B8004DD0684B1B6813F4806F00F0C680FFF7B1
:1012C80093FF654B98424DD9624A936823F0F00327
:1012D80043F08003936080265E4A936823F00303FB
:1012E80069680B439360FFF7C7FC0746594B9B6837
:1012F80003F00C036A68B3EB820F35D0FFF7BCFC30
:10130800C01B41F288339842F0D9032078E0514B52
:101318001B6813F0007F01D1012071E0FFF7C6FCC4
:101328004D4B98421AD94B4B9B6813F0F00F05D0E0
:101338002E6816F00206CFD0AB688BB9454A936881
:1013480023F0F00343F0800393608026C4E7414B09
:101358001B6813F4003FB2D1012051E00026BBE71F
:101368000026B9E70026B7E72B6813F0020F48D02C
:1013780013F0040F04D0374A936843F4E063936092
:101388002B6813F0080F06D0324A936823F47C5375
:1013980043F4E06393602F4A936823F0F003A9684D
:1013A8000B4393602A4B1B6803F00F03A34230D80A
:1013B8002B6813F0040F06D0264A936823F4E063E1
:1013C800E9680B4393602B6813F0080F07D0214A94
:1013D800936823F46053296943EAC1039360FFF7D4
:1013E80003FF1C4B9B68C3F303131C4AD35C03F035
:1013F8001F03D8401A4B18601A4B1868FFF7F8FB00
:10140800F8BD802ECED1134A936823F0F003936081
:10141800C8E70F4A136823F00F0323431360FFF74D
:101428002BFC06460A4B1B6803F00F03A342BFD0F0
:10143800FFF722FC801B41F288339842F2D903203F
:10144800DEE7012070470120DAE70120D8E700BF76
:10145800002002400010024000B4C40424BD030868
:101468000800002004000020F0B583B0002366E0E7
:1014780085685E000324B44025EA0405CC68B440BE
:101488002C438460456825EA0C054C68C4F30014B5
:101498009C402C43446063E08C68012C65D173E068
:1014A800DD08083550F8254003F0070C4FEA8C0C8E
:1014B8004FF00F0E0EFA0CFE24EA0E0E0C6904FA19
:1014C8000CF444EA0E0440F8254062E0052400E0EC
:1014D800002404FA0EF42C430CF1020C564D45F886
:1014E8002C40564CA568D44325EA02064F6817F4E9
:1014F800801F01D042EA0506504DAE60ED6804EA4F
:1015080005064F6817F4001F01D042EA05064B4D47
:10151800EE606D6804EA05064F6817F4003F01D0D5
:1015280042EA0506454D6E602D682C404E6816F45B
:10153800803F01D042EA0504404A146001330A683A
:1015480032FA03F476D04FF0010C0CFA03FC1CEAD3
:101558000202F3D04C6804F00304013C012C87D943
:101568004C6804F00304032C96D0C4684FEA430E79
:101578004FF0030C0CFA0EFC24EA0C0C8C6804FAED
:101588000EF444EA0C04C4604C6804F00304022C12
:1015980086D004684FEA430E4FF0030C0CFA0EFC99
:1015A80024EA0C0C4C6804F0030404FA0EF444EA30
:1015B8000C0404604C6814F4403FBFD0204C256EE6
:1015C80045F001052566246E04F001040194019C90
:1015D8004FEA930C0CF10205174C54F8255003F010
:1015E800030E4FEA8E0E0F2404FA0EF425EA0405C2
:1015F800B0F1904F3FF46CAF124CA04212D004F5FA
:101608008064A04210D004F58064A0420ED004F596
:101618008064A0420CD004F58064A0423FF456AF29
:10162800062456E7012454E7022452E7032450E72E
:1016380004244EE703B0F0BD00000140000401405F
:1016480000100240000400480AB1816170478162BD
:1016580070470000002808DB0901C9B200F16040AA
:1016680000F5614080F80013704700F00F00090191
:10167800C9B2014B1954704714ED00E000B500F0F1
:101688000700C0F1070CBCF1040F28BF4FF0040C91
:10169800031D062B0ED9C31E4FF0FF3E0EFA0CF0A9
:1016A80021EA000199400EFA03FE22EA0E0241EAFD
:1016B800020000BD0023EFE7074AD36823F4E06384
:1016C8001B041B0C000200F4E060034343F0BF63FB
:1016D80043F40033D360704700ED00E010B50446D2
:1016E800054BD868C0F30220FFF7C8FF0146204623
:1016F800FFF7B0FF10BD00BF00ED00E00138B0F10A
:10170800807F0BD24FF0E0235861054AF02182F820
:1017180023100020986107221A6170470120704742
:1017280000ED00E0034AD2F8883043F47003C2F8B1
:101738008830704700ED00E008B310B504464FF458
:10174800017200211AF00CFF4FF4497104F10800EE
:101758000EF04CF84FF4A27104F148000EF046F870
:10176800074BA366012384F828300323E365B023DD
:1017780023634523636703480EF07AFB10BDFEE739
:10178800D4C3B2A1CDAB3412154B1B7903B170474A
:1017980010B5134C2046FFF7CFFF1AF023F909F0D4
:1017A8005BFB2AF04DF80FF04DFF0FF011FF0DF025
:1017B800ADFE0BF029FF0CF091F800F0B9F808F035
:1017C8004AFD10F039F905F079FD07F073FA0021A8
:1017D80008460BF02BFC19F0DDFF0123237110BD27
:1017E8005C1B002070B5054600200BF031FE044656
:1017F800002603E020460BF02BFE044664B1204689
:101808000BF03AFE012806D020460BF03FFE854239
:10181800F0D12646EEE72646304670BD2DE9F04762
:10182800037F13F0010F6ED106468A469146C568BC
:101838004FF001080027E5B1012357B32BB1294622
:101848003046C8470546874268D0002DF3D028683F
:1018580000F03EFE10F4007FEDD12C681CB301218E
:10186800204600F079FDC0B9204606F0DFFC0446AA
:10187800F4E7337F13F0080F01D1002F48D1B8F1F6
:10188800000F42D03046D04705464FF00008434687
:10189800D3E7002D3FD02F46D0E70121204600F0A6
:1018A8005BFD0028C7D1F368AB423AD08BB11C6806
:1018B8003046FFF797FF02461421204602F09DFAB2
:1018C800012802D04FF000081FE0F368186803F001
:1018D80082FAF5602C683046FFF784FF0246132130
:1018E800204602F08AFA012802D04FF000080CE0E6
:1018F800F368186803F06FFA3369ABB1304698475C
:101908004FF0010801E04FF000084046BDE8F087BD
:101918004FF00008F9E74FF00008F6E74FF000082D
:10192800F3E74FF00008F0E74FF00108EDE700009B
:1019380008B5202101480DF059FF08BD941B00206F
:10194800014B586C704700BF5C1B002060B110B59C
:101958000446064A0649FFF761FF63691BB110B9DF
:1019680001212046984710BDFEE700BF91F8000806
:1019780081F8000860B110B50446064A0649FFF729
:101988004DFF63691BB110B900212046984710BD6F
:10199800FEE700BF99F8000889F8000838B5044642
:1019A800037FC3F3C00543F008030377DBB213F0EA
:1019B800040F06D1FFF7CAFF237F65F3C30323771C
:1019C80038BDFFF7D7FFF7E770B5064600F092FD80
:1019D800002849D00546C36813B11B68B34213D029
:1019E800EB6813B11B68B34230D028460DF044FFB2
:1019F8000446002C38D02368B3422AD02146284612
:101A08000DF042FF0446F4E7037F13F0010F03D003
:101A1800037F23F00103037728460DF02DFFEB68C1
:101A2800834203D02846FFF7B9FFD9E728460DF0CF
:101A380027FFEB688342F5D11C682846FFF7D2FEE2
:101A480002461421204602F0D8F9C9E70023EB60CA
:101A5800CBE7214628460DF051FF20460FF012FE35
:101A6800B3680BB100225A6070BDF0B170B50C4676
:101A780005460846FFF7A8FFA3686BB1A3685D6039
:101A880028460DF0DAFE064650B1046028460DF0EF
:101A9800F3FE864205D070BD204601F014F8EDE74C
:101AA800FEE72846FFF77AFFF5E7704718B1C068E8
:101AB80008B1006870477047D8B170B50446037F15
:101AC800C3F340038B4213D0037F61F341030377D1
:101AD800FFF7ECFF054658B1E3681E682046FFF79C
:101AE80081FE02461321304602F087F9012801D011
:101AF80070BDFEE7284603F06EF9F9E718B1007FDC
:101B0800C0F3400070470020704710B590F808C037
:101B1800BCF1FF0F0CD004684FEA8C0E00239C45E3
:101B28001BD904EB0E00C05C884211D00133F6E7E4
:101B38000468002304EBC30C14F8330070B1884226
:101B480001D00133F6E7DCF804301360012005E02A
:101B580054F823301360012000E0002010BD30B598
:101B680089B005460C4608460AF032FE48224FF472
:101B78008031284605F0B0FB0190C0B284F83A00E5
:101B880002283AD83A224FF48031284605F0A4FBBF
:101B98000190C0B284F83B00022847D851224FF484
:101BA8008031284605F098FB0190C0B284F83D00CA
:101BB800022862D84FF48031284605F05EFDFC28E3
:101BC8000BD894F83A3003FB00F0C0F3072084F8F0
:101BD8003A0084F83B0084F83D00638F13B994F809
:101BE8003D0040B178224FF48031284605F074FB5F
:101BF8000190A062012009B030BD49224FF4803124
:101C0800284605F069FB0190ADF80C00030C8DF82F
:101C18000E30039BADF808301B0C8DF80A30BDF868
:101C28000820DBB2E28784F84030ABE738224FF473
:101C38008031284605F050FB0190E067002803DC5E
:101C4800002384F83B30A9E739224FF48031284635
:101C580005F042FB0190ADF81400030C8DF8163026
:101C6800059BADF810301B0C8DF81230049BA4F8BE
:101C780078301B0C84F87A3090E74A224FF4803190
:101C8800284605F029FB0190C4F89000002803DCE1
:101C9800002384F83D308DE763224FF480312846D5
:101CA80005F01AFB0190C4F89C0058224FF48031CB
:101CB800284605F011FB0190ADF81C00030C8DF8C7
:101CC8001E30079BADF818301B0C8DF81A30069B98
:101CD800A4F88C301B0C84F88E306BE7F0B5BFB0DD
:101CE80004460E463AAD36AA294604F07DFC28463D
:101CF8000CF070F818B936A80CF06CF828B10EA9D9
:101D08002046FFF72CFF012801D03FB0F0BD892203
:101D18004FF48031204605F0DFFA0546009001A80F
:101D280009F014F8189B0C9388224FF48031204650
:101D380005F0D2FA00900B903AA80CF04BF878B165
:101D48002DBB002703973AAC224601A9304609F07B
:101D580006F8109722460EA930460AF0C4FDEDB1E8
:101D680036A80CF037F80028CFD001230393DDB94B
:101D78000123109336AA0EA930460AF0B4FD002DAF
:101D8800C3D136AA01A9304608F0E9FFBDE701AA88
:101D98004FF48031204601F01EFED2E7224601A909
:101DA800304608F0DCFFDBE736AA01A9304608F028
:101DB800D6FFDDE72DE9F041BAB006460DF090FAFE
:101DC800044630460DF088FA0546A4F11A03062B9E
:101DD80000F2D680DFE813F00700D400D4009400A6
:101DE800E900D400270130460DF07EFA0446037856
:101DF800022B00F0C58080220021284605F06CFAED
:101E0800129010B102232370BAE0782200212846EC
:101E180005F062FA0646129004220021284605F0D1
:101E28005BFA0746129005220021284605F054FA6D
:101E3800024612906B691293AB691393EB69149382
:101E48002B6A15930DF14808394640460BF0CCFF34
:101E58003246414660680CF032FB10B9012323700A
:101E68008EE048220021284605F036FA0590C0B2D7
:101E7800FC2802D80123237082E070220021284622
:101E880005F02AFA0590C0B2FC2802D80123237075
:101E980076E029220021284605F01EFA059010F068
:101EA800FF0F14D02B220021284605F015FA0590C3
:101EB800C0B2FC2802D80123237061E02A22002145
:101EC800284605F009FA0590C3B2FC2BF3D928225D
:101ED8000021284605F000FA059070B10023827AA7
:101EE8009A420AD903EB83020244D278FC2A01D928
:101EF8000133F4E70123237042E0002323703FE01D
:101F0800304602F00FF8044612A80AF061FC169455
:101F180004220021284605F0DFF90646059005222F
:101F28000021284605F0D8F9024605906B6901930F
:101F3800AB690293EB6903932B6A0493314601A8BA
:101F48000BF052FF89220021284605F0C5F90590BB
:101F5800C8B912AA0021284601F011F93B22002134
:101F6800284605F0B9F9059028B19DF8C83043F026
:101F780020038DF8C83001AA12A920460AF0B3FC44
:101F88003AB0BDE8F08105AE304608F0DFFE3246D3
:101F98000021284601F01FFD1C9B1093099401AAFB
:101FA8003146204608F0DBFED3E7304601F0BAFFA1
:101FB800044689220021284605F08EF9129000284F
:101FC800DED104220021284605F086F90646129043
:101FD80005220021284605F07FF9024612906B6918
:101FE8000593AB690693EB6907932B6A089305AFD2
:101FF800314638460BF0F8FE12AE304608F0A6FE21
:1020080032460021284601F0E6FC782200212846C5
:1020180005F062F901901D9016943A463146204623
:1020280008F09DFEACE7304601F07CFF044601460F
:102038002846FFF753FE38220021284605F04CF9C0
:10204800129000289CD03B220021284605F044F934
:102058001290002894D00DF1480840460AF0B8FBC9
:1020680000268DF882608DF87F608DF884608DF889
:102078008560169442463146284601F080F80422CD
:102088003146284605F028F90746059005223146CD
:10209800284605F021F9024605906B690593AB695E
:1020A8000693EB6907932B6A089305AD39462846D2
:1020B8000BF09AFE2A46414620460AF014FC5FE7D8
:1020C8002DE9F04182B00C464D6805B3284603F06F
:1020D800C1FE0746284603F065FE8046AE69182211
:1020E8000021284605F0F8F801903318A3EB0803FF
:1020F800A361013B23626E691A220021284605F07C
:10210800EBF801900644F01B60610138E06102239E
:10211800636241F2020363622DB143F20203636218
:1021280043F202336362636A43F00402626243F07B
:102138001402626243F03402626243F07402626223
:1021480043F4076242F00402626225B143F4084393
:1021580043F07403636202B0BDE8F0812DE9F04FEB
:1021680087B00B460291018D994200F0C88007465E
:10217800ADF816101A4605F044F98146B8B138464C
:1021880002F029FE029B3B85384605F0B2FA97F823
:102198002C3013F0010F13D04FF420700FF060FAB9
:1021A80005464FF000084446CDF80C9058E0029BD5
:1021B8003B850DF116022821384601F01EFE9EE0EF
:1021C800384602F008FEB9F1020F06D00DF11602EA
:1021D8002821384601F011FE91E0384601F000FD53
:1021E800F4E7013294420FD902EB820305EB830333
:1021F80059681FFA81FC01F47F011B7A8342F0D1F0
:10220800B142EED1CC45ECD394420AD00EF1010E86
:10221800DBF8003013F80E0000B31F2C1ED8002284
:10222800E0E7DBF80C3004EB840105EB810225F8CC
:102238002130DBF810305380DBF80830D360DBF84E
:10224800003013F80E301372DBF804301361DAF83B
:102258000430C3F3170353600134D7E708F10108CA
:102268007B8DC3F3051343454CD91F2C1ED8FB683F
:1022780003EBC80ADAF804601FFA86F906F47F0649
:10228800029A39EA0202E9D19AF8072012F0020FFD
:10229800E4D104AA762153F83800FFF736FC012868
:1022A800DCD1DDF810B04FF0000EB1E7DDF80C908E
:1022B8000026DDF808800EE006EB860305EB8303B5
:1022C800596800934346BDF8162001F47F0138464B
:1022D80005F0C6FC0136B442EED828460FF0D2F914
:1022E800B9F1010F14D0B9F1030F18D0B9F1020FE9
:1022F8001CD00DF116022821384601F07EFD07B0EA
:10230800BDE8F08FDDF80C900026DDF80880E2E7E4
:10231800FF224FF47021384605F006FAE9E7FF225C
:102328004FF47021384605F0FFF9E2E7384602F02D
:1023380052FD384601F054FCDBE7000010B50146B9
:10234800044800F00FFC20B1044600F09BFC204636
:1023580010BDFEE734BD030828B1436A99430CBF9A
:10236800012000207047FEE740B138B50C4605460D
:10237800038D194334EA030301D138BDFEE7FFF7A3
:10238800EDFE4FF480012846FFF7E6FF0028F4D061
:102398002146284600F001F8EFE7F8B506460F4653
:1023A80005F0BEFF0546002400E00134AC4209D226
:1023B8002146304605F06EFF0028F6D03946FFF773
:1023C800D3FFF2E7F8BD50B138B50D460446028D8B
:1023D800CB431BB202EA03019A4301D138BDFEE7A1
:1023E800FFF7BCFE4FF480012046FFF7B5FF002839
:1023F800F4D02946204600F001F8EFE7F8B5064684
:102408000F4605F08DFF0546002400E00134AC427C
:1024180009D22146304605F03DFF0028F6D039465E
:10242800FFF7D1FFF2E7F8BD08B512B1FFF79CFF3F
:1024380008BDFFF7C8FFFBE728B1406A084000382D
:1024480018BF01207047FEE750B12DE9F04188B070
:102458000C460546FFF7F0FF18B908B0BDE8F08153
:10246800FEE7284601F056FF064614F0100F14D177
:102478006B6A23EA04036B6214F0010F1CD128462F
:1024880001F048FFB04202D114F0C07FE5D02846E1
:1024980005F0CCFE01F05CFFDFE704AF3A46694681
:1024A800284604F0A1F86946284602F081FC39461E
:1024B800284602F07DFCDBE7284602F08CFC284623
:1024C80005F0B4FE01F044FF284601F041FFD6E7CD
:1024D80008B1008D7047FEE728B1008D084000382C
:1024E80018BF01207047FEE718B190F82B00C0090B
:1024F8007047FEE718B1806800B140687047FEE792
:102508002DE9F04188B00D4608460CF0E9FE044676
:1025180028460CF0E1FE0646631E322B00F241828B
:10252800DFE813F033003F02A8003F023F023F02FA
:102538003F023F023F023F023700C1013F02C6018E
:102548003F023F02BB003F029001DE013F023F0213
:1025580042024B024F023C0234023F023C023C0260
:102568003F023C023F023F026F003F023F023F0230
:102578003F023F023F023F0204023F022B023F029A
:102588003F023F023F02E201AC008021FFF7ECFE70
:1025980007E28021FFF717FF28460CF0A5FE0AF096
:1025A8009FFF002840F0FD8108213046FFF7D4FE48
:1025B800002800F0F68104213046FFF78DFF04461D
:1025C8003046FFF785FF10F0040F10D10421304684
:1025D800FFF7CAFE04213046FFF77EFFA04200F055
:1025E800E08100222321304601F007FCD9E1304682
:1025F800FFF77AFF0028EDD104213046FFF7E3FE0C
:10260800E8E7FFF771FF002800F0CB81042130468E
:10261800FFF762FF002800F0C481304605F006FE8F
:102628008046002800F0BD8105F07AFE07460025A7
:1026380000E00135BD4280F0B4812946404605F0EE
:1026480029FE04468642F4D0FFF74EFF0028F0D05A
:1026580004212046FFF740FF0028EAD00421204645
:10266800FFF7B1FE00222321204601F0C6FB012816
:10267800DFD096E18021FFF7A6FE92E105F050FE3B
:102688000546002406E0B3681B6853F8240001F0EF
:102698005FFE0134AC42F6D383E10821FFF75CFE0C
:1026A80070B3284601F04FFC044604213046FFF77A
:1026B80013FF0546A4F11103032B07D8DFE803F045
:1026C8000216021604213046FFF74EFE0A2C00F0CF
:1026D800688104213046FFF7FFFEA84200F06181BF
:1026E80000222321304601F088FB5AE13046FFF7EB
:1026F800FBFE0028EAD104213046FFF764FEE5E737
:102708004FF401613046FFF727FE002800F04981A9
:10271800304600F08DFA002840F04381304603F03F
:1027280099FB0746304603F0FBFB0446284601F0B8
:102738000AFCA0F11103032B00F23381DFE803F058
:1027480014022654304603F026FB0446304601F0B6
:1027580075FE011E06DB002204EBA101304603F0E2
:10276800B5FD1EE10331F6E7304603F014FB0446DD
:10277800304601F063FE011E06DB0022A4EBA10136
:10278800304603F0A3FD0CE10331F6E7304603F0D1
:10279800E1FA10F0030F13D0002F01DC002C0FDD3D
:1027A800304603F0F1FA0446304601F040FE011EBF
:1027B80018DB002204EBA101304603F073FDF0E0C2
:1027C800304603F0E8FA0446304601F037FE011EB1
:1027D80006DB002204EBA101304603F077FDE0E0C0
:1027E8000331F6E70331E4E7304603F0B3FA10F0BB
:1027F800030F13D0002F01DC002C0FDD304603F04F
:10280800C3FA0446304601F012FE011E18DB00220E
:10281800A4EBA101304603F045FDC2E0304603F0C9
:10282800BAFA0446304601F009FE011E06DB002212
:10283800A4EBA101304603F049FDB2E00331F6E70D
:102848000331E4E74FF48061FFF786FDB0B9304605
:10285800FFF750FEFFF752F904460AF007FE90B161
:102868000AF00AFE022812D0042812D0082194B1D6
:1028780041F020013046FFF777FD92E00121304614
:1028880003F094FEE3E7284601F03AFBE8E7182155
:10289800EDE71821EBE73046FFF766FD20213046CB
:1028A800FFF791FD7DE04FF48071FFF75DFD78E063
:1028B8004FF48071FFF787FD304603F042FA022893
:1028C8006FD104AC22466946304603F08DFE694656
:1028D800304602F06DFA2146304602F069FA60E0AF
:1028E8003821FFF770FD5CE01222002104F0F4FCAF
:1028F8000490C4B284220021304604F0EDFC049018
:1029080080B200B914B1304601F022FD304605F01E
:1029180007FD0546002406E0B3681B6853F8240049
:1029280001F016FD0134AC42F6D33AE00122002151
:1029380004F0D2FC0446049002220021304604F040
:10294800CBFC0546049012220021304604F0C4FC5A
:102958000490C7B284220021304604F0BDFC0490E4
:1029680083B233B92FB96FF040439C4201D09D42E6
:1029780017D1304601F0ECFC13E090F82A3043F010
:10298800020380F82A3001F0E3FC0AE0002101F09C
:1029980042F80146284601F0F0FA02E02846FFF71F
:1029A80009FA08B0BDE8F0818021FFF70CFD4FF46B
:1029B80080713046FFF707FDF3E74021FFF7D4FCAD
:1029C800EFE74021FFF7FFFCEBE710B50C460846A0
:1029D8000CF094FC002004F079FC204604F0C2FFBF
:1029E800012004F073FC002120460AF0ABFF2046CA
:1029F800FFF780FD10B12046FEF7E6FFA3687BB124
:102A0800186820B10EF03EFEA36800221A60A06884
:102A180008300CF049FCA0680EF034FE0023A360D7
:102A280010BD40B1F0B589B00C460546FFF794FCDF
:102A380010B109B0F0BDFEE7284601F06BFC064670
:102A480014F0010725D16B6A23436B622FBB28461C
:102A580001F060FCB04202D114F0C07F07D02846D4
:102A680005F0E4FB01F074FC284601F071FC14F059
:102A7800100FDED004AC22466946284603F0B4FDA8
:102A88006946284602F094F92146284602F090F952
:102A9800CFE7284602F09FF9D5E708212846FFF737
:102AA8001BFD0028D3D02846FFF724FD0746002841
:102AB800CDD0FEF74BFF3846FEF7F8FF0028C6D00A
:102AC80002F089F9C3E720B110B5044683680BB159
:102AD80010BDFEE734200EF0C3FDA06058B1438E50
:102AE80043F470734386A26892F8323043F00303CC
:102AF80082F83230ECE7FEE728B10068884214BF5C
:102B080000200120704700207047036800E01B6820
:102B18001BB18B42FBD1012070470020704770B574
:102B280005460C460E6833681BB10B60FFF7F7FFCC
:102B3800266023685B6813B121462846984770BD14
:102B480000E0006820B1026A054B1340002BF8D062
:102B580018B1006AC0F30F1070470020704700BF1B
:102B6800F0FF0F0070B506460C46FFF7E9FF0EF0C0
:102B780077FD0546C0B106604460BCB1A368002B70
:102B880043D0A268138E01331386A668318E89005C
:102B980030680EF081FD3060A3681A681B8E03F15F
:102BA8008043013B42F82350284670BD06F0BAFF27
:102BB800044600B3D0F8BC0210B3D4F8D8120131DF
:102BC80089000EF069FDF8B1D4F8D822511CC4F878
:102BD800D812C4F8BC0240F8225000246C61AC61E1
:102BE800204606F0B3FF0138E861204606F0C4FF2E
:102BF80001382862D8E728460EF044FD2546D3E779
:102C08000023C4F8D832D8E7FEE72046FFF75BFF79
:102C1800B7E710B50446006883680BB121469847AA
:102C280023681B681BB123602046FFF7F2FF10BD25
:102C3800036800E01B6823B193F8202012F0030F0B
:102C4800F8D043B193F8200000F00300012814BF26
:102C580000200120704700207047036800E01B68CF
:102C680023B193F8202012F00C0FF8D043B193F859
:102C7800200000F00C00042814BF00200120704739
:102C880000207047C0B338B5044601F061FB00204E
:102C980004F01CFB20460EF04CFD21462068FFF78F
:102CA8003EFF012004F012FBFF224FF47021204662
:102CB80004F03AFD204601F0B0FEFEF741FE05465D
:102CC80018B12046FFF7C9FF88B9204605F0AEFACB
:102CD800054658B122462B2101F08FF822462C21B7
:102CE800284601F08AF8204602F075F838BD2146DA
:102CF8002846FEF7BAFEE8E7704710B582B01369B8
:102D08007BB119B993F84E0002B010BD93F84E404C
:102D1800702204F0E1FA0190C0B204FB00F0000A4E
:102D2800F2E704F0AAFCEFE730B585B004460D469B
:102D3800492204F0D1FA024602902946204604F0BE
:102D48005AFB0190ADF80C00030C8DF80E300020F2
:102D58009DF80C3063F307009DF80D3063F30F20E6
:102D68009DF80E3063F3174005B030BD30B585B01F
:102D780004460D462C2204F0AFFA0246029029467A
:102D8800204604F038FB0190ADF80C00030C8DF8D8
:102D98000E3000209DF80C3063F307009DF80D30CD
:102DA80063F30F209DF80E3063F3174005B030BD74
:102DB80030B585B004460D46392204F08DFA024636
:102DC80002902946204604F016FB0190ADF80C004D
:102DD800030C8DF80E3000209DF80C3063F30700CB
:102DE8009DF80D3063F30F209DF80E3063F3174004
:102DF80005B030BD30B585B004460D46412204F01B
:102E08006BFA024602902946204604F0F4FA019033
:102E1800ADF80C00030C8DF80E3000209DF80C3036
:102E280063F307009DF80D3063F30F209DF80E3013
:102E380063F3174005B030BD30B585B004460D4684
:102E48005C2204F049FA024602902946204604F022
:102E5800D2FA0190ADF80C00030C8DF80E3000206A
:102E68009DF80C3063F307009DF80D3063F30F20D5
:102E78009DF80E3063F3174005B030BD30B585B00E
:102E880004460D46342204F027FA024602902946E9
:102E9800204604F0B0FA0190ADF80C00030C8DF850
:102EA8000E3000209DF80C3063F307009DF80D30BC
:102EB80063F30F209DF80E3063F3174005B030BD63
:102EC80030B585B004460D46582204F005FA02468E
:102ED80002902946204604F08EFA0190ADF80C00C5
:102EE800030C8DF80E3000209DF80C3063F30700BA
:102EF8009DF80D3063F30F209DF80E3063F31740F3
:102F080005B030BD30B585B004460D46592204F0F1
:102F1800E3F9024602902946204604F06CFA019033
:102F2800ADF80C00030C8DF80E3000209DF80C3025
:102F380063F307009DF80D3063F30F209DF80E3002
:102F480063F3174005B030BD30B585B004460D4673
:102F58005A2204F0C1F9024602902946204604F09C
:102F68004AFA0190ADF80C00030C8DF80E300020E1
:102F78009DF80C3063F307009DF80D3063F30F20C4
:102F88009DF80E3063F3174005B030BD30B585B0FD
:102F980004460D465B2204F09FF90246029029463A
:102FA800204604F028FA0190ADF80C00030C8DF8C7
:102FB8000E3000209DF80C3063F307009DF80D30AB
:102FC80063F30F209DF80E3063F3174005B030BD52
:102FD80010B586B001939DF8204013691BB39B6C14
:102FE8000393D9B914B19DF80F3003BB9DF80F3086
:102FF80043B3039B049300209DF8103063F307004C
:103008009DF8113063F30F209DF8123063F31740D9
:103018009DF8133063F31F6006B010BD1A4604F024
:10302800D4FF0390DEE705F00DF80390DAE72146B8
:1030380001980BF0D9FC0146059003980BF0ADFF01
:103048000490D8E7214601980BF0CEFC0490D2E713
:1030580000B587B001931369C3B39B6C039381BB1D
:103068009DF80C209DF80D109DF80E000BF053FDF7
:103078008DF81400C0F307238DF81530C0F307400E
:103088008DF816009DF80F20019905980BF093FE16
:103098008DF81000C0F307238DF81130C0F30740F6
:1030A8008DF8120000209DF8103063F307009DF89A
:1030B800113063F30F209DF8123063F3174007B007
:1030C80000BD1A4604F081FF0390C9E704F0BAFF77
:1030D8000390C5E770B584B005460E4614469422A1
:1030E80004F0FAF80190C0B2E07608B904B070BDF7
:1030F80090223146284604F0EFF8019040F313007F
:10310800E36960F31303E36191223146284604F032
:10311800E3F80190A08292223146284604F0DCF8B8
:103128000190E08293223146284604F0D5F80190B8
:10313800ADF80C00030C8DF80E30039BADF8083089
:103148001B0C8DF80A30029B23831B0CA376A36902
:10315800224631462846FFF77BFF2076C0F3072337
:103168006376C0F30740A07695223146284604F0DE
:10317800B3F80190A37F60F30613A377B6E7F0B521
:1031880087B006460D46144610605160FFF7B5FD3E
:1031980007460DB102284FD978222946304604F057
:1031A8009BF80590A06294F83A30002B50D194F81F
:1031B8003B30002B40F0DE8094F83C30002B40F090
:1031C8001A8194F83730002B40F0538194F83D3041
:1031D800002B40F0D581FC2F27D894F83A3007FB14
:1031E80003F3C3F3072384F83A3094F8373007FB26
:1031F80003F3C3F3072384F8373094F83B3007FB15
:1032080003F3C3F3072384F83B3094F83D3007FBFE
:1032180003F3C3F3072384F83D3094F83C3003FBF1
:1032280007F7C7F3072784F83C702246294630463B
:10323800FFF750FF07B0F0BD002384F83A3084F858
:10324800373084F83B3084F83C3084F83D30F1E77F
:1032580048222946304604F03FF80590C0B284F869
:103268003A000228A3D929463046FFF75DFD8DF8BC
:103278000C00C0F307238DF80D30C0F307408DF81C
:103288000E00039B224629463046FFF7E1FE84F8EC
:103298003E00C0F3072384F83F30C0F3074084F8AA
:1032A800400028222946304604F016F8059018B147
:1032B800C37A13F00F0F56D129222946304604F05D
:1032C8000BF8059094F84F3060F3030384F84F30FF
:1032D800DBB213F00F0F3FF46AAFE28F94F840307F
:1032E800A4F8442084F8463029463046FFF73EFDCE
:1032F8008DF81000C0F307238DF81130C0F3074094
:103308008DF81200049B224629463046FFF7A0FE9E
:1033180084F84900C0F3072384F84A30C0F3074013
:1033280084F84B002D222946304603F0D5FF05903E
:1033380084F848002E222946304603F0CDFF059038
:1033480084F84D002A222946304603F0C5FF05902F
:1033580084F847002B222946304603F0BDFF05902C
:1033680084F84C0023E73022014604F1440019F0A8
:1033780063F81CE738222946304603F0ADFF059074
:10338800E06700283FF418AF3A222946304603F098
:10339800A3FF0590C0B284F83B0002287FF60CAF6B
:1033A8003C222946304603F097FF059094F8803078
:1033B80060F3040384F8803029463046FFF7F8FCB0
:1033C8008DF81400C0F307238DF81530C0F30740BB
:1033D8008DF81600059B224629463046FFF738FE31
:1033E80084F87800C0F3072384F87930C0F30740E5
:1033F80084F87A00E0E640222946304603F06CFF64
:103408000590C4F8840000283FF4DBAE4222294628
:10341800304603F061FF0590C0B284F83C000228F2
:103428007FF6CFAE43222946304603F055FF05907C
:10343800C4F8880029463046FFF7DCFC8DF81400F4
:10344800C0F307238DF81530C0F307408DF8160038
:10345800059B224629463046FFF7FAFD84F881008D
:10346800C0F3072384F88230C0F3074084F8830050
:10347800A7E630222946304603F02EFF0590E06289
:1034880000283FF4A3AE31222946304603F024FF3A
:103498000590C0B284F8370002287FF697AEE06A3C
:1034A80008F08AF8022845D029463046FFF7E6FC9E
:1034B8008DF80C00C0F307238DF80D30C0F30740DA
:1034C8008DF80E0032222946304603F005FF05909C
:1034D800C0B20090039B224629463046FFF778FD8C
:1034E80004909DF8133084F838309DF810209DF82A
:1034F80011109DF812000BF00EFB84F83400C0F395
:10350800072384F83530C0F3074084F836003322A7
:103518002946304603F0E0FE0590003818BF012028
:1035280084F839006A222946304603F0D5FE059012
:1035380060674BE64D222946304603F0CDFE0590E4
:10354800206329463046FFF777FC8DF81400C0F356
:1035580007238DF81530C0F307408DF81600059B3A
:10356800224629463046FFF773FD84F83400C0F33D
:10357800072384F83530C0F3074084F83600D1E7D4
:103588004A222946304603F0A7FE0590C4F8900069
:1035980000283FF420AE94F83D30022B7FF61BAE96
:1035A80051222946304603F097FE0590C3B284F8AD
:1035B8003D30022B7FF60FAE61222946304603F0DC
:1035C8008BFE0590C4F8940062222946304603F029
:1035D80083FE0590C4F8980063222946304603F01C
:1035E8007BFE0590C4F89C0029463046FFF768FC2E
:1035F8008DF81400C0F307238DF81530C0F3074089
:103608008DF81600059B224629463046FFF720FD17
:1036180084F88C00C0F3072384F88D30C0F307408A
:1036280084F88E00D7E570B582B005460E4614467C
:1036380010605160542203F04FFE0090C3B284F82A
:103648006630022B01D802B070BD224631462846AA
:10365800FFF753FBFC2807D894F8663003FB00F00B
:10366800C0F3072084F8660094F86630022BEAD984
:1036780031462846FFF7E0FB8DF80400C0F3072326
:103688008DF80530C0F307408DF80600019B2246EF
:1036980031462846FFF7DCFC84F83800C0F30723DE
:1036A80084F83930C0F3074084F83A00662231467E
:1036B800284603F011FE0090206467223146284610
:1036C80003F00AFE0090E0636E223146284603F0BC
:1036D80003FE009094F8683060F3020384F86830C1
:1036E8004D223146284603F0F7FD009060636522BD
:1036F8003146284603F0F0FD009084F86400224625
:1037080031462846FFF7E6FC9DE7F0B587B0054649
:103718000E46144610605160502203F0DDFD039000
:10372800C3B284F85C30022B01D807B0F0BD224642
:1037380031462846FFF7E1FAFC2807D894F85C30B0
:1037480003FB00F0C0F3072084F85C0094F85C30B9
:10375800022BEAD90023E3634FF480732364636484
:1037680005F1140738460AF0AAFC00EBD0704010A7
:10377800206538460AF0A8FC00EBD0704010606560
:1037880031462846FFF7BEFB8DF81400C0F3072327
:103798008DF81530C0F307408DF816004E223146DB
:1037A800284603F099FD0390C0B20090059B22467D
:1037B80031462846FFF70CFC04909DF8133084F836
:1037C8005B309DF810209DF811109DF812000BF049
:1037D800A2F984F85800C0F3072384F85930C0F3DD
:1037E800074084F85A006A223146284603F074FDDF
:1037F800039020662EB9224631462846FFF76AFC18
:1038080093E77A223146284603F066FD039094F840
:103818005D3060F3030384F85D30ECE770B582B087
:1038280005460E46144610605160522203F054FDBE
:103838000090C3B284F85030022B01D802B070BD9A
:10384800224631462846FFF758FAFC2807D894F84C
:10385800503003FB00F0C0F3072084F8500094F8C0
:103868005030022BEAD94B223146284603F034FD6A
:10387800009060640028E1D031462846FFF764FBD9
:103888008DF80400C0F307238DF80530C0F3074016
:103898008DF80600019B224631462846FFF7D8FBE3
:1038A80084F84000C0F3072384F84130C0F3074090
:1038B80084F8420064223146284603F00DFD00904A
:1038C800A064C8B969223146284603F005FD009076
:1038D800003818BF012094F8513060F3000384F8D1
:1038E8005130DBB260F3410384F85130224631464F
:1038F8002846FFF7EFFBA1E768223146284603F088
:10390800EBFC0090E064DDE770B582B005460E463A
:103918001446106051604C2203F0DEFC0090E06217
:1039280008B902B070BD53223146284603F0D4FCD2
:103938000090C0B284F846000228F2D922463146E7
:103948002846FFF7DAF9FC2807D894F8463003FB35
:1039580000F0C0F3072084F8460094F84630022BA4
:10396800DFD931462846FFF711FB8DF80400C0F374
:1039780007238DF80530C0F307408DF80600019B3A
:10398800224631462846FFF763FB84F82800C0F337
:10399800072384F82930C0F3074084F82A006022FE
:1039A8003146284603F098FC009020646F22314687
:1039B800284603F091FC0090003818BF012094F8C5
:1039C800473060F3000384F84730224631462846E2
:1039D800FFF780FBA5E770B582B005460E46144692
:1039E80010605160882203F077FC0190A0628A225F
:1039F8003146284603F070FC019084F83000E36AF1
:103A08000BB102B070BD78223146284603F064FC41
:103A18000190E062F5E7F0B583B004460D464A220E
:103A280003F05AFC0190074648BB4022294620462D
:103A380003F052FC06460190002850D194222946F2
:103A4800204603F049FC019010F0FF0F5BD10020E5
:103A58003E1804222946204603F03EFC0746019002
:103A680005222946204603F037FC0190B842B8BF2A
:103A78003846002800DD0644304603B0F0BD512228
:103A88002946204603F028FC0190C0B2022801D83C
:103A98000027CAE707EBD776761001366322294656
:103AA800204603F019FC019006446122294620466D
:103AB80003F012FC0746019062222946204603F0D3
:103AC8000BFC01900028B8BF4042002FB8BF7F42CE
:103AD800B842ACBF3618F61926EAE677A5E74222BF
:103AE8002946204603F0F8FB0190C0B20228A5D968
:103AF80043222946204603F0EFFB01900644B742D3
:103B0800B8BF37469AE791222946204603F0E4FBDE
:103B1800019000282EDD91222946204603F0DCFB87
:103B28000646019092222946204603F0D5FB0190D3
:103B3800002827DD92222946204603F0CDFB01907C
:103B480086422FDD91222946204603F0C5FB0190CD
:103B580000281FDD91222946204603F0BDFB019075
:103B6800064690222946204603F0B6FB0190013014
:103B780030446DE791222946204603F0ADFB0190C1
:103B88004642CFE792222946204603F0A5FB019042
:103B98004042D5E791222946204603F09DFB01903B
:103BA8004642DEE792222946204603F095FB019023
:103BB800002807DD92222946204603F08DFB01905C
:103BC8000646CEE792222946204603F085FB01905F
:103BD8004642C6E783680BB1D86A70470020704731
:103BE800A8B130B583B00446FFF7F4FF05460023BB
:103BF800019301AA1B21204600F0FFF8A3683BB1FE
:103C0800019ADA62019BAB420CD103B030BDFEE7EA
:103C1800019B002BF6D02046FEF755FFA368019ABA
:103C2800DA62EFE7204601F0D6F8EEE7836823B1C1
:103C380093F83300C0F381007047002070470000FC
:103C4800037E13F0040F1FD110B5044683682C3B84
:103C5800012B01D8012010BD4FF480410068FEF708
:103C68007BFB0028F7D0A368162B0FD0F3D3352B96
:103C7800F1D81A2BEFD31A3B054A22FA03F313F0B3
:103C8800010FE8D00020E6E7002070470020E2E7B7
:103C9800FF090F0B037E13F0080F01D000207047B7
:103CA80010B504464FF400110068FEF755FB78B1D3
:103CB800A368162B0DD00BD3352B09D81A2B07D395
:103CC8001A3B054A22FA03F313F0010F00D0002033
:103CD80010BD0020FCE700BFFF090F0B10B50C4614
:103CE80008B1006803E00B68186800E0006810B1CC
:103CF800C368002BFAD060B1C36863B10023E360E6
:103D0800C36821469847237E13F0010F05D101208F
:103D180010BD0120FCE70120FAE70020F8E72DE9B3
:103D2800F041044609F0A2FB30B1237E13F00205EE
:103D38005FD113F0010F5DD12768BE6806B1083660
:103D48000122214630460BF0CFF90546012851D112
:103D5800237E13F0020F4DD121460020FFF7BEFF4E
:103D68000546012846D1237E13F0020F42D10022D6
:103D7800214630460BF0B8F9054601283AD1237E92
:103D880013F0020F36D1206804F050FA064618B135
:103D98002046FFF755FF78B9012D2BD12046FFF7B4
:103DA80079FF38B3384604F0BBFA8046237E43F0E7
:103DB80004032376002606E026602046FFF7AFFFBF
:103DC8000546E9E70136464514D2012D12D1237E76
:103DD80013F0020F0ED13146384604F05BFA002882
:103DE800F0D020602046FFF79AFF05460128E9D069
:103DF80000E001252846BDE8F08130B589B040B320
:103E08000190029003910023049305929DF81C20D1
:103E180063F300028DF81C20D2B263F382028DF89E
:103E28001C20D2B263F341028DF81C20D2B263F396
:103E3800C3028DF81C2001AD28460BF047F928462F
:103E4800FFF76DFF044628460BF048F9204609B0F5
:103E580030BD0124FAE770B1F8B50C4615461E4688
:103E68000746FEF730FEB86833462A462146083032
:103E78000BF0CFF9F8BDFEE730B108B5806820B186
:103E880008300BF0E7F908BDFEE70020FBE730B18A
:103E980008B5806810B108300BF0E2F908BDFEE7FC
:103EA80030B108B5806820B108300BF0EBF908BDD7
:103EB800FEE70020FBE748B1F8B50D460646FFF7D8
:103EC800DBFF0746A8B1441E002701E0FEE7013CDE
:103ED800002C0EDB21463046FFF7D9FF0028F6D02C
:103EE8000368AB42F3D121463046FFF7D9FF0137CB
:103EF800EDE73846F8BD08B50BF0F0F908BD00004D
:103F08008268192A08D808B5054BD34013F0010F69
:103F180004D00BF0E9F908BD002070470020FAE74B
:103F28001EDF3B0308B58368A3F11C02022A05D9EA
:103F3800202B03D01F2B01D0212B02D10BF0D4F959
:103F480008BD0020FCE708B58368112B01D00020CC
:103F580008BD0BF0C9F908B10068F9E70020F7E7D8
:103F680008B58368122B01D0002008BD0BF0BCF9FE
:103F780008B10068F9E70020F7E783681B2B00D039
:103F8800704710B50C460BF0AFF903689C42B8BFF8
:103F98001C46046010BD08B58368282B01D000209A
:103FA80008BD0BF0A1F908B10088F9E70020F7E790
:103FB80000E0406850B18368002BFAD093F83330A2
:103FC80003F00C03082BF4D10120704770472DE94A
:103FD800F04182B005460E461B2203F07DF90446E7
:103FE8000190804638223146284603F075F9074685
:103FF80001903C223146284603F06EF9019010F0FA
:10400800080F01D004EB0708404602B0BDE8F08174
:104018002DE9F04182B005460E461A2203F05CF9FC
:1040280004460190804638223146284603F054F968
:10403800074601903C223146284603F04DF901908D
:1040480010F0040F01D004EB0708404602B0BDE8A9
:10405800F0812DE9F04182B005460E46182203F0A2
:104068003BF904460190804638223146284603F041
:1040780033F9074601903C223146284603F02CF9D3
:10408800019010F0020F01D004EB0708404602B07F
:10409800BDE8F081F0B583B006460F46192203F05B
:1040A8001BF90446019038223946304603F014F9CA
:1040B800054601903C223946304603F00DF901903F
:1040C80000F0010005FB004003B0F0BD2DE9F04F02
:1040D8008BB00446059190461D469C22002103F0B2
:1040E800FBF806460790834698220021204603F0F5
:1040F800F3F80746079081460128B8BF4FF0010939
:1041080099220021204603F0E7F80790824601280B
:10411800B8BF4FF0010A16B9B7F5807F3DD09A2293
:104128000021204603F0D8F8079008909B22002130
:10413800204603F0D1F807900990089F07F0C04285
:10414800B2F1005F2DD0099F07F0C042B2F1005FC5
:1041580044D06369089A13440893A369099A1344DD
:10416800099355B1C6F1000B4FF6FF7309EB030233
:1041780092FBF9F9534493FBFAFA85F0010502958D
:1041880008AB0193CDF800A04B465A464146059826
:1041980009F09EFE0BB0BDE8F08FB0F5807FBED170
:1041A800F8E727F0C0476FF060439F42CBDAB7F1DA
:1041B800805F05DBC7F17F6707F57F2707F6FF7785
:1041C80004F1140009F07BFF07FB00F0124B83FB9E
:1041D8000023C017C0EB63100890B4E727F0C0476E
:1041E8006FF060439F42B4DAB7F1805F05DBC7F137
:1041F8007F6707F57F2707F6FF7704F1140009F0BA
:1042080063FF07FB00F0044B83FB0023C017C0EBE0
:10421800631009909DE700BF1F85EB5190B130B541
:1042280083B00C460546002301AA102103F0C2F80A
:10423800012808D020B900222146284603F065FF4E
:1042480003B030BDFEE7019BA342F4D1F2E790B181
:1042580030B583B00C460546002301AA112103F0AE
:10426800A9F8012808D020B900222146284603F0E1
:1042780056FF03B030BDFEE7019BA342F4D1F2E73D
:1042880048B138B514460546FFF7C8FF2146284609
:10429800FFF7DDFF38BDFEE790B130B583B00C46BF
:1042A8000546002301AA012103F084F8012808D05B
:1042B80020B900222146284603F009FF03B030BD8B
:1042C800FEE7019BA342F4D1F2E790B130B583B089
:1042D8000C460546002301AA022103F06BF80128C9
:1042E80008D020B900222146284603F004FF03B075
:1042F80030BDFEE7019BA342F4D1F2E748B138B5DF
:1043080014460546FFF7C8FF21462846FFF7DDFF9C
:1043180038BDFEE730B583B004460C49FEF78CF88B
:1043280018B10025284603B030BD0546204603F0E5
:104338007DFF0028F6D08422002102F0CDFF0190F5
:1043480080B20028EED00125ECE700BF010006008E
:1043580008B590F82A2042F0010280F82A2003F0DC
:1043680069FF90F82A2042F0040280F82A2003F01E
:104378006FFF0022392105F070FE08BD48B110B565
:104388000446002289B203F0FCFE2046FFF7E0FF56
:1043980010BDFEE770B5044615461E46002203F020
:1043A800C8FE324629462046FFF76AFF70BD40B175
:1043B80042690A6082694A60C2698A60036ACB609E
:1043C8007047FEE788B138B5044603F02FFF05466D
:1043D80060B164694369E41A01F0D6FC0444002121
:1043E8002846FFF715FE201A38BDFEE76069FBE78F
:1043F80088B138B5044603F019FF054660B1A469D1
:104408008369E41A01F0C7FC044400212846FFF739
:1044180020FE201A38BDFEE7A069FBE700B583B08F
:104428001122002102F058FF019003B000BD20B115
:1044380008B5143009F043FE08BDFEE720B108B501
:10444800143009F041FE08BDFEE748B138B505460D
:10445800FFF7CEFF04462846FFF7F0FF204438BD9B
:10446800FEE780B170B504460021FFF7D1FD06468E
:1044780000212046FFF7ABFD05462046FFF7D7FF92
:10448800801B401B70BDFEE780B170B5044600215B
:10449800FFF7DFFD064600212046FFF7FBFD054636
:1044A8002046FFF7CBFF801B401B70BDFEE708B31B
:1044B80038B50C460546FFF77AFF00212846FFF776
:1044C800A7FD23680344236000212846FFF77FFDEA
:1044D800A3681B1AA36000212846FFF7BAFD63688A
:1044E8000344636000212846FFF7D4FDE3681B1AE4
:1044F800E36038BDFEE7000000B583B000230093F9
:10450800044B01936A463521FFF777FC009803B006
:1045180000BD00BF010000E02DE9F04F85B0044662
:1045280001F032FC0190A3680BB100221A6200214D
:104538002046FFF74CFD804600212046FFF768FD26
:1045480081462046FFF7D8FF00EB09054544794B23
:104558000393012203A9204609F066F878B1A268FE
:1045680012B1019B5B421362039B724A934202D0D1
:104578009D42B8BF1D46284605B0BDE8F08F2046CD
:1045880003F0CEFE824681220021204602F0A4FEDE
:104598000290C0B201285ED0002694E012220021C9
:1045A800384602F099FE0290C0B208280BD840F2B3
:1045B8004913C34013F0010F05D0E3697A699B1AC8
:1045C80003F1010B34E010220021384602F084FE8A
:1045D800029010B1DFF85CB12AE007F1140009F08D
:1045E8006EFD00EB080B22220021384602F074FE13
:1045F800029083441CE00393013656452DD2A368EC
:104608001B6853F826704C493846FDF715FF0028FB
:10461800F2D197F82B3013F0200FEDD13846FFF781
:1046280079FE0028BAD0E3697A699B1A03F1010B75
:1046380022220021384602F04FFE02905844039B84
:104648009842D8DB22220021384602F045FE02902B
:104658000BEB0003CFE70026CFE7039B354A9342D5
:104668003FF47DAF4B44039379E71222002138468B
:1046780002F032FE0290C0B207280AD89323C34042
:1046880013F0010F05D0FB6962699B1A03F1010B56
:1046980034E010220021384602F01EFE029010B1CC
:1046A800DFF890B02AE007F1140009F008FD00EBEC
:1046B800090B23220021384602F00EFE02908344A3
:1046C8001CE00393013656452BD2A3681B6853F8A8
:1046D800267019493846FDF7AFFE0028F2D197F841
:1046E8002B3013F0200FEDD13846FFF713FE0028CA
:1046F800BBD0FB6962699B1A03F1010B23220021DD
:10470800384602F0E9FD02905844039B9842D8DBF2
:1047180023220021384602F0DFFD02900BEB000354
:10472800CFE7039B034A93423FF419AF43440393F3
:1047380015E700BF010000E00100040070B582B079
:1047480005461446012904D0082902D0092900D0B9
:10475800FEE70A460021284602F0BEFD01906FF0F0
:104768004042904206D000F0C042B2F1005F10D043
:1047780002B070BD24B12368002B05DB2068F7E781
:104788002846FFF7C9FEF3E72846FFF7C5FE206075
:10479800F4E720F0C0446FF060439C42E8DA284612
:1047A80003F044FDFFF75DFE0346B4F1805F05DBCF
:1047B800C4F17F6404F57F2404F6FF7404FB03F35B
:1047C8000B4A82FB0312DC17C4EB6214222200217D
:1047D800284602F081FD0646009023220021284643
:1047E80002F07AFD034600903344E01AC0E700BFA8
:1047F8001F85EB5108B50022FFF7A0FF08BD000098
:1048080000B583B0054B0093002301936A46352118
:10481800FFF7F3FA019803B000BD00BF010000E004
:104828002DE9F04F85B0044601F0B5FA0190A36870
:104838000BB100225A6200212046FFF70AFC82468B
:1048480000212046FFF726FC81462046FFF7D8FFC7
:1048580000EB0A074F443E4B0393002203A920466E
:1048680008F0E2FE78B1A26812B1019B5B42536284
:10487800039B374A934202D09F42B8BF1F4638462F
:1048880005B0BDE8F08F204603F04AFD83460025B9
:1048980028E012220021304602F01EFD0290C0B22C
:1048A800032805D8336AA2699B1A03F1010834E08A
:1048B80011220021304602F00FFD029010B1DFF8FE
:1048C80090802AE006F1140009F0FEFB00EB0A08CC
:1048D80020220021304602F0FFFC029080441CE0B8
:1048E800039301355D452BD2A3681B6853F82560F7
:1048F80018493046FDF7A0FD0028F2D196F82B3074
:1049080013F0100FEDD13046FFF704FD0028C0D09A
:10491800336AA2699B1A03F101082122002130465B
:1049280002F0DAFC02904044039B9842D8DB212233
:104938000021304602F0D0FC029008EB0003CFE7DC
:10494800039B034A93428ED04B4403938BE700BFEB
:10495800010000E00100040070B582B0054614466D
:10496800022904D00A2902D00B2900D0FEE70A4602
:104978000021284602F0B0FC01906FF040429042BE
:1049880006D000F0C042B2F1005F10D002B070BD96
:1049980024B12368002B05DB2068F7E72846FFF7DA
:1049A8003FFFF3E72846FFF73BFF2060F4E720F0DE
:1049B800C0446FF060439C42E8DA284603F036FCB6
:1049C800FFF762FD0346B4F1805F05DBC4F17F6445
:1049D80004F57F2404F6FF7404FB03F30B4A82FBFF
:1049E8000312DC17C4EB621420220021284602F0CF
:1049F80073FC0646009021220021284602F06CFC38
:104A0800034600903344E01AC0E700BF1F85EB510E
:104A180008B50022FFF7A0FF08BD30B583B00546F2
:104A28000122002102F058FC0446019002220021D4
:104A3800284602F051FC01906FF040439C4201D09F
:104A4800984205D12846FFF783FC012003B030BD0A
:104A58000020FBE72DE9F04780468A4691461F462D
:104A680003F05EFC0646002400E00134B4421FD285
:104A7800D8F808301D6855F8245037B14FF4802114
:104A88002846FDF769FC0028EFD16B6953446B6138
:104A9800AB694B44AB61EB695344EB612B6A4B4404
:104AA8002B6200234A4651462846FFF7D3FFDCE72E
:104AB800BDE8F08700283FD02DE9F0470F4616469D
:104AC8001C468046FFF7B2F8054604F0010904F0D9
:104AD8000203002B14BF4FF0010A4FF0000A16D052
:104AE800B9F1000F03D1022D0AD0BDE8F087404686
:104AF80003F09CFB234632463946FFF7DBFFF2E71B
:104B08005346324639464046FFF7E0FAEDE70228B9
:104B18000BD0B9F1000FE8D0404603F087FB2346DD
:104B280032463946FFF7C6FFDFE753463246394675
:104B38004046FFF7CBFAECE7704708B51346012269
:104B4800FFF7B8FF08BD70B588B00C461346096872
:104B58000091666801960291E16801310391A568A8
:104B68000135049505960695079104226946FFF7D5
:104B7800A1FF069B049D1946AB42A8BF2946029A8D
:104B8800009816468242A8BF0646B142A8BF3146E1
:104B98002160AB42B8BF2B468242B8BF024693425F
:104BA800B8BF1346A360079B059D1946AB42A8BF33
:104BB8002946039A019816468242A8BF0646B14282
:104BC800A8BF31466160AB42B8BF2B468242B8BF2E
:104BD80002469342B8BF1346E36008B070BD2DE9A2
:104BE800F04188B004460D460121FDF7B5FB20B120
:104BF8000026304608B0BDE8F0810746204603F09D
:104C080019FB064603F024FB804605F09EF8864211
:104C180015D0404605F0A5F8864210D0404605F06C
:104C2800C4F886420BD0404605F0A7F8864206D065
:104C3800404605F0AEF8864201D03E46D9E7204608
:104C4800FEF7C8FF014663690493A3690593E36906
:104C58000693236A079304AE0246304609F0C4F867
:104C680032462946284609F0D9F806460028C0D019
:104C78002046FFF79DF920B9204603F0D7FA0446ED
:104C880013E0012229462046FFF75DFFF4E720469E
:104C9800FFF78EF928BB6A462946284609F0BEF870
:104CA80028B3204603F0C2FA0446002CA1D0012103
:104CB8002046FDF751FBD0B904F114030FCB8DE862
:104CC8000F004FF480112046FDF746FB0028DED088
:104CD8002046FEF77FFF01460246684609F084F841
:104CE800D5E7012269462046FFF72DFFD3E73E4668
:104CF8007FE738B504460D46FFF771FFA0B1A368FA
:104D08002BB193F8333003F00C03082B06D0204660
:104D180003F09EFA294603F0CEFF38BD052211465E
:104D2800284609F061F8F2E70020F6E7B0B1F0B5DF
:104D380087B00C46054691B192B113680293536847
:104D4800039393680493D368059302A92046FFF759
:104D5800D0FF064628B9304607B0F0BDFEE7FEE7AB
:104D6800FEE7009402AB01936A461049D5F8C802E1
:104D780003F002FDD5F8D00218B16A460B4903F0DA
:104D8800FBFC0A4C6A462146D5F8C00203F0F4FC45
:104D98006A462146D5F8C40203F0EEFC6A4621466D
:104DA800D5F8CC0203F0E8FCD5E700BF355A000877
:104DB80050B170B50C46064603F04AFA054605F0B0
:104DC80082F910B9002070BDFEE722463146284618
:104DD800FFF7ACFFF7E758B170B584B0044603F0AD
:104DE80037FA054605F06FF918B9002004B070BD10
:104DF800FEE72046FEF7EEFE61690091A269019286
:104E0800E3690293266A0396091A0091121A01921D
:104E180003440293304403906A4621462846FFF72C
:104E280085FFE3E7002877D02DE9F0438BB00446EF
:104E380090F82B3003F00C030C2B00F0418103F0A9
:104E4800F5F90546002800F03D8194F82B3013F061
:104E5800080F62D02046FFF7EAFA064694F82B308E
:104E680013F0040F00F0BA802046FFF7E7FA8046F7
:104E78002046FFF7DCFAB04200F011812046FFF728
:104E8800AAFF06AF39462046FFF791FA0DF1080947
:104E980049462846FFF70BFB00224946384609F0E9
:104EA8000EFB0746002800F00281A3694344013B3A
:104EB800236281220021204602F00EFA0190C3B23B
:104EC800012B00F0F88063693344013BE36106AAD3
:104ED80032212046FEF791FF22462B212846FEF775
:104EE8008CFF2046FFF777FF94F82A3043F002033F
:104EF80084F82A30002202A904F1140009F0DFFA2C
:104F080007B910B1284601F00FFF2046FEF768FEEA
:104F180001200BB0BDE8F083FEE74FF0FF330093AC
:104F28006A4601212046FFF709FC06466A46082121
:104F38002046FFF703FC07466A4609212046FFF78B
:104F4800FDFB33468642A8BF03461E46BB42B8BF98
:104F58003E46BB4215DDB0421BD00122002120464F
:104F680002F0BAF90346019003F0C042B2F1005FC3
:104F780017D0002294F82B3062F3451384F82B30B5
:104F88006CE708220021204602F0A6F903460190AA
:104F9800EAE709220021204602F09EF90346019023
:104FA800E2E723F0C0436FF06042934214DA95F8C9
:104FB8002B3013F0080F01D00022DBE7012200217B
:104FC800284602F089F901906FF04042904201D0E2
:104FD8000022CFE70122CDE70022CBE74FF0FF33D5
:104FE80000936A4602212046FFF7B6FC07466A4648
:104FF8000A212046FFF7B0FC81466A460B2120466D
:10500800FFF7AAFC3B468742A8BF034698464B4594
:10501800B8BFC8464B4515DD40451BD002220021CC
:10502800204602F059F90346019003F0C042B2F15C
:10503800005F17D0002294F82B3062F3041384F831
:105048002B3015E70A220021204602F045F90346D5
:105058000190EAE70B220021204602F03DF90346C1
:105068000190E2E723F0C0436FF06042934214DA04
:1050780095F82B3013F0040F01D00022DBE7022251
:105088000021284602F028F901906FF04042904232
:1050980001D00022CFE70122CDE70022CBE720464E
:1050A800FFF7CCF940457FF4E9AE002031E7284608
:1050B80001F03AFEF9E6E3699B1B0133636106E7F9
:1050C800002026E7002024E72DE9F0438BB00446B2
:1050D8000D4616464768A7B14FF48021FDF73CF905
:1050E80078B37B6903EB0509BB691E440021384688
:1050F800FEF78EFF09EB000500213846FEF7A9FFF1
:1051080006446369ED1A0895A369F61A09960DB95C
:10511800002E51D02046FFF75EFE04A92046FFF777
:1051280046F9F7B169463846FFF7C1F900226946E2
:1051380004A809F0C4F98046A8B9384601F0F4FD7E
:1051480011E0D7F81490384600F01EFEA9EB0009CC
:10515800A944BD69384600F01EFEA5EB0008464488
:10516800C4E74FF0000863692B446361A3693344C3
:10517800A361E3692B44E361236A33442362002378
:10518800324629462046FFF765FC27B122462B21E7
:105198003846FEF732FE2046FFF71DFE67B10022B3
:1051A800694604F1140009F08AF9B8F1000F00D13A
:1051B80010B1384601F0B8FD0BB0BDE8F08300002F
:1051C8002DE9F04F87B00446FFF7A4F810B107B0F7
:1051D800BDE8F08F204603F029F807461022002189
:1051E800204602F079F80646059000901122002129
:1051F800204602F071F8054605908146002F5CD0E4
:105208003846FFF72EF903903846FFF73DF98346F5
:1052180006F0C043B3F1005F55D005F0C043B3F1C9
:10522800005F77D00C220021204602F055F8064690
:10523800059082460D220021204602F04DF80546D1
:10524800059001902046FFF7F2F802902046FFF7FC
:10525800F5F8804606F0C043B3F1005F00F08180A6
:1052680005F0C043B3F1005F00F09580009B534404
:105278009A46019B994412220021204602F02CF8FC
:10528800059010F0FF0500D1012581220021384644
:1052980002F022F80590C0B2012800F09680023D85
:1052A800072D00F2D780DFE815F0A700C000DB006B
:1052B800DF00FB00CD000B012001024631462046ED
:1052C800FFF702FF83E726F0C0466FF060439E4277
:1052D800A3DA01220021384601F0FEFF05906FF0A5
:1052E8004043984213D0B6F1805F05DBC6F17F6674
:1052F80006F57F2606F6FF76039B03FB06F68B4B27
:1053080083FB0623F617C6EB6313009385E7002398
:10531800009382E725F0C0456FF060439D4281DA33
:1053280002220021384601F0D7FF05906FF0404374
:10533800984209D0B5F1805F08DBC5F17F6505F5B6
:105348007F2505F6FF7503E04FF0000929F0C045F9
:105358000BFB05F5754B83FB0539ED17C5EB691993
:1053680060E726F0C0466FF060439E42BFF678AF14
:10537800B6F1805F05DBC6F17F6606F57F2606F687
:10538800FF76029B03FB06F6684B83FB063AF6178B
:10539800C6EB6A1A64E725F0C0456FF060439D428A
:1053A800BFF664AFB5F1805F05DBC5F17F6505F534
:1053B8007F2505F6FF7508FB05F55C4B83FB052388
:1053C800ED17C5EB6313019350E76B1E072B3FF6F0
:1053D80066AF01A252F823F033540008A752000820
:1053E8005D540008A9540008A75200086954000831
:1053F800C95400084D54000801280AD0039B03EB48
:10540800D372029B03EBD3735B10C3EB62039A4422
:1054180020E0039B03EBD372029B03EBD3735B1077
:10542800C3EB6203A3EB0A0A14E0012804D0039B30
:10543800029A9B1A9A440DE0039B029A9B1AA3EBCB
:105448000A0A07E00BEBDB7B08EBD8735B10C3EBB6
:105458006B0399444A4651462046FFF735FEB6E6A7
:10546800ABEB0808C144F5E701280DD0039B03EB1B
:10547800D372029B03EBD3735B10C3EB62039A44B2
:10548800ABEB0808C144E5E7039B03EBD372029B2F
:1054980003EBD3735B10C3EB6203A3EB0A0AEFE7DA
:1054A800012807D0039B029A9B1A9A44ABEB080881
:1054B800C144CFE7039B029A9B1AA3EB0A0AF5E7BC
:1054C80001280CD0039B029A9B1A9A440BEBDB7BB6
:1054D80008EBD8735B10C3EB6B039944BAE7039BE3
:1054E800029A9B1AA3EB0A0AF0E7012812D0039B41
:1054F80003EBD372029B03EBD3735B10C3EB620322
:105508009A440BEBDB7B08EBD8735B10C3EB6B03A4
:1055180099449FE7039B03EBD372029B03EBD3737E
:105528005B10C3EB6203A3EB0A0AEAE71F85EB51A2
:1055380070B5044602F0F4FE06460025B54207D2CF
:10554800A3681B6853F82500FFF7F2FF0135F5E75C
:1055580094F82A3013F0010F05D194F82A3013F08B
:10556800020F12D170BD94F82A3023F0010384F899
:105578002A302046FFF756FC2046FFF721FE002E72
:10558800EBD0204608F07AF8E7E794F82A3023F0C1
:10559800020384F82A300021204601F0E9FBE1E704
:1055A800134B93F8643003B1704710B5104B0122C8
:1055B80083F8642002F03EFE044608E094F82A309E
:1055C80023F0040384F82A302046FFF7B1FF94F84B
:1055D8002A3013F0040FF1D1204602F039FE0022E0
:1055E800422104F03AFD024B002283F8642010BDEA
:1055F8005C1B0020002841D02DE9F04F85B00C46F7
:1056080090461E460746FFF7CBFFC4B3384602F064
:105618000DFE8246002839D00021FEF7F9FC0190E2
:1056280000215046FEF715FD834600212046FEF76F
:10563800EFFC814600212046FEF70BFD0546B8F138
:10564800000F24D008F1FF38B8F1140F65D8DFE84F
:1056580018F0270086009600A100AC00C600DB0009
:10566800EB00670005010C011F012D013401470102
:1056780055015C016F017D0183019501FEE7384604
:1056880002F0D4FD04460028C0D1FEE7FEE78122DF
:105698000021204601F020FE0390C3B2012B6ED0FA
:1056A80006F0C043B3F1005F00F075810E9B03F074
:1056B800C043B3F1005F00F08B8181220021504686
:1056C80001F00AFE0390C0B2012800F0A0816369CE
:1056D8003344DAF814209E1A504600F0BBFB064407
:1056E800019BF61A4E44A4690E9B1C44DAF8183044
:1056F800E41A504600F056FB2318A3EB0B031D4495
:1057080000220121384602F014FD2A463146384667
:10571800FEF7B6FD05B0BDE8F08F0025A946BFE746
:105728002046FEF79EFE00EBD0704FEA6008384630
:10573800FEF77DFE00EBD070A8EB6008C144204660
:10574800FEF7A2FE00EBD0704FEA60083846FEF77D
:1057580075FE00EBD070A8EB60084544A0E7204632
:10576800FEF77FFE00EBD0704FEA60083846FEF780
:105778005EFE00EBD070A8EB6008C14490E72046BD
:10578800FEF76FFE80463846FEF751FEA8EB00088C
:10579800C14485E72046FEF777FE80463846FEF787
:1057A8004DFEA8EB000845447AE72046FEF759FE6F
:1057B80000EBD0704FEA60083846FEF738FE00EB81
:1057C800D070A8EB6008C1442046FEF75DFE804615
:1057D8003846FEF733FEA8EB0008454460E720464C
:1057E800FEF73FFE80463846FEF721FEA8EB00088C
:1057F800C1442046FEF748FE80463846FEF71EFEA6
:10580800A8EB000845444BE72046FEF73DFE00EBB9
:10581800D0704FEA60083846FEF710FE00EBD070F3
:10582800A8EB600845443BE72046FEF71AFE804691
:105838003846FEF7FCFDA8EB0008C1442046FEF7F9
:1058480023FE00EBD0704FEA60083846FEF7F6FDFD
:1058580000EBD070A8EB6008454421E73846FEF716
:10586800EDFD45424FF000091AE72046FEF7DFFD3F
:1058780000EBD0704FEA60093846FEF7D8FD00EB20
:10588800D070A9EB60093846FEF7D8FD454207E716
:105898002046FEF7CCFD81463846FEF7C8FDA9EB49
:1058A80000093846FEF7CAFD4542F9E62046FEF7EC
:1058B800C5FD05464FF00009F2E62046FEF7B7FDA4
:1058C80000EBD0704FEA60093846FEF7B0FD00EBF8
:1058D800D070A9EB60092046FEF7B0FD0546DFE66B
:1058E8002046FEF7A4FD81463846FEF7A0FDA9EB49
:1058F80000092046FEF7A2FD0546D1E63846FEF728
:1059080096FDC0F100090025CAE63846FEF78FFD6E
:10591800C0F100092046FEF791FD00EBD07045105C
:105928003846FEF78BFD00EBD070A5EB6005B7E6B7
:105938003846FEF77CFDC0F100092046FEF77EFDE3
:1059480005463846FEF77AFD2D1AA9E62046FEF7E9
:105958006EFD81460025A3E62046FEF768FD8146D8
:105968002046FEF76BFD00EBD07045103846FEF779
:1059780065FD00EBD070A5EB600591E62046FEF7CB
:1059880056FD81462046FEF759FD05463846FEF786
:1059980055FD2D1A84E626F0C0486FF060439845FF
:1059A800BFF684AE2046FEF742FD0346B8F1805F9D
:1059B80005DBC8F17F6808F57F2808F6FF7808FB43
:1059C80003F3194A82FB0312DB17C3EB62166DE679
:1059D8000E9B23F0C0486FF060439845BFF66DAE4C
:1059E8002046FEF72BFD0346B8F1805F05DBC8F1C2
:1059F8007F6808F57F2808F6FF7808FB03F30A4A52
:105A080082FB0312DB17C3EB62130E9355E663693F
:105A18003344DAF814209E1A504600F081FA0644FE
:105A2800019BF61A4E445EE61F85EB510B688342D4
:105A380078D02DE9F04786B004460D46FEF7CAF83F
:105A4800014663690293A3690393E3690493236A94
:105A58000593024602A808F0C7F92046FEF7A8FAFF
:105A680048B902A9686808F019FA824648B90120BD
:105A780006B0BDE8F087012202A92046FFF763F8C7
:105A8800EFE72046FCF724FDC743BFB200250FE02F
:105A980001AA88210AF074FD08B9002620E05646BC
:105AA8001EE001AA94210AF06BFDF0B11FE0013558
:105AB800638DC3F30513AB4232D9D4F80C804FEA97
:105AC800C50908EBC503DA7912F0040FEFD19B88FA
