:020000040800F2
:10000000000002207D1E0008010800080308000807
:10001000050800080708000809080008000000009B
:100020000000000000000000000000000B080008B5
:100030000D080008000000000F0800081108000863
:10004000CD1E0008CD1E0008CD1E0008CD1E0008E4
:10005000CD1E0008CD1E0008CD1E0008CD1E0008D4
:10006000CD1E0008CD1E0008CD1E0008CD1E0008C4
:10007000CD1E0008CD1E0008CD1E0008CD1E0008B4
:10008000CD1E0008CD1E0008CD1E0008CD1E0008A4
:10009000CD1E0008CD1E0008CD1E0008CD1E000894
:1000A000CD1E0008CD1E0008CD1E0008CD1E000884
:1000B000CD1E0008CD1E0008CD1E0008CD1E000874
:1000C000CD1E0008CD1E0008CD1E0008CD1E000864
:1000D000CD1E0008CD1E0008CD1E0008CD1E000854
:1000E000CD1E0008CD1E0008CD1E0008CD1E000844
:1000F000CD1E0008CD1E0008CD1E0008CD1E000834
:10010000CD1E0008CD1E0008CD1E0008CD1E000823
:10011000CD1E0008CD1E0008CD1E0008CD1E000813
:10012000CD1E0008CD1E0008CD1E0008CD1E000803
:10013000CD1E0008CD1E0008CD1E0008CD1E0008F3
:10014000CD1E0008CD1E0008CD1E0008CD1E0008E3
:10015000CD1E0008CD1E0008CD1E0008CD1E0008D3
:10016000CD1E0008CD1E0008CD1E0008CD1E0008C3
:10017000CD1E0008CD1E0008CD1E0008CD1E0008B3
:10018000CD1E0008CD1E0008CD1E0008CD1E0008A3
:10019000CD1E000800000000CD1E0008CD1E000886
:1001A000CD1E0008CD1E0008CD1E0008CD1E000883
:1001B000CD1E0008CD1E0008CD1E0008CD1E000873
:1001C000CD1E0008CD1E0008CD1E0008CD1E000863
:0801D000CD1E0008CD1E000841
:1001D80010B5054C237833B9044B13B10448AFF379
:1001E80000800123237010BD0C00002000000000D7
:1001F800281F000808B5034B1BB103490348AFF398
:10020800008008BD0000000010000020281F000822
:1002180053B94AB9002908BF00281CBF4FF0FF3165
:100228004FF0FF3000F088B9ADF1080C6DE904CE4D
:1002380000F006F8DDF804E0DDE9022304B07047B9
:100248002DE9F047089D0F4604468C46002B48D1FF
:100258008A42164661D9B2FA82F34BB1C3F1200241
:1002680001FA03FC20FA02F29E4042EA0C0C9C4080
:100278004FEA164EB7B2BCFBFEF1220C0EFB11CCB6
:1002880042EA0C4201FB07F0904209D9B21801F189
:10029800FF3C80F0EE80904240F2EB80023932441D
:1002A800121AA4B2B2FBFEF00EFB102244EA02447A
:1002B80000FB07F7A74209D9341900F1FF3280F093
:1002C800DA80A74240F2D7803444023840EA01403D
:1002D800E41B00211DB1DC400023C5E90043BDE853
:1002E800F0878B4206D90DB1C5E900010021084607
:1002F800BDE8F087B3FA83F1002948D1BB4202D3A5
:10030800824200F20781841A67EB030201209446B7
:10031800002DE4D0C5E9004CE1E7002A00F0928006
:10032800B2FA82F3002B40F0A8808A1A4FEA164EE0
:100338001FFA86FC0121200CB2FBFEF70EFB1722E8
:1003480040EA02420CFB07F0904207D9B21807F1C5
:10035800FF3802D2904200F2E2804746121AA4B255
:10036800B2FBFEF00EFB102244EA02440CFB00FC38
:10037800A44507D9341900F1FF3202D2A44500F28E
:10038800CB801046A4EB0C0440EA0740A2E7C1F179
:1003980020068B4022FA06FC4CEA030C07FA01F40B
:1003A80020FA06F3F7404FEA1C49234300FA01F804
:1003B8001FFA8CFEB7FBF9F01C0C09FB107744EA16
:1003C800074400FB0EF7A74202FA01F20AD91CEB18
:1003D800040400F1FF3A80F09B80A74240F2988025
:1003E80002386444E41B9FB2B4FBF9F309FB1344DD
:1003F80047EA044403FB0EFEA64509D91CEB040496
:1004080003F1FF3780F08280A6457FD9023B644420
:1004180043EA0040A4EB0E04A0FB02E7BC4273468B
:10042800B94663D360D05DB1B8EB030264EB09044D
:1004380004FA06F622FA01F31E43CC40C5E900642B
:1004480000214CE76208480842EAC1710B0C43EAF4
:1004580000438AB242EA0342B3FBF6F1E407B4462A
:100468003746B6461F23B0FBF6F0D21B41EA0041DF
:1004780061E7614614E7104628E7C3F1200120FA36
:1004880001F29E4027FA01F19F403A434FEA164E87
:100498001FFA86FCB1FBFEF70EFB1710110C41EAA0
:1004A800004107FB0CF8884504FA03F43AD971189F
:1004B80007F1FF3001D288451FD8A1EB0801B1FB35
:1004C800FEF808FB0CF70EFB181192B242EA014243
:1004D800BA422FD2B21808F1FF31C6D2BA42C4D2FA
:1004E800A8F102013244C0E7F0459CD2BEEB0203FA
:1004F80067EB0C070138B94695E7A6EB08084144B5
:10050800B81EB1FBFEF808FB0CF7DCE73B467FE7BB
:10051800504667E70846FBE63444023832E7023FB4
:1005280032441BE7A1EB08013846B1FBFEF808FB93
:100538000CF7C8E7414698E7704700BF72B6FEE778
:1005480030B595B006AD38220021284601F0BBFC35
:100558000024019402940394049405944FF40070C9
:1005680000F072F9022306934FF480730993402335
:100578000A930D94284600F07FFA68B90F23019377
:1005880001230293002103910491059101A800F031
:1005980029FD18B915B030BDFFF7D0FFFFF7CEFF22
:1005A80008B500F007FAFFF7CBFF00F00BF800F0F2
:1005B80031F800F0BBF800F0FDF84FF47A7000F065
:1005C8001BFAF8E700B589B003A9002303934B6031
:1005D8008B60CB600B6103F1804303F50433DA6C65
:1005E80042F00102DA64DA6C02F001020192019A27
:1005F800DA6C42F00202DA64DB6C03F00203029365
:10060800029B0123039305934FF0904000F0CCFF29
:1006180009B000BD08B50C480C4B03604FF4E1333A
:10062800436000238360C36003610C2242618361DD
:10063800C36103624362836201F077FB00B908BDBE
:10064800FFF77CFFFBE700BF2800002000380140CF
:1006580010B59CB0044600211791189119911A9170
:100668001B91542202A801F02EFC2268184B9A42D2
:1006780001D01CB010BD0123029302A800F0D8FDE0
:1006880010BB144B1A6E42F480421A661A6E02F4BA
:1006980080420092009ADA6C42F00102DA64DB6C64
:1006A80003F001030193019B4FF4C06317930223E6
:1006B8001893012219921A9307231B9317A94FF035
:1006C800904000F071FFD4E7FFF738FFD9E700BF8B
:1006D800003801400010024008B5012202214FF005
:1006E800904001F051F808BD08B5002202214FF0F2
:1006F800904001F049F808BD08B5012211460248AA
:1007080001F042F808BD00BF0004004808B5002207
:100718000121024801F038F808BD00BF0004004874
:1007280008B5FFF7E1FFFFF7F1FF08BDF0B589B0A5
:1007380003AD0024039404940594069407941B4B7A
:10074800DA6C42F00102DA64DA6C02F0010201921A
:10075800019ADA6C42F00202DA64DB6C03F00203FD
:100768000293029B224602214FF0904001F00CF8C0
:100778000F4F22460121384601F006F80223039361
:10078800012604960594069429464FF0904000F0FF
:100798000BFF03960496059406942946384600F004
:1007A80003FFFFF7BDFF09B0F0BD00BF0010024016
:1007B8000004004808B5FFF7B3FF4FF47A7000F063
:1007C8001BF9FFF789FF4FF47A7000F015F9FFF76E
:1007D8008BFF4FF47A7000F00FF9FFF78DFF4FF49D
:1007E8007A7000F009F9FFF791FF4FF47A7000F082
:1007F80003F9FFF795FF08BDFEE7FEE7FEE7FEE712
:10080800FEE770477047704708B500F0E3F808BD89
:1008180000B583B00B4B1A6E42F001021A661A6ECD
:1008280002F001020092009A9A6D42F080529A6595
:100838009B6D03F080530193019B00F08BF803B08C
:1008480000BD00BF00100240002836D13E4B1B6897
:1008580003F4C063B3F5806F08D03B4AD2F8803008
:1008680023F48073C2F8803000207047364AD2F8EB
:10087800803023F48073C2F88030136823F4C06397
:1008880043F400731360314B1B68322202FB03F3FD
:100898002F4AA2FB03239B0C013300E0013B2A4AA9
:1008A800526912F4806F01D0002BF7D1264B5B6997
:1008B80013F4806F44D100207047B0F5007F08D052
:1008C800214A136823F4C06343F480631360002053
:1008D80070471D4B1B6803F4C063B3F5806F08D0E5
:1008E800194AD2F8803043F48073C2F8803000206F
:1008F8007047154AD2F8803043F48073C2F88030CC
:10090800136823F4C06343F4007313600F4B1B6830
:10091800322202FB03F30E4AA2FB03239B0C013392
:1009280000E0013B084A526912F4806F01D0002BA5
:10093800F7D1054B5B6913F4806F03D10020704732
:100948000320704703207047007000400800002013
:1009580083DE1B43024A936843F4804393607047E5
:1009680000700040104B1B680BB90120704710B590
:1009780004460E4A10684FF47A72B2FBF3F3B0FBE8
:10098800F3F001F059FA68B90F2C01D901200AE0F7
:10099800002221464FF0FF3001F03EFA044B1C6064
:1009A800002000E0012010BD000000200800002009
:1009B8000400002010B5032001F01CFA0F20FFF7F7
:1009C800D1FF10B10124204610BD0446FFF720FFD7
:1009D800F9E70000034A1368034909680B441360E8
:1009E800704700BFB800002000000020014B1868C5
:1009F800704700BFB800002038B50446FFF7F6FF7F
:100A08000546B4F1FF3F02D0044B1B681C44FFF7B6
:100A1800EDFF401BA042FAD338BD00BF0000002004
:100A2800124BDA6802F00302DB68C3F303130133E5
:100A3800032A11D00E48B0FBF3F00C4BDB68C3F36C
:100A4800062303FB00F0094BDB68C3F34163013362
:100A58005B00B0FBF3F070470648B0FBF3F0034BC4
:100A6800DB68C3F3062303FB00F0ECE70010024049
:100A78000024F40000127A00002800F04F8270B5BC
:100A880082B00446036813F0010F37D0A44A936874
:100A980003F00C03D26802F003020C2B23D0082BBE
:100AA80023D06368B3F5803F4ED0B3F5A02F51D063
:100AB8009B4B1A6822F480321A601A6822F480224A
:100AC8001A606368002B52D0FFF790FF0546944BDD
:100AD8001B6813F4003F11D1FFF788FF401B6428FF
:100AE800F5D9032023E2032AD9D18D4B1B6813F4CF
:100AF800003F03D06368002B00F01282236813F0D4
:100B0800020F5DD0864A936803F00C03D26802F0A6
:100B180003020C2B3AD0042B3AD0E368002B75D093
:100B28007F4A136843F480731360FFF75FFF05463D
:100B38007B4B1B6813F4806F5FD1FFF757FF401B97
:100B48000228F5D90320F2E1754A136843F480338B
:100B58001360B6E703F18043A3F53C331A6842F407
:100B680080221A601A6842F480321A60A9E7FFF7F7
:100B78003DFF05466A4B1B6813F4003FBED0FFF7E4
:100B880035FF401B6428F5D90320D0E1022AC2D1E1
:100B9800634B1B6813F4806F03D0E368002B00F0ED
:100BA800C1815F4A536823F0FE43216943EA016328
:100BB80053605C4B1868FFF7D5FE002840F0B481FD
:100BC800236813F0080F4CD063699BB3544AD2F8DA
:100BD800943043F00103C2F89430FFF707FF05464D
:100BE8004F4BD3F8943013F0020F3AD1FFF7FEFEC3
:100BF800401B0228F4D9032099E1494A536823F09D
:100C0800FE43216943EA01635360D9E7444A136804
:100C180023F480731360FFF7E9FE0546404B1B6819
:100C280013F4806FCCD0FFF7E1FE401B0228F5D902
:100C380003207CE13A4AD2F8943023F00103C2F849
:100C48009430FFF7D3FE0546354BD3F8943013F0B4
:100C5800020F06D0FFF7CAFE401B0228F4D9032072
:100C680065E1236813F0040F00F081802C4B9B6D25
:100C780013F0805F36D12A4B9A6D42F080529A6504
:100C88009B6D03F080530193019B0125264B1B6844
:100C980013F4807F28D0A368012B39D0052B45D0C9
:100CA8001F4BD3F8902022F00102C3F89020D3F80C
:100CB800902022F00402C3F89020A368002B43D0B0
:100CC800FFF794FE0646164BD3F8903013F0020F48
:100CD8004CD1FFF78BFE801B41F288339842F2D942
:100CE800032024E10025D1E70F4A136843F48073F9
:100CF8001360FFF77BFE06460B4B1B6813F4807FDF
:100D0800C9D1FFF773FE801B0228F5D903200EE135
:100D1800034AD2F8903043F00103C2F89030CCE790
:100D2800001002400400002000700040884BD3F8F7
:100D3800902042F00402C3F89020D3F8902042F0AB
:100D48000102C3F89020B8E7FFF750FE0646804B33
:100D5800D3F8903013F0020F08D0FFF747FE801B3E
:100D680041F288339842F2D90320E0E0E5B92368DC
:100D780013F0200F35D0A369E3B1754AD2F8983043
:100D880043F00103C2F89830FFF730FE0546704B78
:100D9800D3F8983013F0020F23D1FFF727FE401B3A
:100DA8000228F4D90320C2E0694A936D23F08053E6
:100DB8009365DCE7664AD2F8983023F00103C2F85D
:100DC8009830FFF713FE0546614BD3F8983013F0BF
:100DD800020F06D0FFF70AFE401B0228F4D90320B1
:100DE800A5E0E369002B00F0A180594A926802F05F
:100DF8000C020C2A64D0022B13D0554A136823F036
:100E080080731360FFF7F2FD0446514B1B6813F023
:100E1800007F4ED0FFF7EAFD001B0228F5D903201A
:100E280085E04B4A136823F080731360FFF7DEFDFB
:100E38000546474B1B6813F0007F06D0FFF7D6FD29
:100E4800401B0228F5D9032071E0414AD368414983
:100E58001940236A606A013843EA0013A06A43EA2A
:100E68000023206B4008013843EA4053606B400878
:100E7800013843EA4063E06A43EAC0631943D1603A
:100E8800136843F080731360D36843F08073D360B2
:100E9800FFF7ACFD04462E4B1B6813F0007F06D10C
:100EA800FFF7A4FD001B0228F5D903203FE000202E
:100EB8003DE0274AD168284B0B40D360002036E03C
:100EC800012B36D0224BDB6803F00301226A9142E2
:100ED80031D103F0F002616A0139B2EB011F2CD164
:100EE80003F4FE42A16AB2EB012F28D103F0784245
:100EF800E16AB2EBC16F24D103F4C001226B52083E
:100F0800013AB1EB425F1ED103F0C063626B520835
:100F1800013AB3EB426F18D1002008E00120704776
:100F2800012004E0012002E0012000E0002002B0DE
:100F380070BD0120FBE70120F9E70120F7E7012058
:100F4800F5E70120F3E70120F1E70120EFE700BF13
:100F5800001002400C809F01FCFFEEFE1E4B9B68B8
:100F680003F00C03042B33D01B4B9B6803F00C03DA
:100F7800082B2FD0184B9B6803F00C030C2B01D0C7
:100F880000207047144BDA6802F00302DB68C3F3F1
:100F980003130133032A11D01048B0FBF3F00E4BB2
:100FA800DB68C3F3062303FB00F00B4BDB68C3F3DA
:100FB800416301335B00B0FBF3F070470848B0FBB6
:100FC800F3F0054BDB68C3F3062303FB00F0ECE703
:100FD8000248704702487047001002400024F4009D
:100FE80000127A00002800F0E680F8B50C460546A5
:100FF800744B1B6803F00F038B420BD2714A1368C2
:1010080023F00F030B431360136803F00F038B42A5
:1010180040F0D3802E6816F001065FD06B68032B72
:101028002FD0022B4DD0684B1B6813F4806F00F053
:10103800C680FFF793FF654B98424DD9624A936883
:1010480023F0F00343F08003936080265E4A9368A0
:1010580023F0030369680B439360FFF7C7FC074657
:10106800594B9B6803F00C036A68B3EB820F35D0C9
:10107800FFF7BCFCC01B41F288339842F0D903202B
:1010880078E0514B1B6813F0007F01D1012071E01B
:10109800FFF7C6FC4D4B98421AD94B4B9B6813F08F
:1010A800F00F05D02E6816F00206CFD0AB688BB9CA
:1010B800454A936823F0F00343F080039360802649
:1010C800C4E7414B1B6813F4003FB2D1012051E043
:1010D8000026BBE70026B9E70026B7E72B6813F020
:1010E800020F48D013F0040F04D0374A936843F432
:1010F800E06393602B6813F0080F06D0324A9368B8
:1011080023F47C5343F4E06393602F4A936823F0FD
:10111800F003A9680B4393602A4B1B6803F00F0385
:10112800A34230D82B6813F0040F06D0264A9368E0
:1011380023F4E063E9680B4393602B6813F0080F0E
:1011480007D0214A936823F46053296943EAC1030D
:101158009360FFF703FF1C4B9B68C3F303131C4A00
:10116800D35C03F01F03D8401A4B18601A4B186859
:10117800FFF7F8FBF8BD802ECED1134A936823F011
:10118800F0039360C8E70F4A136823F00F03234363
:101198001360FFF72BFC06460A4B1B6803F00F038E
:1011A800A342BFD0FFF722FC801B41F2883398424C
:1011B800F2D90320DEE7012070470120DAE7012099
:1011C800D8E700BF002002400010024000B4C40469
:1011D800601F00080800002004000020014B186868
:1011E800704700BF0800002008B5FFF7F7FF054B60
:1011F8009B68C3F30223044AD35C03F01F03D8405F
:1012080008BD00BF00100240581F000808B5FFF7CE
:10121800E5FF054B9B68C3F3C223044AD35C03F084
:101228001F03D84008BD00BF00100240581F000827
:10123800F0B583B00446036813F4002F6ED0354B25
:101248009B6D13F0805F1ED1324B9A6D42F0805235
:101258009A659B6D03F080530193019B01262E4AEA
:10126800136843F480731360FFF7C0FB05462A4BED
:101278001B6813F4807F08D1FFF7B8FB401B0228D6
:10128800F5D9032502E00026E9E7002545BB214BF7
:10129800D3F8903013F4407318D0226D9A4212D0CC
:1012A8001C4AD2F8903023F44073D2F8901041F4DD
:1012B8008031C2F89010D2F8901021F48031C2F831
:1012C8009010C2F8903013F0010F10D145B9114AAF
:1012D800D2F8903023F44073216D0B43C2F890305C
:1012E800EEB10C4A936D23F08053936517E0FFF736
:1012F8007DFB0746074BD3F8903013F0020FE5D17A
:10130800FFF774FBC01B41F288339842F2D90325DA
:10131800DCE700BF00100240007000400025236891
:1013280013F0010F08D09F4AD2F8883023F0030346
:1013380061680B43C2F88830236813F0020F08D0A5
:10134800984AD2F8883023F00C03A1680B43C2F8FE
:101358008830236813F0040F08D0924AD2F88830F6
:1013680023F03003E1680B43C2F88830236813F098
:10137800080F08D08B4AD2F8883023F0C0032169BF
:101388000B43C2F88830236813F0100F08D0854A41
:10139800D2F8883023F4407361690B43C2F888306F
:1013A800236813F0200F08D07E4AD2F8883023F43F
:1013B8004063A1690B43C2F88830236813F0400FDB
:1013C80008D0784AD2F8883023F44053E1690B43B7
:1013D800C2F88830236813F0800F08D0714AD2F819
:1013E800883023F44043216A0B43C2F888302368CD
:1013F80013F4807F08D06B4AD2F8883023F4403346
:10140800616A0B43C2F88830236813F4003F08D0A0
:10141800644AD2F89C3023F00303A16A0B43C2F854
:101428009C30236813F4007F08D05E4AD2F88830D5
:1014380023F44023E16A0B43C2F88830236813F48D
:10144800806F0CD0574AD2F8883023F44013216BB0
:101458000B43C2F88830236BB3F5801F79D023681B
:1014680013F4006F0CD04F4AD2F8883023F44003AD
:10147800616B0B43C2F88830636BB3F5800F6DD096
:10148800236813F4805F0CD0464AD2F8883023F0E2
:101498004073A16B0B43C2F88830A36BB3F1807F14
:1014A80061D0236813F4005F0CD03E4AD2F888302C
:1014B80023F04063E16B0B43C2F88830E36BB3F170
:1014C800006F55D0236813F4804F0CD0354AD2F8FA
:1014D800883023F04063216C0B43C2F88830236CBA
:1014E800B3F1006F49D0236813F4004F0CD02D4A94
:1014F800D2F8883023F04053616C0B43C2F888302F
:10150800636CB3F1805F3DD0236813F4803F0CD047
:10151800244AD2F8883023F04043A16C0B43C2F828
:101528008830A36CB3F1804F31D0236813F4802F37
:101538000CD01C4AD2F89C3023F44013E16C0B43C6
:10154800C2F89C30E36CB3F5001F25D0284603B0E1
:10155800F0BDD36843F48013D36080E7D36843F4C5
:101568008013D3608CE7D36843F48013D36098E783
:10157800D36843F48013D360A4E7D36843F480139B
:10158800D360B0E7D36843F48033D360BCE7D36853
:1015980043F48033D360C8E7D36843F48013D3603F
:1015A800D4E700BF00100240F0B583B0002366E026
:1015B80085685E000324B44025EA0405CC68B4407D
:1015C8002C438460456825EA0C054C68C4F3001474
:1015D8009C402C43446063E08C68012C65D173E027
:1015E800DD08083550F8254003F0070C4FEA8C0C4D
:1015F8004FF00F0E0EFA0CFE24EA0E0E0C6904FAD8
:101608000CF444EA0E0440F8254062E0052400E0AA
:10161800002404FA0EF42C430CF1020C564D45F844
:101628002C40564CA568D44325EA02064F6817F4A7
:10163800801F01D042EA0506504DAE60ED6804EA0D
:1016480005064F6817F4001F01D042EA05064B4D06
:10165800EE606D6804EA05064F6817F4003F01D094
:1016680042EA0506454D6E602D682C404E6816F41A
:10167800803F01D042EA0504404A146001330A68F9
:1016880032FA03F476D04FF0010C0CFA03FC1CEA92
:101698000202F3D04C6804F00304013C012C87D902
:1016A8004C6804F00304032C96D0C4684FEA430E38
:1016B8004FF0030C0CFA0EFC24EA0C0C8C6804FAAC
:1016C8000EF444EA0C04C4604C6804F00304022CD1
:1016D80086D004684FEA430E4FF0030C0CFA0EFC58
:1016E80024EA0C0C4C6804F0030404FA0EF444EAEF
:1016F8000C0404604C6814F4403FBFD0204C256EA5
:1017080045F001052566246E04F001040194019C4E
:101718004FEA930C0CF10205174C54F8255003F0CE
:10172800030E4FEA8E0E0F2404FA0EF425EA040580
:10173800B0F1904F3FF46CAF124CA04212D004F5B8
:101748008064A04210D004F58064A0420ED004F555
:101758008064A0420CD004F58064A0423FF456AFE8
:10176800062456E7012454E7022452E7032450E7ED
:1017780004244EE703B0F0BD00000140000401401E
:1017880000100240000400480AB18161704781627C
:101798007047000070B504468368026913434269C4
:1017A8001343C269134301680868954A02401A4303
:1017B8000A602268536823F44053E1680B4353607E
:1017C800A16922688F4B9A4201D0236A1943936812
:1017D80023F06E4323F430630B4393602268D36A8B
:1017E80023F00F03616A0B43D3622368864A93424E
:1017F80010D0864A934221D0854A93424DD0854ADB
:1018080093425DD0844A93426CD07E4A93427ED004
:1018180010222BE002F55842D2F8882002F0030289
:10182800032A09D8DFE802F00204880601221DE035
:1018380004221BE0082219E0102217E002F5E63224
:10184800D2F8882002F00C020C2A0ED8DFE802F049
:10185800070D0D0D090D0D0D760D0D0D0B00002258
:1018680004E0042202E0082200E0102265498B42CD
:1018780000F08680E069B0F5004F00F0D580082AB6
:1018880000F23581DFE812F003011C010101330188
:101898001F01330133013301220102F5E432D2F88A
:1018A800882002F03002202A4AD005D8002A49D0E0
:1018B800102A49D10422D9E7302A47D10822D5E78E
:1018C80002F5E232D2F8882002F0C002802A3FD026
:1018D80004D8FAB3402A3FD10422C7E7C02A3DD131
:1018E8000822C3E702F5E032D2F8882002F44072F9
:1018F800B2F5007F34D005D8A2B3B2F5807F33D1DA
:101908000422B3E7B2F5407F30D10822AEE702F5F2
:10191800C832D2F8882002F44062B2F5006F27D0AE
:1019280005D83AB3B2F5806F26D104229EE7B2F506
:10193800406F23D1082299E7022297E7022295E710
:10194800022293E7002291E710228FE710228DE709
:1019580002228BE7002289E7102287E7102285E719
:10196800022283E7002281E710227FE710227DE729
:1019780002227BE7002279E7102277E7102275E739
:10198800082A00F2A680DFE802F008A410A40DA43B
:10199800A4A405004FF4004008E0FFF725FC28B98F
:1019A8000020A5E0FFF7DAFAF9E71C48626A1C4B49
:1019B80033F81220B0FBF2F3656805EB4501994254
:1019C80000F28980B3EB053F00F28780002633469A
:1019D8003146FEF71DFC090241EA106100026B085E
:1019E800C0182A46334641F10001FEF711FCA0F564
:1019F80040720C4B9A4272D82368D860304677E020
:101A0800F369FFCF008000400038014000440040E7
:101A180000480040004C0040005000400024F40002
:101A2800401F0008FFFC0F00082A5AD8DFE802F020
:101A3800072705592A5959590B00344803E0FFF77D
:101A4800D3FB00284FD0626A314B33F81230B0FB19
:101A5800F3F06268530803EB4003B3FBF2F3A3F11E
:101A680010014FF6EF7291423FD89AB222F00F025E
:101A7800C3F3420313432268D360002038E0FFF722
:101A8800C5FBDEE7FFF76AFADBE7204802E0FFF76D
:101A9800ABFBB0B3626A1E4B33F81230B0FBF3F005
:101AA800636800EB5300B0FBF3F0A0F110024FF6AF
:101AB800EF739A4227D8236880B2D860002017E0D5
:101AC800FFF7A4FBE5E7FFF749FAE2E74FF4004028
:101AD800E0E701200CE001200AE0012008E00120F5
:101AE80006E0012004E0002002E0012000E00120DF
:101AF8000123A4F86A30A4F86830002323676367D9
:101B080070BD0020F4E70120F2E700BF0024F400D4
:101B1800401F0008836A13F0010F06D0026853685B
:101B280023F40033C16A0B435360836A13F0020F36
:101B380006D00268536823F48033016B0B4353606B
:101B4800836A13F0040F06D00268536823F48023D5
:101B5800416B0B435360836A13F0080F06D0026889
:101B6800536823F40043816B0B435360836A13F07B
:101B7800100F06D00268936823F48053C16B0B439F
:101B88009360836A13F0200F06D00268936823F4E9
:101B98000053016C0B439360836A13F0400F0AD023
:101BA8000268536823F48013416C0B435360436C01
:101BB800B3F5801F0BD0836A13F0800F06D002683C
:101BC800536823F40023C16C0B43536070470268C9
:101BD800536823F4C003816C0B435360EBE72DE992
:101BE800F84305460F4616469946DDF820802B68CF
:101BF800DC6937EA04040CBF01240024B44257D13D
:101C0800B8F1FF3FF3D0FEF7F1FEA0EB0900404525
:101C18002FD8B8F1000F2CD02B681A6812F0040FD7
:101C2800E5D0DA6912F4006FE1D04FF400621A626D
:101C38002A6852E8003F23F4D07342E800310029B3
:101C4800F6D12A6802F1080353E8003F23F00103A4
:101C5800083242E800310029F3D12023C5F8843046
:101C6800C5F88830C5F88C30002385F8803003200B
:101C78001FE02A6852E8003F23F4D07342E800319D
:101C88000029F6D12A6802F1080353E8003F23F03F
:101C98000103083242E800310029F3D12023C5F8B6
:101CA8008430C5F88830002385F88030032000E0B0
:101CB8000020BDE8F88330B583B004460023C0F89F
:101CC8008C30FEF793FE05462268126812F0080F62
:101CD8000FD123681B6813F0040F18D12023C4F810
:101CE8008430C4F888300020E06684F8800003B0AF
:101CF80030BD6FF07E430093034600224FF400117D
:101D08002046FFF76CFF0028E3D00320EFE76FF0D1
:101D18007E4300932B4600224FF480012046FFF7B4
:101D28005EFF0028DAD00320E1E778B310B5044657
:101D3800D0F884300BB32423C4F8843022681368A5
:101D480023F0010313602046FFF724FD012813D078
:101D5800A36ABBB92268536823F49043536022688E
:101D6800936823F02A0393602268136843F0010301
:101D780013602046FFF79FFF10BD80F88030FEF704
:101D880067FCD8E72046FFF7C5FEE3E70120704768
:101D9800002808DB0901C9B200F1604000F5614084
:101DA80080F80013704700F00F000901C9B2014B19
:101DB8001954704714ED00E000B500F00700C0F1B9
:101DC800070CBCF1040F28BF4FF0040C031D062BB1
:101DD8000ED9C31E4FF0FF3E0EFA0CF021EA0001A7
:101DE80099400EFA03FE22EA0E0241EA020000BD03
:101DF8000023EFE7074AD36823F4E0631B041B0CB6
:101E0800000200F4E060034343F0BF6343F400338F
:101E1800D360704700ED00E010B50446054BD86864
:101E2800C0F30220FFF7C8FF01462046FFF7B0FFC6
:101E380010BD00BF00ED00E00138B0F1807F0BD28B
:101E48004FF0E0235861054AF02182F82310002062
:101E5800986107221A6170470120704700ED00E081
:101E6800034AD2F8883043F47003C2F888307047C8
:101E780000ED00E00D488546FFF7F2FF0C480D49DC
:101E88000D4A002302E0D458C4500433C4188C42CD
:101E9800F9D30A4A0A4C002301E013600432A24233
:101EA800FBD300F019F8FEF77BFBFEE700000220E9
:101EB800000000200C000020801F00080C000020FB
:101EC800BC000020FEE702440346934200D170475D
:101ED80003F8011BF9E7000070B50D4B0D4D5B1BB6
:101EE8009C100026A64209D100F01AF80A4D0B4BA7
:101EF8005B1B9C100026A64205D170BD55F8043B1B
:101F080098470136EEE755F8043B98470136F2E763
:101F1800781F0008781F0008781F00087C1F000839
:101F2800F8B500BFF8BC08BC9E467047F8B500BFBE
:081F3800F8BC08BC9E4670478E
:101F4000010002000400060008000A000C00100056
:101F50002000400080000001000000000102030496
:101F60000000000000000000010203040607080949
:081F7000D8E2FF7F0100000030
:041F7800FD0100085F
:041F7C00D90100087F
:0C1F800001000000100000000024F4002C
:0400000508001E7D54
:00000001FF
