:020000040800F2
:1000000000000220C52E0008F5170008F7170008A9
:10001000F9170008FB170008FD1700080000000092
:10002000000000000000000000000000FF170008B2
:100030000118000800000000031800080518000857
:10004000152F0008152F0008152F0008152F000880
:10005000152F0008152F0008152F0008152F000870
:10006000152F0008152F0008152F0008152F000860
:10007000152F0008152F0008152F0008152F000850
:10008000152F0008152F0008152F0008152F000840
:10009000152F0008152F0008152F0008152F000830
:1000A000152F0008152F0008152F0008152F000820
:1000B000152F0008152F0008152F0008152F000810
:1000C000152F0008152F0008152F0008152F000800
:1000D000152F0008152F0008152F0008152F0008F0
:1000E000152F0008152F0008152F0008152F0008E0
:1000F000152F0008152F0008152F0008152F0008D0
:10010000152F0008152F0008152F0008152F0008BF
:10011000152F0008152F0008152F0008152F0008AF
:10012000152F0008152F0008152F0008152F00089F
:10013000152F0008152F0008152F0008152F00088F
:10014000152F0008152F0008152F0008152F00087F
:10015000152F0008152F0008152F0008152F00086F
:10016000152F0008152F0008152F0008152F00085F
:10017000152F0008152F0008152F0008152F00084F
:10018000152F0008152F0008152F0008152F00083F
:10019000152F000800000000152F0008152F00087B
:1001A000152F0008152F0008152F0008152F00081F
:1001B000152F0008152F0008152F0008152F00080F
:1001C000152F0008152F0008152F0008152F0008FF
:0801D000152F0008152F00088F
:1001E00010B5054C237833B9044B13B10448AFF371
:1001F00000800123237010BD60000020000000007B
:100200009038000808B5034B1BB103490348AFF30E
:10021000008008BD00000000640000209038000845
:1002200001F0FF01102A2BDB10F0070F08D010F8A7
:10023000013B013A8B422DD010F0070F42B3F6D1AB
:10024000F0B441EA012141EA014122F007047FF0C4
:1002500000070023F0E80256083C85EA010586EA1B
:10026000010685FA47F5A3FA87F586FA47F6A5FA57
:1002700087F68EB9EED1F0BC01F0FF0102F0070263
:1002800032B110F8013B013A83EA010313B1F8D10E
:100290000020704701387047002D06BF35460338EF
:1002A000073815F0010F07D1013015F4807F02BF28
:1002B000013015F4C03F0130F0BC0138704700BF79
:1002C00053B94AB9002908BF00281CBF4FF0FF31BD
:1002D0004FF0FF3000F088B9ADF1080C6DE904CEA5
:1002E00000F006F8DDF804E0DDE9022304B0704711
:1002F0002DE9F047089D0F4604468C46002B48D157
:100300008A42164661D9B2FA82F34BB1C3F1200298
:1003100001FA03FC20FA02F29E4042EA0C0C9C40D7
:100320004FEA164EB7B2BCFBFEF1220C0EFB11CC0D
:1003300042EA0C4201FB07F0904209D9B21801F1E0
:10034000FF3C80F0EE80904240F2EB800239324474
:10035000121AA4B2B2FBFEF00EFB102244EA0244D1
:1003600000FB07F7A74209D9341900F1FF3280F0EA
:10037000DA80A74240F2D7803444023840EA014094
:10038000E41B00211DB1DC400023C5E90043BDE8AA
:10039000F0878B4206D90DB1C5E90001002108465E
:1003A000BDE8F087B3FA83F1002948D1BB4202D3FC
:1003B000824200F20781841A67EB0302012094460F
:1003C000002DE4D0C5E9004CE1E7002A00F092805E
:1003D000B2FA82F3002B40F0A8808A1A4FEA164E38
:1003E0001FFA86FC0121200CB2FBFEF70EFB172240
:1003F00040EA02420CFB07F0904207D9B21807F11D
:10040000FF3802D2904200F2E2804746121AA4B2AC
:10041000B2FBFEF00EFB102244EA02440CFB00FC8F
:10042000A44507D9341900F1FF3202D2A44500F2E5
:10043000CB801046A4EB0C0440EA0740A2E7C1F1D0
:1004400020068B4022FA06FC4CEA030C07FA01F462
:1004500020FA06F3F7404FEA1C49234300FA01F85B
:100460001FFA8CFEB7FBF9F01C0C09FB107744EA6D
:10047000074400FB0EF7A74202FA01F20AD91CEB6F
:10048000040400F1FF3A80F09B80A74240F298807C
:1004900002386444E41B9FB2B4FBF9F309FB134434
:1004A00047EA044403FB0EFEA64509D91CEB0404ED
:1004B00003F1FF3780F08280A6457FD9023B644478
:1004C00043EA0040A4EB0E04A0FB02E7BC427346E3
:1004D000B94663D360D05DB1B8EB030264EB0904A5
:1004E00004FA06F622FA01F31E43CC40C5E9006483
:1004F00000214CE76208480842EAC1710B0C43EA4C
:1005000000438AB242EA0342B3FBF6F1E407B44681
:100510003746B6461F23B0FBF6F0D21B41EA004136
:1005200061E7614614E7104628E7C3F1200120FA8D
:1005300001F29E4027FA01F19F403A434FEA164EDE
:100540001FFA86FCB1FBFEF70EFB1710110C41EAF7
:10055000004107FB0CF8884504FA03F43AD97118F6
:1005600007F1FF3001D288451FD8A1EB0801B1FB8C
:10057000FEF808FB0CF70EFB181192B242EA01429A
:10058000BA422FD2B21808F1FF31C6D2BA42C4D251
:10059000A8F102013244C0E7F0459CD2BEEB020351
:1005A00067EB0C070138B94695E7A6EB080841440C
:1005B000B81EB1FBFEF808FB0CF7DCE73B467FE713
:1005C000504667E70846FBE63444023832E7023F0C
:1005D00032441BE7A1EB08013846B1FBFEF808FBEB
:1005E0000CF7C8E7414698E7704700BF72B6FEE7D0
:1005F00030B595B006AD38220021284602F0C2FC85
:100600000024019402940394049405944FF4007020
:1006100001F018F9022306934FF4807309934023E5
:100620000A930D94284601F025FA68B90F23019327
:1006300001230293002103910491059101A801F087
:10064000CFFC18B915B030BDFFF7D0FFFFF7CEFFD4
:1006500008B501F0ADF9FFF7CBFF00F005F800F0A9
:100660002BF800F08BF8FEE700B589B003A9002352
:1006700003934B608B60CB600B6103F1804303F508
:100680000433DA6C42F00102DA64DA6C02F001023F
:100690000192019ADA6C42F00202DA64DB6C03F038
:1006A00002030293029B0123039305934FF09040B2
:1006B00001F078FF09B000BD08B50C480C4B036091
:1006C0004FF4E133436000238360C36003610C2275
:1006D00042618361C36103624362836202F029FB6A
:1006E00000B908BDFFF782FFFBE700BF7C000020D8
:1006F0000038014010B59CB00446002117911891B4
:1007000019911A911B91542202A802F03BFC226815
:10071000184B9A4201D01CB010BD0123029302A8CD
:1007200001F084FD10BB144B1A6E42F480421A662D
:100730001A6E02F480420092009ADA6C42F00102D2
:10074000DA64DB6C03F001030193019B4FF4C06397
:10075000179302231893012219921A9307231B93CC
:1007600017A94FF0904001F01DFFD4E7FFF73EFFBF
:10077000D9E700BF003801400010024008B500F082
:1007800095F800F0A1F800F009FA00F015FB00F070
:1007900079FA00F091FA4FF47A7001F02BF900F039
:1007A000ABFA00F0EDFA00F00FFA00F0B3F96420B4
:1007B00001F020F9F3E7B5EEC00AF1EE10FA0CDA19
:1007C000F2EE047A20EE270AF6EE007A30EE670A9F
:1007D000BDEEC00A10EE100A7047F2EE047A20EE69
:1007E000270AF6EE007A30EE270ABDEEC00AF1E7DE
:1007F000022805D0032805D0012805D103487047F9
:10080000034870470348704703487047A8380008FA
:10081000AC380008B8380008C438000810B584B0F7
:10082000069CC0B18646B2B1ACB1002B15DB0C48BA
:1008300003940C4C84FB034CDC17C4EBAC0404EBBA
:10084000840CA3EB4C030293019400901346064AD8
:10085000704602F061FB04B010BD5B420348E7E75D
:100860004C39000867666666CC380008C83800084E
:1008700000B583B00146002000900E23AC2200F0AA
:1008800011FB03B000BD70B582B004460D4616469C
:10089000FFF7EEFF02340023009333462A46A1B24D
:1008A000062000F0A7FB02B070BD000008B500F004
:1008B00033FB034B01221A70024B00221A6008BD61
:1008C000100100200C010020154B1B7803B9704764
:1008D00010B582B0002000F013FB0024009440F219
:1008E000FF73104A0821062000F084FB00944FF6A5
:1008F000FF730D4A2421062000F07CFB00944FF486
:10090000FC630A4A3C21062000F074FB00944FF47B
:10091000FC63074A5421062000F06CFB02B010BDB6
:1009200010010020DC380008F43800080039000805
:100930000C39000830B591B000240D940E940F943A
:100940000BA800F095F900F043FA05462022214655
:1009500003A802F017FB4D4B1B780BB911B030BD4B
:1009600040F2FF724A490820FFF78DFF0DA800F002
:10097000DDF9002864D19DED0D0AFFF71CFF034649
:1009800003AC444A0092444A20212046FFF746FF28
:100990004FF6FF7221462420FFF775FF9DED0E0AEA
:1009A000FFF709FF03463D4A00923D4A20212046B9
:1009B000FFF734FF4FF6FF7221463C20FFF763FF3D
:1009C000002D4AD0012D4FD04FF6E072354954200A
:1009D000FFF759FF9DF82D40002C4CD0324B334A85
:1009E000202103A802F098FA002C46D04FF4FC62B4
:1009F00003A96C20FFF747FF9DF82E40002C3FD045
:100A0000294B2B4A202103A802F086FA002C39D06A
:100A10004FF4FC6203AC21468420FFF734FF9DF8BD
:100A20002C00FFF7E5FE0346224A2021204602F073
:100A300073FA4FF6FF7221469C20FFF724FF8DE7E3
:100A40004FF6FF721C492420FFF71DFF4FF6FF727F
:100A50001A493C20FFF717FFB2E74FF4FC62184930
:100A60005420FFF710FFB5E74FF4784215495420A2
:100A7000FFF709FFAEE7144BB1E74FF6FF72B7E798
:100A8000114BBEE74FF6FF72C4E700BF1001002014
:100A9000DC38000820390008183900082C39000813
:100AA0002439000868390008A83800087839000897
:100AB00084390008903900083039000840390008AE
:100AC000503900085C390008C438000808B5064BE6
:100AD0001B7803B908BDFFF72DFF4FF47842034997
:100AE0009C20FFF7D0FEF5E7100100209C3900089C
:100AF00008B5064B1B7803B908BDFFF71BFF4FF481
:100B0000784203499C20FFF7BEFEF5E71001002064
:100B1000B039000800B583B000F066FF0F4B1B78BA
:100B20009BB10F4B1B681BB1C31AB3F5FA7F0CD3F3
:100B30000B4B1860684600F09BF89DF8033033B10A
:100B40009DF8043033B9FFF7C1FF03B000BDFFF7D4
:100B5000CFFFFAE7FFF7EEFEF7E700BF1001002036
:100B60000C01002010B5044600F0B7FD00F0C8FDF0
:100B7000024B1C7000225A709A7010BD1C0100209C
:100B800008B500F0A2FD00F0B1FD034B01221A7080
:100B90005A709A7008BD00BF1C01002010B500F00B
:100BA000BFFD064B0024DC701C712046FFF7DAFF06
:100BB000034B01221A70034B1C6010BD1C01002066
:100BC000180100201401002010B500F00DFF234B88
:100BD0001B78002B35D0224B1B681BB1C31AB3F511
:100BE000FA7F2ED31E4B186000F0F8F81D4CE07011
:100BF00000F0BEF82071E378E3B1F8B100F0AAF894
:100C0000DFED197AF4EEC07AF1EE10FA1ADC00F09A
:100C1000A1F8DFED167AB4EEE70AF1EE10FA14DC73
:100C2000104B5B78ABB10F4B9B7893B10D4B01220E
:100C30001A7006E00220FFF795FF02E00320FFF79D
:100C400091FF10BDFFF79CFFFBE70020FFF78AFF35
:100C5000F7E7044B00221A70F3E700BF18010020E9
:100C6000140100201C010020000082420000964276
:100C70000346034A1068186012791A7118467047C3
:100C80001C01002008B5094A0023136053600023AB
:100C90001372074A1370074A136000F0F1F918B98C
:100CA000034B01221A7008BD0120FCE72C01002033
:100CB000280100202401002000B583B00023009308
:100CC00001930B4B1B788BB1684600F085FA40B955
:100CD000084B009A1A60019A5A6001221A7203B0F6
:100CE00000BD044B00221A720320F8E70220F6E749
:100CF000280100202C01002008B500F075FE094BEA
:100D00001B7863B1084B1B68C31AB3F5FA6F01D2A5
:100D1000002008BD044B1860FFF7CEFFF9E7022062
:100D2000F7E700BF2801002024010020034650B14E
:100D3000074A127A4AB1064908681860496859603A
:100D40001A7200207047012070470120704700BFD1
:100D50002C010020044B1B7A1BB1034B93ED010ABD
:100D600070479FED020A70472C0100200000000030
:100D7000024B187A00B970470120FCE72C010020D3
:100D800008B50A4B1B781BB9094B02221A7008BD23
:100D900000F029FD074B1870012803D0044B0122F5
:100DA0001A70F4E7024B00221A70F0E738010020B5
:100DB000000000200100002008B500F0F5FC034B06
:100DC00001221A70FFF7DCFF08BD00BF38010020C8
:100DD000014B1878704700BF00000020034B1B78C0
:100DE0000BB1002070470120704700BF00000020B9
:100DF00010B50446000A00F0EAFAE0B200F0E7FAA3
:100E000010BDF8B50E461F46AB2800D9AB20AB2A63
:100E100000D9AB22B6F5A07F01D340F23F16B7F55B
:100E2000A07F01D340F23F17904202D813460246FA
:100E30001846BE4202D83B4637461E46223295B27D
:100E4000223084B22A2000F0B6FA2846FFF7D0FFFD
:100E50002046FFF7CDFF2B2000F0ADFA3846FFF714
:100E6000C7FF3046FFF7C4FF2C2000F0A4FAF8BDFE
:100E700010B50446000A00F0AAFAE0B200F0A7FAA2
:100E800010BDAB280DD810B51446B1F5A07F00D326
:100E900010BD0B460246FFF7B4FF2046FFF7E8FF00
:100EA000F6E7704770B5BDF8106042B31C461546B2
:100EB0002BB3AB2823D8B1F5A07F20D28318AC2B5D
:100EC00002D9C0F1AC05ADB20B19B3F5A07F02D9C0
:100ED000C1F5A074A4B22A1892B2013A63189BB269
:100EE000013B9BB292B2FFF78CFF04FB05F5002497
:100EF00003E03046FFF7BCFF0134AC42F9D370BDCC
:100F000000B583B000904FF4A073AC2200210846D6
:100F1000FFF7C8FF03B000BD08B500F0E7F900F027
:100F20003EFA112000F047FA782000F063FD13200C
:100F300000F041FA3A2000F03EFA552000F047FA5E
:100F4000362000F038FA002000F041FA212000F0AD
:100F500032FA292000F02FFA142000F04BFD002077
:100F6000FFF7CEFF08BD00002DE9F84FBDF828A01F
:100F7000AB283BD806460F469B46B1F5A07F35D23D
:100F8000A2F12003DBB25E2B00D92022203A02EB33
:100F90008202174B02EB030900251FE04FF0000807
:100FA00022E05246FFF76DFF0134A4B2072C13D89C
:100FB000A81980B2E11989B2AB28F5D8B1F5A07FA4
:100FC000F2D2062CEDD80123A34013EA080FE8D093
:100FD0005A46FFF756FFE7E70135ADB2052D05D8B4
:100FE000042DDBD819F805800024DFE7BDE8F88F71
:100FF000CC3900082DE9F04182B004460F461E4668
:10100000BDF82080154672B12A7862B1AB2C0AD89F
:10101000CDF80080334639462046FFF7A5FF063459
:10102000A4B20135F0E702B0BDE8F08110B582B09E
:1010300071238DF8073098B1044601220DF10701A4
:10104000382000F0ECFA10B1012002B010BD0122EE
:101050002146382000F00BFB0028F6D00120F4E7F1
:101060000120F2E710F0800F01D10020704701202D
:10107000704710F0080000D170470120FCE7000025
:1010800010B582B000238DF8073000F0D7F9282082
:1010900000F0B0FC0DF10700FFF7C8FF40BB0446AD
:1010A0009DF80700FFF7E5FF10B1204602B010BD24
:1010B000104B1B68ADF804301B0C8DF80630032272
:1010C00001A9382000F0ABFA08B10124EDE70A20AD
:1010D00000F090FC0DF10700FFF7A8FF0446002880
:1010E000F3D19DF80700FFF7C4FF0028DDD1ECE73E
:1010F0000124DAE7C439000800B583B0084B1B6847
:10110000ADF804301B0C8DF80630032201A93820FD
:1011100000F085FA08B903B000BD0120FBE700BF6D
:10112000C8390008B0B110B50446FFF7E5FF08B1B3
:10113000012010BD502000F05DFC06222146382021
:1011400000F095FA40B92078FFF78CFF0028F0D026
:101150000120EEE7012070470120EAE780B389B360
:1011600043788278120142EA0332C37842EA1312CA
:1011700007EE102A1B0403F47023027943EA0223CA
:101180004279134307EE903AB8EE477ADFED0E6AE4
:1011900027EE267A9FED0D6A27EE067A81ED017A19
:1011A000F8EE677A67EEA67A9FED097A67EE877A9E
:1011B0009FED087A77EEC77AC1ED007A002070477C
:1011C0000120704701207047000080350000C842B0
:1011D000000048430000484210B582B0002300934D
:1011E000ADF8043078B104466846FFF79BFF10B1B4
:1011F000012002B010BD21466846FFF7AFFF00286E
:10120000F7D00120F5E70120F3E782B0082301932E
:1012100003E000BF019B013B0193019B002BF8D130
:1012200002B0704708B501224FF48061014801F017
:10123000B0FA08BD0004004808B500224FF48061F0
:10124000014801F0A6FA08BD0004004808B50122D3
:101250004FF40061014801F09CFA08BD0004004809
:1012600008B500224FF40061014801F092FA08BD70
:101270000004004808B501224FF48051014801F0F4
:1012800088FA08BD0004004808B500224FF48051D8
:10129000014801F07EFA08BD0004004808B50122AB
:1012A0004FF40051014801F074FA08BD00040048F1
:1012B00008B500224FF40051014801F06AFA08BD58
:1012C0000004004808B501224FF40041014801F034
:1012D00060FA08BD0004004808B500224FF4004140
:1012E000014801F056FA08BD00040048F0B587B087
:1012F00001AC002501950295039504950595164BC3
:10130000DA6C42F00202DA64DB6C03F00203009351
:10131000009B4FF4E05301930126029604960F4F71
:101320002146384601F03EF94FF4204301930296DE
:101330000395022304932146384601F033F9FFF761
:1013400071FFFFF797FFFFF78BFFFFF7B1FFFFF785
:10135000C3FF07B0F0BD00BF00100240000400480A
:1013600008B550B1FFF7AEFFFFF798FFFFF74DFF4D
:10137000FFF79EFFFFF749FF08BDFFF7ADFFF3E75B
:1013800038B50446002507E004F08000FFF7E8FFC9
:101390006400E4B20135EDB2072DF5D938BD08B5CA
:1013A000FFF74AFF142000F025FBFFF73BFF7820F2
:1013B00000F020FB08BD10B50446FFF751FFFFF712
:1013C00063FF2046FFF7DCFFFFF754FF10BD10B5A9
:1013D0000446FFF73BFFFFF757FF2046FFF7D0FF1C
:1013E000FFF748FF10BD82B00023019303E000BF68
:1013F000019B01330193019B312BF8D902B0704757
:1014000008B501224021024801F0C3F908BD00BF20
:101410000004004808B500224021024801F0B9F953
:1014200008BD00BF0004004808B501228021024821
:1014300001F0AFF908BD00BF0004004830B587B027
:1014400001AC00230193029303930493059303F1EA
:10145000804303F50433DA6C42F00202DA64DB6C99
:1014600003F002030093009B0E4D01224021284609
:1014700001F08FF901228021284601F08AF9C0236A
:101480000193112302930123039302230493214622
:10149000284601F087F8FFF7B3FFFFF7C5FF07B055
:1014A00030BD00BF0004004808B50022802102487A
:1014B00001F06FF908BD00BF0004004808B58021A5
:1014C000034801F05FF9012800D0002008BD00BFEB
:1014D0000004004808B5FFF7A7FFFFF791FFFFF7EB
:1014E00082FFFFF7E1FFFFF77EFFFFF793FFFFF7B4
:1014F0007AFF08BD08B5FFF7D7FFFFF774FFFFF7C6
:101500007FFFFFF770FFFFF78FFFFFF76CFF08BD4E
:1015100010B50446FFF77EFF64B1FFF785FFFFF7C4
:1015200062FFFFF76DFFFFF75EFFFFF773FFFFF747
:101530005AFF10BDFFF7B8FFF1E710B5FFF76AFFDC
:10154000FFF772FFFFF74FFFFFF75AFFFFF74BFF61
:10155000FFF7B4FF0446FFF75DFFFFF744FF2046A7
:1015600010BD10B5FFF760FFFFF73DFFFFF748FF25
:10157000FFF739FFFFF7A2FF044600B10124FFF790
:1015800049FFFFF730FF204610BD08B5FFF742FFC7
:10159000FFF78AFFFFF727FFFFF732FFFFF723FF71
:1015A000FFF738FFFFF71FFFFFF73EFF08BD08B545
:1015B000FFF730FFFFF738FFFFF715FFFFF720FFBA
:1015C000FFF711FFFFF726FFFFF70DFF08BD38B546
:1015D0000446002507E004F08000FFF799FF64004F
:1015E000E4B20135EDB2072DF5D9FFF7BAFF38BDEA
:1015F00070B5064600252C4607E06400E4B2FFF70C
:101600009CFF0443E4B20135EDB2072DF5D91EB1BC
:10161000FFF7BBFF204670BDFFF7C9FFFAE7F8B53B
:10162000044615460E4691B1FFF754FF600000F0E6
:10163000FE00FFF7CCFF074668B90024AC4212D287
:10164000305DFFF7C4FF50B90134A4B2F6E7002AB9
:10165000EAD0012709E0FFF74DFF012705E0FFF77A
:1016600049FF012701E0FFF745FF3846F8BD2DE9A6
:10167000F04122B304460F46164619B3FFF72AFF7E
:101680006000C0B240F00100FFF7A1FF804608B93A
:1016900000240DE0FFF72EFF4FF001080CE0651C61
:1016A000B5422CBF00200120FFF7A2FF3855ACB295
:1016B000B442F4D3FFF71EFF4046BDE8F0814FF07F
:1016C0000008F9E74FF00108F6E708B5012202210A
:1016D0004FF0904001F05DF808BD08B500220221EE
:1016E0004FF0904001F055F808BD000008B5012208
:1016F0001146024801F04DF808BD00BF0004004843
:1017000008B500220121024801F043F808BD00BFDE
:101710000004004808B5FFF7E0FFFFF7F1FF08BD40
:10172000F0B589B003AD00240394049405940694A5
:1017300007941B4BDA6C42F00102DA64DA6C02F0B7
:1017400001020192019ADA6C42F00202DA64DB6C67
:1017500003F002030293029B224602214FF09040C5
:1017600001F017F80F4F22460121384601F011F819
:1017700002230393012604960594069429464FF00C
:10178000904000F00FFF03960496059406942946B6
:10179000384600F007FFFFF7BDFF09B0F0BD00BFFE
:1017A000001002400004004800B587B001A90023E2
:1017B00001934B608B60CB600B6103F1804303F5B9
:1017C0000433DA6C42F00102DA64DB6C03F00103EB
:1017D0000093009B0123019303934FF0904000F08E
:1017E000E1FE07B000BD08B501214FF0904000F0C8
:1017F000C9FF08BDFEE7FEE7FEE7FEE7FEE770472C
:101800007047704708B500F0E3F808BD00B583B035
:101810000B4B1A6E42F001021A661A6E02F00102B8
:101820000092009A9A6D42F080529A659B6D03F087
:1018300080530193019B00F08BF803B000BD00BF03
:1018400000100240002836D13E4B1B6803F4C063F1
:10185000B3F5806F08D03B4AD2F8803023F4807310
:10186000C2F8803000207047364AD2F8803023F426
:101870008073C2F88030136823F4C06343F40073AC
:101880001360314B1B68322202FB03F32F4AA2FB89
:1018900003239B0C013300E0013B2A4A526912F4F6
:1018A000806F01D0002BF7D1264B5B6913F4806F5A
:1018B00044D100207047B0F5007F08D0214A13685A
:1018C00023F4C06343F480631360002070471D4B12
:1018D0001B6803F4C063B3F5806F08D0194AD2F8CF
:1018E000803043F48073C2F8803000207047154A7E
:1018F000D2F8803043F48073C2F88030136823F448
:10190000C06343F4007313600F4B1B68322202FB69
:1019100003F30E4AA2FB03239B0C013300E0013BBF
:10192000084A526912F4806F01D0002BF7D1054BA1
:101930005B6913F4806F03D1002070470320704768
:1019400003207047007000400C00002083DE1B4322
:10195000024A936843F480439360704700700040EC
:10196000104B1B680BB90120704710B504460E4A96
:1019700010684FF47A72B2FBF3F3B0FBF3F001F0AE
:101980005FFA68B90F2C01D901200AE00022214634
:101990004FF0FF3001F044FA044B1C60002000E0DF
:1019A000012010BD040000200C00002008000020D1
:1019B00010B5032001F022FA0F20FFF7D1FF10B17C
:1019C0000124204610BD0446FFF720FFF9E7000080
:1019D000034A1368034909680B441360704700BF4A
:1019E0003C01002004000020014B1868704700BF34
:1019F0003C01002038B50446FFF7F6FF0546B4F178
:101A0000FF3F02D0044B1B681C44FFF7EDFF401B57
:101A1000A042FAD338BD00BF04000020124BDA68A0
:101A200002F00302DB68C3F303130133032A11D06E
:101A30000E48B0FBF3F00C4BDB68C3F3062303FB4B
:101A400000F0094BDB68C3F3416301335B00B0FB7B
:101A5000F3F070470648B0FBF3F0034BDB68C3F3C9
:101A6000062303FB00F0ECE7001002400024F40022
:101A700000127A00002800F04F8270B582B0044650
:101A8000036813F0010F37D0A44A936803F00C03E6
:101A9000D26802F003020C2B23D0082B23D06368FA
:101AA000B3F5803F4ED0B3F5A02F51D09B4B1A68B1
:101AB00022F480321A601A6822F480221A60636865
:101AC000002B52D0FFF790FF0546944B1B6813F490
:101AD000003F11D1FFF788FF401B6428F5D9032090
:101AE00023E2032AD9D18D4B1B6813F4003F03D0A6
:101AF0006368002B00F01282236813F0020F5DD0A0
:101B0000864A936803F00C03D26802F003020C2BA0
:101B10003AD0042B3AD0E368002B75D07F4A136883
:101B200043F480731360FFF75FFF05467B4B1B6830
:101B300013F4806F5FD1FFF757FF401B0228F5D9E0
:101B40000320F2E1754A136843F480331360B6E76B
:101B500003F18043A3F53C331A6842F480221A60F3
:101B60001A6842F480321A60A9E7FFF73DFF054684
:101B70006A4B1B6813F4003FBED0FFF735FF401BD4
:101B80006428F5D90320D0E1022AC2D1634B1B6837
:101B900013F4806F03D0E368002B00F0C1815F4A2B
:101BA000536823F0FE43216943EA016353605C4BB1
:101BB0001868FFF7D5FE002840F0B481236813F0C1
:101BC000080F4CD063699BB3544AD2F8943043F069
:101BD0000103C2F89430FFF707FF05464F4BD3F8D7
:101BE000943013F0020F3AD1FFF7FEFE401B02289B
:101BF000F4D9032099E1494A536823F0FE4321694F
:101C000043EA01635360D9E7444A136823F48073BD
:101C10001360FFF7E9FE0546404B1B6813F4806F25
:101C2000CCD0FFF7E1FE401B0228F5D903207CE170
:101C30003A4AD2F8943023F00103C2F89430FFF707
:101C4000D3FE0546354BD3F8943013F0020F06D07F
:101C5000FFF7CAFE401B0228F4D9032065E1236880
:101C600013F0040F00F081802C4B9B6D13F0805F0C
:101C700036D12A4B9A6D42F080529A659B6D03F0E3
:101C800080530193019B0125264B1B6813F4807F31
:101C900028D0A368012B39D0052B45D01F4BD3F892
:101CA000902022F00102C3F89020D3F8902022F077
:101CB0000402C3F89020A368002B43D0FFF794FEE2
:101CC0000646164BD3F8903013F0020F4CD1FFF7B5
:101CD0008BFE801B41F288339842F2D9032024E125
:101CE0000025D1E70F4A136843F480731360FFF7B0
:101CF0007BFE06460B4B1B6813F4807FC9D1FFF7B0
:101D000073FE801B0228F5D903200EE1034AD2F8A6
:101D1000903043F00103C2F89030CCE7001002404D
:101D20000800002000700040884BD3F8902042F05B
:101D30000402C3F89020D3F8902042F00102C3F8C7
:101D40009020B8E7FFF750FE0646804BD3F890305E
:101D500013F0020F08D0FFF747FE801B41F28833D3
:101D60009842F2D90320E0E0E5B9236813F0200F90
:101D700035D0A369E3B1754AD2F8983043F0010336
:101D8000C2F89830FFF730FE0546704BD3F8983014
:101D900013F0020F23D1FFF727FE401B0228F4D9CE
:101DA0000320C2E0694A936D23F080539365DCE71A
:101DB000664AD2F8983023F00103C2F89830FFF752
:101DC00013FE0546614BD3F8983013F0020F06D08E
:101DD000FFF70AFE401B0228F4D90320A5E0E369BF
:101DE000002B00F0A180594A926802F00C020C2AE4
:101DF00064D0022B13D0554A136823F0807313600C
:101E0000FFF7F2FD0446514B1B6813F0007F4ED0E4
:101E1000FFF7EAFD001B0228F5D9032085E04B4AB5
:101E2000136823F080731360FFF7DEFD0546474B10
:101E30001B6813F0007F06D0FFF7D6FD401B022879
:101E4000F5D9032071E0414AD36841491940236A1A
:101E5000606A013843EA0013A06A43EA0023206B5A
:101E60004008013843EA4053606B4008013843EAB8
:101E70004063E06A43EAC0631943D160136843F0EA
:101E800080731360D36843F08073D360FFF7ACFDB9
:101E900004462E4B1B6813F0007F06D1FFF7A4FD0C
:101EA000001B0228F5D903203FE000203DE0274A2F
:101EB000D168284B0B40D360002036E0012B36D090
:101EC000224BDB6803F00301226A914231D103F017
:101ED000F002616A0139B2EB011F2CD103F4FE421A
:101EE000A16AB2EB012F28D103F07842E16AB2EB8C
:101EF000C16F24D103F4C001226B5208013AB1EB47
:101F0000425F1ED103F0C063626B5208013AB3EB2B
:101F1000426F18D1002008E001207047012004E042
:101F2000012002E0012000E0002002B070BD01208D
:101F3000FBE70120F9E70120F7E70120F5E70120A1
:101F4000F3E70120F1E70120EFE700BF00100240B6
:101F50000C809F01FCFFEEFE1E4B9B6803F00C0300
:101F6000042B33D01B4B9B6803F00C03082B2FD0A2
:101F7000184B9B6803F00C030C2B01D0002070471A
:101F8000144BDA6802F00302DB68C3F30313013376
:101F9000032A11D01048B0FBF3F00E4BDB68C3F3FB
:101FA000062303FB00F00B4BDB68C3F341630133F3
:101FB0005B00B0FBF3F070470848B0FBF3F0054B53
:101FC000DB68C3F3062303FB00F0ECE7024870472D
:101FD00002487047001002400024F40000127A000A
:101FE000002800F0E680F8B50C460546744B1B68E7
:101FF00003F00F038B420BD2714A136823F00F03D7
:102000000B431360136803F00F038B4240F0D3803F
:102010002E6816F001065FD06B68032B2FD0022BC1
:102020004DD0684B1B6813F4806F00F0C680FFF73B
:1020300093FF654B98424DD9624A936823F0F003B1
:1020400043F08003936080265E4A936823F0030385
:1020500069680B439360FFF7C7FC0746594B9B68C1
:1020600003F00C036A68B3EB820F35D0FFF7BCFCBA
:10207000C01B41F288339842F0D9032078E0514BDD
:102080001B6813F0007F01D1012071E0FFF7C6FC4F
:102090004D4B98421AD94B4B9B6813F0F00F05D06B
:1020A0002E6816F00206CFD0AB688BB9454A93680C
:1020B00023F0F00343F0800393608026C4E7414B94
:1020C0001B6813F4003FB2D1012051E00026BBE7AA
:1020D0000026B9E70026B7E72B6813F0020F48D0B7
:1020E00013F0040F04D0374A936843F4E06393601D
:1020F0002B6813F0080F06D0324A936823F47C5300
:1021000043F4E06393602F4A936823F0F003A968D7
:102110000B4393602A4B1B6803F00F03A34230D894
:102120002B6813F0040F06D0264A936823F4E0636B
:10213000E9680B4393602B6813F0080F07D0214A1E
:10214000936823F46053296943EAC1039360FFF75E
:1021500003FF1C4B9B68C3F303131C4AD35C03F0BF
:102160001F03D8401A4B18601A4B1868FFF7F8FB8A
:10217000F8BD802ECED1134A936823F0F00393600C
:10218000C8E70F4A136823F00F0323431360FFF7D8
:102190002BFC06460A4B1B6803F00F03A342BFD07B
:1021A000FFF722FC801B41F288339842F2D90320CA
:1021B000DEE7012070470120DAE70120D8E700BF01
:1021C000002002400010024000B4C404C83B0008D4
:1021D0000C00002008000020014B1868704700BF69
:1021E0000C00002008B5FFF7F7FF054B9B68C3F311
:1021F0000223044AD35C03F01F03D84008BD00BF8C
:1022000000100240C03B000808B5FFF7E5FF054B92
:102210009B68C3F3C223044AD35C03F01F03D84076
:1022200008BD00BF00100240C03B0008F0B583B0FD
:102230000446036813F4002F6ED0354B9B6D13F0EA
:10224000805F1ED1324B9A6D42F080529A659B6D31
:1022500003F080530193019B01262E4A136843F437
:1022600080731360FFF7C0FB05462A4B1B6813F40D
:10227000807F08D1FFF7B8FB401B0228F5D9032562
:1022800002E00026E9E7002545BB214BD3F890305A
:1022900013F4407318D0226D9A4212D01C4AD2F81F
:1022A000903023F44073D2F8901041F48031C2F89A
:1022B0009010D2F8901021F48031C2F89010C2F83A
:1022C000903013F0010F10D145B9114AD2F8903077
:1022D00023F44073216D0B43C2F89030EEB10C4AE9
:1022E000936D23F08053936517E0FFF77DFB07465E
:1022F000074BD3F8903013F0020FE5D1FFF774FBD2
:10230000C01B41F288339842F2D90325DCE700BFB5
:1023100000100240007000400025236813F0010FF8
:1023200008D09F4AD2F8883023F0030361680B433A
:10233000C2F88830236813F0020F08D0984AD2F808
:10234000883023F00C03A1680B43C2F8883023685F
:1023500013F0040F08D0924AD2F8883023F03003EB
:10236000E1680B43C2F88830236813F0080F08D0E7
:102370008B4AD2F8883023F0C00321690B43C2F89E
:102380008830236813F0100F08D0854AD2F88830BF
:1023900023F4407361690B43C2F88830236813F05B
:1023A000200F08D07E4AD2F8883023F44063A16918
:1023B0000B43C2F88830236813F0400F08D0784AE6
:1023C000D2F8883023F44053E1690B43C2F88830D7
:1023D000236813F0800F08D0714AD2F8883023F4B4
:1023E0004043216A0B43C2F88830236813F4807F8E
:1023F00008D06B4AD2F8883023F44033616A0B432B
:10240000C2F88830236813F4003F08D0644AD2F839
:102410009C3023F00303A16A0B43C2F89C3023686D
:1024200013F4007F08D05E4AD2F8883023F44023AA
:10243000E16A0B43C2F88830236813F4806F0CD034
:10244000574AD2F8883023F44013216B0B43C2F86B
:102450008830236BB3F5801F79D0236813F4006FA5
:102460000CD04F4AD2F8883023F44003616B0B4301
:10247000C2F88830636BB3F5800F6DD0236813F416
:10248000805F0CD0464AD2F8883023F04073A16BAD
:102490000B43C2F88830A36BB3F1807F61D023680F
:1024A00013F4005F0CD03E4AD2F8883023F040632A
:1024B000E16B0B43C2F88830E36BB3F1006F55D08A
:1024C000236813F4804F0CD0354AD2F8883023F0BB
:1024D0004063216C0B43C2F88830236CB3F1006F6A
:1024E00049D0236813F4004F0CD02D4AD2F888301D
:1024F00023F04053616C0B43C2F88830636CB3F136
:10250000805F3DD0236813F4803F0CD0244AD2F87A
:10251000883023F04043A16C0B43C2F88830A36C91
:10252000B3F1804F31D0236813F4802F0CD01C4AB4
:10253000D2F89C3023F44013E16C0B43C2F89C307A
:10254000E36CB3F5001F25D0284603B0F0BDD36877
:1025500043F48013D36080E7D36843F48013D360DF
:102560008CE7D36843F48013D36098E7D36843F4CF
:102570008013D360A4E7D36843F48013D360B0E73B
:10258000D36843F48033D360BCE7D36843F480332B
:10259000D360C8E7D36843F48013D360D4E700BFA7
:1025A00000100240F0B583B0002366E085685E004D
:1025B0000324B44025EA0405CC68B4402C4384606D
:1025C000456825EA0C054C68C4F300149C402C4374
:1025D000446063E08C68012C65D173E0DD08083548
:1025E00050F8254003F0070C4FEA8C0C4FF00F0E0B
:1025F0000EFA0CFE24EA0E0E0C6904FA0CF444EAFE
:102600000E0440F8254062E0052400E0002404FAAE
:102610000EF42C430CF1020C564D45F82C40564C50
:10262000A568D44325EA02064F6817F4801F01D03D
:1026300042EA0506504DAE60ED6804EA05064F68B3
:1026400017F4001F01D042EA05064B4DEE606D689D
:1026500004EA05064F6817F4003F01D042EA050678
:10266000454D6E602D682C404E6816F4803F01D0B9
:1026700042EA0504404A146001330A6832FA03F45E
:1026800076D04FF0010C0CFA03FC1CEA0202F3D0E6
:102690004C6804F00304013C012C87D94C6804F019
:1026A0000304032C96D0C4684FEA430E4FF0030C8A
:1026B0000CFA0EFC24EA0C0C8C6804FA0EF444EAC2
:1026C0000C04C4604C6804F00304022C86D0046837
:1026D0004FEA430E4FF0030C0CFA0EFC24EA0C0CEC
:1026E0004C6804F0030404FA0EF444EA0C04046099
:1026F0004C6814F4403FBFD0204C256E45F00105D6
:102700002566246E04F001040194019C4FEA930CA9
:102710000CF10205174C54F8255003F0030E4FEA54
:102720008E0E0F2404FA0EF425EA0405B0F1904F42
:102730003FF46CAF124CA04212D004F58064A0426A
:1027400010D004F58064A0420ED004F58064A0424D
:102750000CD004F58064A0423FF456AF062456E73F
:10276000012454E7022452E7032450E704244EE7EF
:1027700003B0F0BD00000140000401400010024021
:10278000000400480369194201D00120704700206D
:1027900070470AB1816170478162704770B5044625
:1027A00083680269134342691343C2691343016892
:1027B0000868954A02401A430A602268536823F465
:1027C0004053E1680B435360A16922688F4B9A42E2
:1027D00001D0236A1943936823F06E4323F43063D6
:1027E0000B4393602268D36A23F00F03616A0B43A3
:1027F000D3622368864A934210D0864A934221D0FE
:10280000854A93424DD0854A93425DD0844A934293
:102810006CD07E4A93427ED010222BE002F55842C3
:10282000D2F8882002F00302032A09D8DFE802F078
:102830000204880601221DE004221BE0082219E0A0
:10284000102217E002F5E632D2F8882002F00C02DE
:102850000C2A0ED8DFE802F0070D0D0D090D0D0D45
:10286000760D0D0D0B00002204E0042202E0082288
:1028700000E0102265498B4200F08680E069B0F5E7
:10288000004F00F0D580082A00F23581DFE812F011
:1028900003011C01010133011F0133013301330125
:1028A000220102F5E432D2F8882002F03002202A18
:1028B0004AD005D8002A49D0102A49D10422D9E7A4
:1028C000302A47D10822D5E702F5E232D2F8882033
:1028D00002F0C002802A3FD004D8FAB3402A3FD188
:1028E0000422C7E7C02A3DD10822C3E702F5E0323F
:1028F000D2F8882002F44072B2F5007F34D005D8B7
:10290000A2B3B2F5807F33D10422B3E7B2F5407FA2
:1029100030D10822AEE702F5C832D2F8882002F49E
:102920004062B2F5006F27D005D83AB3B2F5806F98
:1029300026D104229EE7B2F5406F23D1082299E701
:10294000022297E7022295E7022293E7002291E70D
:1029500010228FE710228DE702228BE7002289E701
:10296000102287E7102285E7022283E7002281E711
:1029700010227FE710227DE702227BE7002279E721
:10298000102277E7102275E7082A00F2A680DFE818
:1029900002F008A410A40DA4A4A405004FF4004064
:1029A00008E0FFF71FFC28B90020A5E0FFF7D4FAE4
:1029B000F9E71C48626A1C4B33F81220B0FBF2F3B3
:1029C000656805EB4501994200F28980B3EB053F4C
:1029D00000F28780002633463146FDF771FC09027C
:1029E00041EA106100026B08C0182A46334641F1E3
:1029F0000001FDF765FCA0F540720C4B9A4272D8BD
:102A00002368D860304677E0F369FFCF008000404C
:102A1000003801400044004000480040004C0040A5
:102A2000005000400024F400A83B0008FFFC0F0009
:102A3000082A5AD8DFE802F0072705592A595959B8
:102A40000B00344803E0FFF7CDFB00284FD0626A4B
:102A5000314B33F81230B0FBF3F06268530803EBEC
:102A60004003B3FBF2F3A3F110014FF6EF72914272
:102A70003FD89AB222F00F02C3F3420313432268F5
:102A8000D360002038E0FFF7BFFBDEE7FFF764FA12
:102A9000DBE7204802E0FFF7A5FBB0B3626A1E4BFC
:102AA00033F81230B0FBF3F0636800EB5300B0FB77
:102AB000F3F0A0F110024FF6EF739A4227D8236883
:102AC00080B2D860002017E0FFF79EFBE5E7FFF734
:102AD00043FAE2E74FF40040E0E701200CE0012078
:102AE0000AE0012008E0012006E0012004E00020C7
:102AF00002E0012000E001200123A4F86A30A4F8DC
:102B0000683000232367636770BD0020F4E701206D
:102B1000F2E700BF0024F400A83B0008836A13F02A
:102B2000010F06D00268536823F40033C16A0B43D7
:102B30005360836A13F0020F06D00268536823F4CF
:102B40008033016B0B435360836A13F0040F06D08C
:102B50000268536823F48023416B0B435360836AFC
:102B600013F0080F06D00268536823F40043816B0A
:102B70000B435360836A13F0100F06D0026893680A
:102B800023F48053C16B0B439360836A13F0200FCF
:102B900006D00268936823F40053016C0B439360E2
:102BA000836A13F0400F0AD00268536823F480133D
:102BB000416C0B435360436CB3F5801F0BD0836AA9
:102BC00013F0800F06D00268536823F40023C16C11
:102BD0000B43536070470268536823F4C003816C51
:102BE0000B435360EBE72DE9F84305460F461646C5
:102BF0009946DDF820802B68DC6937EA04040CBFB5
:102C000001240024B44257D1B8F1FF3FF3D0FEF7BE
:102C1000EBFEA0EB090040452FD8B8F1000F2CD0F7
:102C20002B681A6812F0040FE5D0DA6912F4006F0D
:102C3000E1D04FF400621A622A6852E8003F23F4A0
:102C4000D07342E800310029F6D12A6802F1080366
:102C500053E8003F23F00103083242E80031002925
:102C6000F3D12023C5F88430C5F88830C5F88C30FE
:102C7000002385F8803003201FE02A6852E8003FD7
:102C800023F4D07342E800310029F6D12A6802F11A
:102C9000080353E8003F23F00103083242E8003103
:102CA0000029F3D12023C5F88430C5F888300023EB
:102CB00085F88030032000E00020BDE8F88330B5BF
:102CC00083B004460023C0F88C30FEF78DFE054625
:102CD0002268126812F0080F0FD123681B6813F0E6
:102CE000040F18D12023C4F88430C4F888300020A1
:102CF000E06684F8800003B030BD6FF07E4300933F
:102D0000034600224FF400112046FFF76CFF002815
:102D1000E3D00320EFE76FF07E4300932B460022C1
:102D20004FF480012046FFF75EFF0028DAD0032031
:102D3000E1E778B310B50446D0F884300BB3242310
:102D4000C4F884302268136823F00103136020461E
:102D5000FFF724FD012813D0A36ABBB9226853688A
:102D600023F4904353602268936823F02A0393600E
:102D70002268136843F0010313602046FFF79FFFAA
:102D800010BD80F88030FDF7B5FCD8E72046FFF78E
:102D9000C5FEE3E701207047002808DB0901C9B23E
:102DA00000F1604000F5614080F80013704700F0CA
:102DB0000F000901C9B2014B1954704714ED00E02E
:102DC00000B500F00700C0F1070CBCF1040F28BFEC
:102DD0004FF0040C031D062B0ED9C31E4FF0FF3E0F
:102DE0000EFA0CF021EA000199400EFA03FE22EAE5
:102DF0000E0241EA020000BD0023EFE7074AD36854
:102E000023F4E0631B041B0C000200F4E0600343A6
:102E100043F0BF6343F40033D360704700ED00E03C
:102E200010B50446054BD868C0F30220FFF7C8FF71
:102E300001462046FFF7B0FF10BD00BF00ED00E0E7
:102E40000138B0F1807F0BD24FF0E0235861054A82
:102E5000F02182F823100020986107221A61704740
:102E60000120704700ED00E0034AD2F8883043F4B7
:102E70007003C2F88830704700ED00E010B50346DB
:102E80000C4A0D490D48006840B10C4800680344E5
:102E9000521A934206D8094A136010BD0748084CDD
:102EA0000460F2E700F076F80C2303604FF0FF3087
:102EB000F3E700BF000002200004000040010020F2
:102EC000900200200D488546FFF7CEFF0C480D49C3
:102ED0000D4A002302E0D458C4500433C4188C4275
:102EE000F9D30A4A0A4C002301E013600432A242DB
:102EF000FBD300F055F8FDF7ABFBFEE70000022026
:102F000000000020600000201C3C00086000002041
:102F10008C020020FEE700000CB430B5184B0C1EEC
:102F20001D689DB008DA8B232B604FF0FF301DB079
:102F3000BDE8304002B070474FF40273ADF8143072
:102F40004FF000031B9314BF04F1FF332346049397
:102F500007934FF6FF7302900690ADF81630209A53
:102F600021AB02A92846019300F098F9431CBCBF8D
:102F70008B232B60002CDAD0029B00221A70D6E73C
:102F80001000002002440346934200D1704703F82A
:102F9000011BF9E7014B1868704700BF10000020C3
:102FA00070B50D4B0D4D5B1B9C100026A64209D140
:102FB00000F06EFC0A4D0B4B5B1B9C100026A642DA
:102FC00005D170BD55F8043B98470136EEE755F83A
:102FD000043B98470136F2E7143C0008143C000813
:102FE000143C0008183C00087047704738B5054687
:102FF000002941D051F8043C0C1F002BB8BFE41845
:1030000000F0E0F81D4A136833B963601460284685
:10301000BDE8384000F0DCB8A34208D92068211888
:103020008B4201BF19685B6809182160EDE71A46F9
:103030005B680BB1A342FAD911685018A0420BD1BA
:1030400020680144501883421160E0D118685B6821
:10305000536008441060DAE702D90C232B60D6E7EE
:10306000206821188B4204BF19685B68636004BF45
:10307000091821605460CAE738BD00BF88020020EB
:1030800070B50F4E0C463168054611B900F0ACFB27
:1030900030602146284600F0A7FB431C03D14FF0C7
:1030A000FF34204670BDC41C24F00304A042F8D0B5
:1030B000211A284600F098FB0130F2D1EFE700BF5B
:1030C000840200202DE9F843CD1C25F003050835C6
:1030D0000C2D38BF0C25002D064601DBA94204D972
:1030E0000C2333600020BDE8F883DFF8D48000F0C3
:1030F00069F8D8F800301C4644BB29463046FFF733
:10310000BFFF431C044658D1D8F800402746002F83
:1031100043D1002C4BD023683946304604EB0309D9
:1031200000F062FB814542D121686D1A2946304684
:10313000FFF7A6FF01303AD023682B442360D8F86C
:1031400000305A6862BBC8F800700FE02268521B5A
:1031500020D40B2A17D96119A342256018BF5960E2
:10316000636808BFC8F8001062514B60304600F039
:103170002FF804F10B00231D20F00700C21A1CBF1A
:103180001B1AA350AFE76268A3420CBFC8F8002027
:103190005A60EBE723466468AEE73C467F68B6E7D3
:1031A0001A465B68A342FBD100235360DEE70C2381
:1031B0003360304600F00CF894E70560D6E700BFB6
:1031C000880200200148FFF70FBF00BF80020020E7
:1031D0000148FFF70ABF00BF800200202DE9F04739
:1031E0008E681F46BE4282460C469046334653D8F0
:1031F000B1F90C0010F4906F2BD065692368096950
:1032000005EB4505A3EB010905EBD5757B1C6D109E
:103210004B44AB422A4684BF1D462A46430527D568
:1032200011465046FFF74EFF064658B321694A46FD
:1032300000F0EAFAA38923F4906343F08003A381AA
:10324000266165614E44A5EB09052660A5603E46F2
:103250003B461F4620683A46414600F0ABFAA36859
:103260009B1BA36023683B4423600020BDE8F087DC
:10327000504600F0D7FA06460028E1D121695046B1
:10328000FFF7B4FE0C23CAF80030A38943F04003D3
:10329000A3814FF0FF30E9E73E46DBE72DE9F04739
:1032A0001F468B891B069CB006460D46144610D55A
:1032B0000B6973B94021FFF705FF2860286130B919
:1032C0000C2333604FF0FF301CB0BDE8F087402383
:1032D0006B610023099320238DF829300397302355
:1032E000654F8DF82A304FF001082346994613F8B0
:1032F000012B0AB1252AF9D1B9EB040A0BD05346A8
:10330000224629463046FFF769FF013000F0A480CD
:10331000099A5244099299F80030002B00F09C80E1
:1033200000234FF0FF32CDE9052309F10109049391
:1033300007938DF853301A934C464F4814F8011BED
:103340000522FCF76DFF049BD0B9D80644BF2022AC
:103350008DF85320190744BF2B228DF8532099F87C
:1033600000202A2A13D0079A4C4600204FF00A0C5E
:10337000214611F8013B303B092B49D968B913E0CC
:10338000C01B08FA00F018430490A146D4E7039A42
:10339000111D12680391002A01DB079204E05242DA
:1033A00043F002030792049323782E2B0AD163780B
:1033B0002A2B32D1039B1A1D1B68039243EAE37345
:1033C00002340593DFF8C090217803224846FCF7C9
:1033D00027FF38B1049BA0EB090040228240134331
:1033E0000134049314F8011B24488DF82810062298
:1033F000FCF716FF002835D0214818BB039B073384
:1034000023F0070308330393099B034409936CE7F4
:103410000CFB02320C460120AAE70023013405937D
:1034200019464FF00A0C204610F8012B303A092AB1
:1034300003D9002BC6D00591C4E70CFB012104463B
:103440000123F0E703AB00932A460E4B04A9304654
:10345000AFF30080421CD7D1AB895B063FF532AF9A
:10346000099831E703AB00932A46064B04A930467E
:1034700000F07AF8EEE700BFD83B0008E23B000816
:1034800000000000DD310008DE3B00082DE9F047B8
:10349000164698468A680B69DDF820909342B8BFBB
:1034A0001346336091F8432007460C460AB10133B6
:1034B00033602368990642BF33680233336025685E
:1034C00015F0060506D104F1190AE36832689B1A63
:1034D000AB4226DC94F843302268003B18BF01233E
:1034E00092062BD404F1430241463846C8470130C6
:1034F0001ED02368226903F00603042B02BFE5688F
:103500003368ED1AA3680CBF25EAE57500259342E0
:10351000C4BF9B1AED1800261A34B5421AD10020F8
:1035200008E00123524641463846C847013003D1DE
:103530004FF0FF30BDE8F0870135C6E7E1185A1CAF
:10354000302081F84300224494F8451082F843105B
:103550000233C7E70123224641463846C8470130B7
:10356000E6D00136D9E700002DE9F0430D7E85B0A5
:10357000782D90460C9E07460C46994601F1430271
:1035800007D8622D0AD8002D00F0D780582D00F002
:10359000BC8004F1420684F842503BE0A5F163038D
:1035A000152BF6D801A151F823F000BF053600080D
:1035B0001936000893350008933500089335000844
:1035C0009335000819360008933500089335000834
:1035D000933500089335000821370008433600086A
:1035E000D3360008933500089335000843370008A8
:1035F00093350008433600089335000893350008DA
:10360000DB36000833681A1D1B68326004F142067D
:1036100084F842300123A1E033682068191D31602D
:10362000060601D51D6803E04506FBD5B3F9005039
:10363000002D03DA2D236D4284F843305B480A23C2
:1036400011E021683368080653F8045B02D4490688
:1036500048BFADB23360237E54486F2B5CD1082342
:10366000002184F843106668A660002E05DB2168FF
:103670002E4321F00401216050D01646B5FBF3F132
:1036800003FB115C10F80CC006F801CDAC46634595
:103690000D46F3D9082B0BD12368DB0708D5236926
:1036A00061689942DEBF302306F8013C06F1FF361F
:1036B000921B2261CDF80090434603AA214638466A
:1036C000FFF7E4FE01304ED14FF0FF3005B0BDE80A
:1036D000F083236843F0200323603548782584F87D
:1036E00045502368316813F0800F51F8045B03D113
:1036F00013F0400F18BFADB23160D90744BF43F09B
:10370000200323601DB11023AAE72848E7E72368B8
:1037100023F020032360F6E70A23A1E71646B9E762
:10372000336825686169181D30602E061B6801D555
:10373000196002E06806FBD5198000232361164654
:10374000B8E733681A1D32601E686268002130468F
:10375000FCF766FD08B1801B60606368236100238D
:1037600084F84330A6E72369324641463846C847C5
:103770000130A9D023689B0713D4E068039B9842CB
:10378000B8BF1846A2E70123324641463846C8472B
:10379000013099D00135E36803995B1AAB42F2DC42
:1037A000EBE7002504F11906F5E700BFE93B000847
:1037B000FA3B0008884210B501EB020402D98442AA
:1037C000234607D8431EA14207D011F8012B03F866
:1037D000012FF8E70244824200D110BD13F8011D09
:1037E00002F8011DF7E7000038B5064D0023044636
:1037F00008462B60FFF742FB431C02D12B6803B144
:10380000236038BD7C0200200A44914200F1FF335E
:1038100000D1704710B511F8014B03F8014F9142E8
:10382000F9D110BD2DE9F041074614460D4621B9E6
:10383000BDE8F0411146FFF745BC2AB9FFF7D6FBBA
:1038400025462846BDE8F08100F01AF88442064675
:1038500002D8B4EB500FF4D821463846FFF732FCBB
:10386000804608B94546ECE7B4422246294628BFBF
:103870003246FFF7C9FF29463846FFF7B7FBF1E7A5
:1038800051F8043C181F002BBCBF0B58C0187047E0
:10389000F8B500BFF8BC08BC9E467047F8B500BF3D
:0838A000F8BC08BC9E4670470D
:1038A8004F4E00005741544552204C4F57000000DE
:1038B80053454E534F522045525200004F46460042
:1038C8002D0000002573202573256C642E256C645B
:1038D8002025730053544D3332473437342048750C
:1038E8006D6964696669657200000000426F6F74F3
:1038F800696E672E2E2E00004D6973743A204F466C
:103908004600000046616E203A204F4646000000FF
:1039180054656D703A0000004300000048756D69F9
:103928003A0000002500000054656D703A202D2DE6
:103938002E2D20430000000048756D693A202D2D7A
:103948002E2D20250000000057617465723A204F23
:103958004B00000057617465723A204C4F570000C5
:1039680057617465723A20554E4B4E4F574E0000C2
:103978004D6973743A2025730000000046616E207B
:103988003A2025730000000053746174653A2025BD
:103998007300000053746174653A2053454E534FC9
:1039A800522045525200000053746174653A205702
:1039B80041544552204C4F5700000000BE080000FB
:1039C800AC330000000000000000005F00000007AA
:1039D800000700147F147F14242A7F2A1223130857
:1039E800646236495522500005030000001C22413C
:1039F800000041221C0014083E081408083E08086C
:103A08000050300000080808080800606000002026
:103A1800100804023E5149453E00427F4000426181
:103A28005149462141454B311814127F102745450D
:103A380045393C4A49493001710905033649494924
:103A480036064949291E0036360000005636000061
:103A580008142241001414141414004122140802FA
:103A680001510906324979413E7E1111117E7F4983
:103A78004949363E414141227F4141221C7F494903
:103A880049417F090909013E4149497A7F080808E7
:103A98007F00417F41002040413F017F08142241BF
:103AA8007F404040407F020C027F7F0408107F3E29
:103AB8004141413E7F090909063E4151215E7F0986
:103AC800192946464949493101017F01013F4040D2
:103AD800403F1F2040201F3F4038403F63140814D8
:103AE8006307087008076151494543007F41410059
:103AF80002040810200041417F0004020102044032
:103B080040404040000102040020545454787F484B
:103B18004444383844444420384444487F38545452
:103B28005418087E0901020C5252523E7F080404C0
:103B38007800447D40002040443D007F1028440028
:103B480000417F40007C041804787C08040478381D
:103B5800444444387C14141408081414187C7C0851
:103B68000404084854545420043F4440203C404036
:103B7800207C1C2040201C3C4030403C442810281D
:103B8800440C5050503C4464544C440008364100A6
:103B980000007F0000004136080008082A1C0800C1
:103BA800010002000400060008000A000C001000D2
:103BB8002000400080000001000000000102030412
:103BC80000000000000000000102030406070809C5
:103BD800232D302B2000686C4C00656667454647EE
:103BE8000030313233343536373839414243444571
:103BF80046003031323334353637383961626364E0
:043C080065660000ED
:083C0C0014C6FF7F0100000057
:043C1400050200089D
:043C1800E1010008BE
:103C1C000201000001000000100000000024F4006C
:103C2C00140000200000000044010020AC01002022
:103C3C001402002000000000000000000000000042
:103C4C000000000000000000000000000000000068
:103C5C000000000000000000000000000000000058
:103C6C000000000000000000000000000000000048
:0400000508002EC5FC
:00000001FF
