:020000040800F2
:100000000000022041C50308071A0008091A000869
:100010000B1A00080D1A00080F1A00080000000053
:10002000000000000000000000000000111A00089D
:10003000131A000800000000151A0008171A00081B
:1000400091C5030891C5030891C5030891C503082C
:1000500091C5030891C5030891C5030891C503081C
:1000600091C5030891C5030891C5030891C503080C
:1000700091C5030891C5030891C5030891C50308FC
:1000800091C5030891C5030891C5030891C50308EC
:1000900091C5030891C5030891C5030891C50308DC
:1000A00091C5030891C5030891C5030891C50308CC
:1000B00091C5030891C5030891C5030891C50308BC
:1000C00091C5030891C5030891C5030891C50308AC
:1000D00091C5030891C5030891C5030891C503089C
:1000E00091C5030891C5030891C5030891C503088C
:1000F00091C5030891C5030891C5030891C503087C
:1001000091C5030891C5030891C5030891C503086B
:1001100091C5030891C5030891C5030891C503085B
:1001200091C5030891C5030891C5030891C503084B
:1001300091C5030891C5030891C5030891C503083B
:1001400091C5030891C5030891C5030891C503082B
:1001500091C5030891C5030891C5030891C503081B
:1001600091C5030891C5030891C5030891C503080B
:1001700091C5030891C5030891C5030891C50308FB
:1001800091C5030891C5030891C5030891C50308EB
:1001900091C503080000000091C5030891C503083C
:1001A00091C5030891C5030891C5030891C50308CB
:1001B00091C5030891C5030891C5030891C50308BB
:1001C00091C5030891C5030891C5030891C50308AB
:0801D00091C5030891C5030865
:1001E00010B5054C237833B9044B13B10448AFF371
:1001F00000800123237010BDAC000020000000002F
:100200000CCF030808B5034B1BB103490348AFF3F8
:10021000008008BD00000000B00000200CCF0308E3
:1002200001F0FF01102A2BDB10F0070F08D010F8A7
:10023000013B013A8B422DD010F0070F42B3F6D1AB
:10024000F0B441EA012141EA014122F007047FF0C4
:1002500000070023F0E80256083C85EA010586EA1B
:10026000010685FA47F5A3FA87F586FA47F6A5FA57
:1002700087F68EB9EED1F0BC01F0FF0102F0070263
:1002800032B110F8013B013A83EA010313B1F8D10E
:100290000020704701387047002D06BF35460338EF
:1002A000073815F0010F07D1013015F4807F02BF28
:1002B000013015F4C03F0130F0BC0138704700BF79
:1002C0007BB972B90029BEBF00204FF0004106E0A3
:1002D00008BF00281CBF6FF000414FF0FF3000F056
:1002E000D3B9ADF1080C6DE904CE002909DB002B70
:1002F0001ADB00F04DF8DDF804E0DDE9022304B07C
:100300007047404261EB4101002B1BDB00F040F8DD
:10031000DDF804E0DDE9022304B0404261EB410175
:10032000524263EB43037047524263EB430300F0D6
:100330002FF8DDF804E0DDE9022304B0404261EB70
:1003400041017047524263EB430300F021F8DDF8AE
:1003500004E0DDE9022304B0524263EB430370473B
:1003600053B94AB9002908BF00281CBF4FF0FF311C
:100370004FF0FF3000F088B9ADF1080C6DE904CE04
:1003800000F006F8DDF804E0DDE9022304B0704770
:100390002DE9F047089D0F4604468C46002B48D1B6
:1003A0008A42164661D9B2FA82F34BB1C3F12002F8
:1003B00001FA03FC20FA02F29E4042EA0C0C9C4037
:1003C0004FEA164EB7B2BCFBFEF1220C0EFB11CC6D
:1003D00042EA0C4201FB07F0904209D9B21801F140
:1003E000FF3C80F0EE80904240F2EB8002393244D4
:1003F000121AA4B2B2FBFEF00EFB102244EA024431
:1004000000FB07F7A74209D9341900F1FF3280F049
:10041000DA80A74240F2D7803444023840EA0140F3
:10042000E41B00211DB1DC400023C5E90043BDE809
:10043000F0878B4206D90DB1C5E9000100210846BD
:10044000BDE8F087B3FA83F1002948D1BB4202D35B
:10045000824200F20781841A67EB0302012094466E
:10046000002DE4D0C5E9004CE1E7002A00F09280BD
:10047000B2FA82F3002B40F0A8808A1A4FEA164E97
:100480001FFA86FC0121200CB2FBFEF70EFB17229F
:1004900040EA02420CFB07F0904207D9B21807F17C
:1004A000FF3802D2904200F2E2804746121AA4B20C
:1004B000B2FBFEF00EFB102244EA02440CFB00FCEF
:1004C000A44507D9341900F1FF3202D2A44500F245
:1004D000CB801046A4EB0C0440EA0740A2E7C1F130
:1004E00020068B4022FA06FC4CEA030C07FA01F4C2
:1004F00020FA06F3F7404FEA1C49234300FA01F8BB
:100500001FFA8CFEB7FBF9F01C0C09FB107744EACC
:10051000074400FB0EF7A74202FA01F20AD91CEBCE
:10052000040400F1FF3A80F09B80A74240F29880DB
:1005300002386444E41B9FB2B4FBF9F309FB134493
:1005400047EA044403FB0EFEA64509D91CEB04044C
:1005500003F1FF3780F08280A6457FD9023B6444D7
:1005600043EA0040A4EB0E04A0FB02E7BC42734642
:10057000B94663D360D05DB1B8EB030264EB090404
:1005800004FA06F622FA01F31E43CC40C5E90064E2
:1005900000214CE76208480842EAC1710B0C43EAAB
:1005A00000438AB242EA0342B3FBF6F1E407B446E1
:1005B0003746B6461F23B0FBF6F0D21B41EA004196
:1005C00061E7614614E7104628E7C3F1200120FAED
:1005D00001F29E4027FA01F19F403A434FEA164E3E
:1005E0001FFA86FCB1FBFEF70EFB1710110C41EA57
:1005F000004107FB0CF8884504FA03F43AD9711856
:1006000007F1FF3001D288451FD8A1EB0801B1FBEB
:10061000FEF808FB0CF70EFB181192B242EA0142F9
:10062000BA422FD2B21808F1FF31C6D2BA42C4D2B0
:10063000A8F102013244C0E7F0459CD2BEEB0203B0
:1006400067EB0C070138B94695E7A6EB080841446B
:10065000B81EB1FBFEF808FB0CF7DCE73B467FE772
:10066000504667E70846FBE63444023832E7023F6B
:1006700032441BE7A1EB08013846B1FBFEF808FB4A
:100680000CF7C8E7414698E7704700BF72B6FEE72F
:1006900030B595B006AD3822002128463BF0B0FFBA
:1006A0000024019402940394049405944FF4007080
:1006B00001F0D2F9022306934FF48073099340238B
:1006C0000A930D94284601F0DFFA68B90F230193CD
:1006D00001230293002103910491059101A801F0E7
:1006E00089FD18B915B030BDFFF7D0FFFFF7CEFF79
:1006F00008B501F067FAFFF7CBFF00F003F800F050
:100700004BF8FEE782B0064BDA6C42F00102DA6485
:10071000DB6C03F001030193019B02B0704700BF43
:100720000010024070B5054616460A890888141A5A
:10073000A4B20134A4B28B898988A3EB010C1FFAFF
:100740008CFC0CF1010C1FFA8CFC0CFB04F400F087
:1007500091FD2146304600F09AFD28460AF067FBDD
:1007600070BD000010B582B04FF4A071AC200AF04B
:10077000ABFB044606490AF0D5FA002200924FF47A
:10078000D753044920460AF0E6FA02B010BD00BF74
:1007900025070008C800002008B500F0DBFA00F0CB
:1007A000C1FC38B100F0F0FA00F0A6FB052001F022
:1007B0002BFAF9E700F0D0FC00F0EEFC00F09CFB17
:1007C000052001F021FAF7E700487047D01B002010
:1007D00000487047AC1B002070B50E4E34460E4DDD
:1007E0000FCD0FC40FCD0FC42B68236000F096FC13
:1007F000F0610A4DAC460A4C0FCCACE80F000FCCB0
:10080000ACE80F002368CCF8003000F087FCE8610A
:1008100070BD00BFD01B002088F70308AC1B002070
:10082000D82C040870B504460D46164608F083FC23
:1008300032462946204608F088FC324629462046A2
:1008400008F065FC32462946204608F06AFC70BD77
:1008500000B583B00FF0BBF98DF80400C0F3072397
:100860008DF80530C0F307408DF8060000209DF894
:10087000043063F307009DF8053063F30F209DF803
:10088000063063F3174003B000BD10B504460221E3
:1008900002F0C6FD1021204602F0C2FD00212046D4
:1008A00006F0F2F910BD0000F0B583B00E46174611
:1008B0001D4602F02FFD044608F038F83A4631464E
:1008C000204604F0C9FC089A2946204604F002FD9F
:1008D0002B48FFF7BDFF8DF80000C0F307238DF80C
:1008E0000130C0F307408DF8020000220099204635
:1008F00008F035FC0022FF21204608F041FC214889
:10090000FFF7A6FF8DF80400C0F307238DF805302C
:10091000C0F307408DF8060000220199204608F038
:1009200043FC00220121204608F059FC0022FF214F
:10093000204608F04AFC00220821204608F092FCDC
:10094000002211462046FFF76DFF00221146204687
:1009500008F0F1FB00221146204608F0F6FB0022C9
:100960001146204608F0D3FB00221146204608F02D
:10097000D8FB2046FFF789FF204603B0F0BD00BF3B
:100980001F1107007050240010B582B01749184B92
:10099000186827F0F1F91749174B186827F0ECF998
:1009A000164C1749206827F0E7F924681548FFF727
:1009B0004FFF8DF80400C0F307238DF80530C0F316
:1009C00007408DF8060000220199204608F011FC2E
:1009D0000D490E4B186827F0CFF900223C210C4B33
:1009E000186821F04BFA02B010BD00BF4CCF0308CD
:1009F000041C00205CCF0308001C0020FC1B00200E
:100A00006CCF03084CD976007CCF0308F81B00207C
:100A1000F41B0020F0B583B00F4616461D4627F0A4
:100A20009FF90446394627F0A7F90421204627F00C
:100A3000F9F9099A0899204604F00EFC0B9A0A99D4
:100A4000204604F047FC00221146204608F098FB9F
:100A50003046FFF7FDFE8DF80400C0F307238DF844
:100A60000530C0F307408DF80600002201992046AA
:100A700008F0BFFB00222946204608F0CBFB0022ED
:100A80009DF83010204608F0E3FB00221146204676
:100A900008F0CAFB00221146204608F0CFFB204692
:100AA000FFF7F3FE204603B0F0BD00002DE9F04F44
:100AB0008DB00AF0D8FB044607F038FF4FF4A0725F
:100AC000AC21204604F006FC9048FFF7C1FE8DF8EB
:100AD0002400C0F307238DF82530C0F307408DF8BC
:100AE000260000220999204608F039FB0022FF2148
:100AF000204608F045FB002211462046FFF792FEF3
:100B00002046FFF7C2FEFFF75FFE0646DFF8409281
:100B1000022704974FF0180BCDF80CB0AC230293CA
:100B20000F2301930025009503464A467849204645
:100B3000FFF770FF48230093A023342206212046AC
:100B4000FFF7B2FE079004974FF0160ACDF80CA0FD
:100B50004FF0A008CDF808800C2301930095334690
:100B60006C4A6D49FFF756FF6C4B18600497CDF83F
:100B70000CA0CDF808802A23019300953346684ADB
:100B800068490798FFF746FF674B186034230093C6
:100B90004346882206212046FFF786FE0497CDF8BB
:100BA0000CB0CDF808804FF0140ACDF804A00095E1
:100BB00033465B4A5D49FFF72DFF5D4B18606823A4
:100BC00000934346C82206212046FFF76DFE0446E7
:100BD0000497CDF80CB0CDF808801123019300954F
:100BE00033464A465349FFF715FF534B18602046DA
:100BF00021F038F9514E306030220E2104F02CFBE8
:100C00000A228421306804F065FB5A221E213068D4
:100C100021F0CDF92A463C21306821F02FF9D6F891
:100C200000804748FFF714FE8DF82800C0F3072323
:100C30008DF82930C0F307408DF82A002A460A991A
:100C4000404608F08CFA2A46FF21306808F098FAEE
:100C5000D6F800802F48FFF7FBFD8DF82C00C0F37D
:100C600007238DF82D30C0F307408DF82E004FF488
:100C700000320B99404608F072FA4FF40032FF211F
:100C8000306808F07DFA2A460421306808F0EAFA54
:100C90004FF400320421306808F0E4FA3068FFF7BE
:100CA000F4FDFFF795FD054601230493CDF80CA054
:100CB0004FF02808CDF808804426019608230093B9
:100CC00003464A461F492046FFF7A4FE0497CDF885
:100CD0000CA0CDF8088001963C2300932B464A4691
:100CE00019492046FFF796FE03230493CDF80CA084
:100CF000CDF8088001966D2300932B464A46134990
:100D00002046FFF787FE0DB0BDE8F08F0C0703000B
:100D100088CF0308FF863F004CCF0308041C002047
:100D20004CD976005CCF0308001C00206CCF030870
:100D3000FC1B00207CCF0308F81B0020F41B0020C4
:100D40003C342D0098CF030884CF03089CCF0308C0
:100D5000FFF9F40008B500F0E1FA01F001FD0848E0
:100D600011F0B6FDFFF7FEFCFFF736FDFFF79EFE24
:100D7000044B01221A70FFF707FE11F0E9FB08BDD2
:100D8000FD1B0008A81B00201B4B1B7803B97047F4
:100D900030B583B019491A4B186826F0EDFF194990
:100DA000194B186826F0E8FF184C256800F03EF94A
:100DB0000146284626F0E0FF24681548FFF748FD65
:100DC0008DF80400C0F307238DF80530C0F3074009
:100DD0008DF8060000220199204608F00AFA0D4914
:100DE0000D4B186826F0C8FF00223C210B4B1868F9
:100DF00021F044F803B030BDA81B0020A0CF0308A9
:100E0000041C0020B0CF0308001C0020FC1B0020A5
:100E10004D4DFF007CCF0308F81B0020F41B002081
:100E200030B591B000230C930D930E930693079366
:100E3000089309930A930B930093019302930393EE
:100E400004930593234B1B780BB911B030BD0CA84C
:100E500000F0BCF900283AD106AD9DED0C0A18212E
:100E6000284600F0A7F89DED0D0A1821684600F00D
:100E7000BFF82946184B186826F07EFF6946174BC5
:100E8000186826F079FF164C1649206826F074FF82
:100E900024681548FFF7DCFC8DF83C00C0F30723FD
:100EA0008DF83D30C0F307408DF83E0000220F99C9
:100EB000204608F09EF90D490D4B186826F05CFF9E
:100EC00000223C210B4B186820F0D8FFBDE7FFF74C
:100ED0005BFFBAE7A81B0020041C0020001C0020B8
:100EE000FC1B00206CCF03084CD976007CCF030894
:100EF000F81B0020F41B002008B5044B1B7803B935
:100F000008BDFFF78DFF11F023FBF9E7A81B0020B8
:100F1000B5EEC00AF1EE10FA0CDAF2EE047A20EE29
:100F2000270AF6EE007A30EE670ABDEEC00A10EE30
:100F3000100A7047F2EE047A20EE270AF6EE007AE5
:100F400030EE270ABDEEC00AF1E7000058B310B535
:100F500082B01C468646002A12DB134B83FB020339
:100F60004FEAE27CCCEBA303019403EB8300A2EBFA
:100F7000400200920D4A70463BF00CFB02B010BDDF
:100F80005242094B83FB02034FEAE27CCCEBA30302
:100F9000019403EB8300A2EB40020092044A7046E6
:100FA0003BF0F8FAEAE7704767666666CCCF03085D
:100FB000C0CF030870B584B000230193029303935C
:100FC00080B10C460646FFF7A3FF024601AD064B73
:100FD0000C212846FFF7BAFF2B46044A214630462B
:100FE0003BF0D8FA04B070BDACCF0308D4CF0308EF
:100FF00070B584B0002301930293039380B10C4633
:101000000646FFF785FF024601AD064B0C21284638
:10101000FFF79CFF2B46044A214630463BF0BAFAC4
:1010200004B070BDBCCF0308E0CF03080048704790
:10103000ECCF030800231D2B08D8064A52F83320B2
:10104000824201D00133F6E7184670474FF0FF3077
:10105000704700BF64D8030801B310B510460C46B2
:10106000FFF7E8FF00281BDB1022A280E28022812C
:10107000002363814FF6FE71A181E2810822227470
:10108000627C63F300026274D2B263F34102627461
:1010900063610130A061E361012010BD0020704751
:1010A0000020FAE798B330B50C46836983B31E2B52
:1010B00030D8013B184A02EBC303586831B30B69BF
:1010C00023B3098901B9102100221AE001FB023C77
:1010D0004FF0000E256905F80CE001339942F5D870
:1010E00000230AE003EB021E01FB023C10F80EE0B5
:1010F000256905F80CE00133DBB20F2BF2D9013280
:10110000D2B20F2A01D80023E8E7206930BD70472A
:101110000020FBE70020F9E764D803080048704787
:1011200040D8030808B5094A002313605360002320
:101130001372074A1370074A136000F03FF918B999
:10114000034B01221A7008BD0120FCE7101C00208F
:101150000C1C0020081C002000B583B00023009365
:1011600001930B4B1B788BB1684600F0D3F940B963
:10117000084B009A1A60019A5A6001221A7203B051
:1011800000BD044B00221A720320F8E70220F6E7A4
:101190000C1C0020101C002008B500F02FFD094B8E
:1011A0001B7863B1084B1B68C31AB3F5FA6F01D201
:1011B000002008BD044B1860FFF7CEFFF9E70220BE
:1011C000F7E700BF0C1C0020081C0020034650B1AC
:1011D000074A127A4AB10649086818604968596096
:1011E0001A7200207047012070470120704700BF2D
:1011F000101C002010B50446000A00F086FAE0B288
:1012000000F083FA10BDF8B50E461F46AB2800D992
:10121000AB20AB2A00D9AB22B6F5A07F01D340F2B8
:101220003F16B7F5A07F01D340F23F17904202D896
:10123000134602461846BE4202D83B4637461E4673
:10124000223295B2223084B22A2000F052FA284687
:10125000FFF7D0FF2046FFF7CDFF2B2000F049FA23
:101260003846FFF7C7FF3046FFF7C4FF2C2000F0D9
:1012700040FAF8BD08B5FFF7C6FF08BD10B5044633
:10128000000A00F042FAE0B200F03FFA10BD70B57B
:1012900006460D46002404E036F81400FFF7EEFF82
:1012A0000134AC42F8D370BD70B5BDF8106042B3E4
:1012B0001C4615462BB3AB2823D8B1F5A07F20D20E
:1012C0008318AC2B02D9C0F1AC05ADB20B19B3F544
:1012D000A07F02D9C1F5A074A4B22A1892B2013A33
:1012E00063189BB2013B9BB292B2FFF78CFF04FBE9
:1012F00005F5002403E03046FFF7C0FF0134AC429F
:10130000F9D370BD00B583B000904FF4A073AC2248
:1013100000210846FFF7C8FF03B000BD08B500F084
:1013200083F900F0DAF9112000F0E3F9782000F0F9
:101330006BFC132000F0DDF93A2000F0DAF95520BB
:1013400000F0E3F9362000F0D4F9002000F0DDF9D8
:10135000212000F0CEF9292000F0CBF9142000F074
:1013600053FC0020FFF7CEFF08BD10B582B07123FB
:101370008DF8073098B1044601220DF1070138209D
:1013800000F0EBFA10B1012002B010BD012221469D
:10139000382000F00AFB0028F6D00120F4E70120F5
:1013A000F2E710F0800F01D1002070470120704754
:1013B00010F0080000D170470120FCE710B582B0A2
:1013C00000238DF8073000F0D7F9282000F01CFC2E
:1013D0000DF10700FFF7C9FF40BB04469DF8070069
:1013E000FFF7E6FF10B1204602B010BD104B1B689E
:1013F000ADF804301B0C8DF80630032201A938200B
:1014000000F0ABFA08B10124EDE70A2000F0FCFB84
:101410000DF10700FFF7A9FF04460028F3D19DF85E
:101420000700FFF7C5FF0028DDD1ECE70124DAE76C
:10143000FCCF030800B583B0084B1B68ADF804303F
:101440001B0C8DF80630032201A9382000F085FA24
:1014500008B903B000BD0120FBE700BF00D00308BE
:10146000B0B110B50446FFF7E5FF08B1012010BD8B
:10147000502000F0C9FB06222146382000F095FAE2
:1014800040B92078FFF78DFF0028F0D00120EEE76B
:10149000012070470120EAE780B389B3437882785E
:1014A000120142EA0332C37842EA131207EE102A0D
:1014B0001B0403F47023027943EA022342791343A5
:1014C00007EE903AB8EE477ADFED0E6A27EE267AFD
:1014D0009FED0D6A27EE067A81ED017AF8EE677AC4
:1014E00067EEA67A9FED097A67EE877A9FED087A14
:1014F00077EEC77AC1ED007A00207047012070476F
:1015000001207047000080350000C84200004843B9
:101510000000484210B582B000230093ADF80430BB
:1015200078B104466846FFF79BFF10B1012002B076
:1015300010BD21466846FFF7AFFF0028F7D0012015
:10154000F5E70120F3E782B00823019303E000BF31
:10155000019B013B0193019B002BF8D102B0704726
:1015600008B501224FF48061014801F036F808BD4A
:101570000004004808B500224FF48061014801F0E2
:101580002CF808BD0004004808B501224FF40061A2
:10159000014801F022F808BD0004004808B5002207
:1015A0004FF40061014801F018F808BD000400483C
:1015B00008B501224FF48051014801F00EF808BD32
:1015C0000004004808B500224FF48051014801F0A2
:1015D00004F808BD0004004808B501224FF400518A
:1015E000014800F0FAFF08BD0004004808B50022D9
:1015F0004FF40051014800F0F0FF08BD000400481E
:1016000008B501224FF40041014800F0E6FF08BD93
:101610000004004808B500224FF40041014800F0E2
:10162000DCFF08BD00040048F0B587B001AC002520
:1016300001950295039504950595164BDA6C42F0D9
:101640000202DA64DB6C03F002030093009B4FF4A8
:10165000E05301930126029604960F4F2146384627
:1016600000F0C4FE4FF42043019302960395022339
:1016700004932146384600F0B9FEFFF771FFFFF7EB
:1016800097FFFFF78BFFFFF7B1FFFFF7C3FF07B02F
:10169000F0BD00BF001002400004004808B550B182
:1016A000FFF7AEFFFFF798FFFFF74DFFFFF79EFF35
:1016B000FFF749FF08BDFFF7ADFFF3E738B5044674
:1016C000002507E004F08000FFF7E8FF6400E4B2C3
:1016D0000135EDB2072DF5D938BD08B5FFF74AFF42
:1016E000142000F091FAFFF73BFF782000F08CFA0D
:1016F00008BD10B50446FFF751FFFFF763FF204612
:10170000FFF7DCFFFFF754FF10BD10B50446FFF7ED
:101710003BFFFFF757FF2046FFF7D0FFFFF748FFDB
:1017200010BD82B00023019303E000BF019B013391
:101730000193019B312BF8D902B0704708B5012203
:101740004021024800F049FF08BD00BF00040048E6
:1017500008B500224021024800F03FFF08BD00BF4D
:101760000004004808B501228021024800F035FF3E
:1017700008BD00BF0004004830B587B001AC0023AD
:101780000193029303930493059303F1804303F5BC
:101790000433DA6C42F00202DA64DB6C03F0020319
:1017A0000093009B0E4D01224021284600F015FFBA
:1017B00001228021284600F010FFC023019311234D
:1017C000029301230393022304932146284600F049
:1017D0000DFEFFF7B3FFFFF7C5FF07B030BD00BF39
:1017E0000004004808B500228021024800F0F5FE00
:1017F00008BD00BF0004004808B58021034800F080
:10180000E5FE012800D0002008BD00BF000400480C
:1018100008B5FFF7A7FFFFF791FFFFF782FFFFF77C
:10182000E1FFFFF77EFFFFF793FFFFF77AFF08BDA9
:1018300008B5FFF7D7FFFFF774FFFFF77FFFFFF74C
:1018400070FFFFF78FFFFFF76CFF08BD10B5044670
:10185000FFF77EFF64B1FFF785FFFFF762FFFFF739
:101860006DFFFFF75EFFFFF773FFFFF75AFF10BD35
:10187000FFF7B8FFF1E710B5FFF76AFFFFF772FF58
:10188000FFF74FFFFFF75AFFFFF74BFFFFF7B4FFDC
:101890000446FFF75DFFFFF744FF204610BD10B57B
:1018A000FFF760FFFFF73DFFFFF748FFFFF739FF46
:1018B000FFF7A2FF044600B10124FFF749FFFFF73D
:1018C00030FF204610BD08B5FFF742FFFFF78AFF43
:1018D000FFF727FFFFF732FFFFF723FFFFF738FF80
:1018E000FFF71FFFFFF73EFF08BD08B5FFF730FF0A
:1018F000FFF738FFFFF715FFFFF720FFFFF711FF96
:10190000FFF726FFFFF70DFF08BD38B50446002599
:1019100007E004F08000FFF799FF6400E4B20135AE
:10192000EDB2072DF5D9FFF7BAFF38BD70B5064601
:1019300000252C4607E06400E4B2FFF79CFF044357
:10194000E4B20135EDB2072DF5D91EB1FFF7BBFFAB
:10195000204670BDFFF7C9FFFAE7F8B50446154603
:101960000E4691B1FFF754FF600000F0FE00FFF754
:10197000CCFF074668B90024AC4212D2305DFFF7B5
:10198000C4FF50B90134A4B2F6E7002AEAD0012717
:1019900009E0FFF74DFF012705E0FFF749FF0127A9
:1019A00001E0FFF745FF3846F8BD2DE9F04122B3CD
:1019B00004460F46164619B3FFF72AFF6000C0B26F
:1019C00040F00100FFF7A1FF804608B900240DE0B8
:1019D000FFF72EFF4FF001080CE0651CB5422CBF4D
:1019E00000200120FFF7A2FF3855ACB2B442F4D377
:1019F000FFF71EFF4046BDE8F0814FF00008F9E711
:101A00004FF00108F6E7FEE7FEE7FEE7FEE7FEE738
:101A100070477047704708B500F0E4F808BD000053
:101A200000B583B00B4B1A6E42F001021A661A6EB3
:101A300002F001020092009A9A6D42F080529A657B
:101A40009B6D03F080530193019B00F08BF803B072
:101A500000BD00BF00100240002836D13E4B1B687D
:101A600003F4C063B3F5806F08D03B4AD2F88030EE
:101A700023F48073C2F8803000207047364AD2F8D1
:101A8000803023F48073C2F88030136823F4C0637D
:101A900043F400731360314B1B68322202FB03F3E3
:101AA0002F4AA2FB03239B0C013300E0013B2A4A8F
:101AB000526912F4806F01D0002BF7D1264B5B697D
:101AC00013F4806F44D100207047B0F5007F08D038
:101AD000214A136823F4C06343F480631360002039
:101AE00070471D4B1B6803F4C063B3F5806F08D0CB
:101AF000194AD2F8803043F48073C2F88030002055
:101B00007047154AD2F8803043F48073C2F88030B1
:101B1000136823F4C06343F4007313600F4B1B6816
:101B2000322202FB03F30E4AA2FB03239B0C013378
:101B300000E0013B084A526912F4806F01D0002B8B
:101B4000F7D1054B5B6913F4806F03D10020704718
:101B500003207047032070470070004008000020F9
:101B600083DE1B43024A936843F4804393607047CB
:101B700000700040104B1B680BB90120704710B576
:101B800004460E4A10684FF47A72B2FBF3F3B0FBCE
:101B9000F3F000F07BFD68B90F2C01D901200AE0B9
:101BA000002221464FF0FF3000F060FD044B1C6026
:101BB000002000E0012010BD0000002008000020EF
:101BC0000400002010B5032000F03EFD0F20FFF7B9
:101BD000D1FF10B10124204610BD0446FFF720FFBD
:101BE000F9E70000034A1368034909680B441360CE
:101BF000704700BF1C1C002000000020014B18682B
:101C0000704700BF1C1C002038B50446FFF7F6FFE4
:101C10000546B4F1FF3F02D0044B1B681C44FFF79C
:101C2000EDFF401BA042FAD338BD00BF00000020EA
:101C3000124BDA6802F00302DB68C3F303130133CB
:101C4000032A11D00E48B0FBF3F00C4BDB68C3F352
:101C5000062303FB00F0094BDB68C3F34163013348
:101C60005B00B0FBF3F070470648B0FBF3F0034BAA
:101C7000DB68C3F3062303FB00F0ECE7001002402F
:101C80000024F40000127A00002800F04F8270B5A2
:101C900082B00446036813F0010F37D0A44A93685A
:101CA00003F00C03D26802F003020C2B23D0082BA4
:101CB00023D06368B3F5803F4ED0B3F5A02F51D049
:101CC0009B4B1A6822F480321A601A6822F4802230
:101CD0001A606368002B52D0FFF790FF0546944BC3
:101CE0001B6813F4003F11D1FFF788FF401B6428E5
:101CF000F5D9032023E2032AD9D18D4B1B6813F4B5
:101D0000003F03D06368002B00F01282236813F0B9
:101D1000020F5DD0864A936803F00C03D26802F08C
:101D200003020C2B3AD0042B3AD0E368002B75D079
:101D30007F4A136843F480731360FFF75FFF054623
:101D40007B4B1B6813F4806F5FD1FFF757FF401B7D
:101D50000228F5D90320F2E1754A136843F4803371
:101D60001360B6E703F18043A3F53C331A6842F4ED
:101D700080221A601A6842F480321A60A9E7FFF7DD
:101D80003DFF05466A4B1B6813F4003FBED0FFF7CA
:101D900035FF401B6428F5D90320D0E1022AC2D1C7
:101DA000634B1B6813F4806F03D0E368002B00F0D3
:101DB000C1815F4A536823F0FE43216943EA01630E
:101DC00053605C4B1868FFF7D5FE002840F0B481E3
:101DD000236813F0080F4CD063699BB3544AD2F8C0
:101DE000943043F00103C2F89430FFF707FF054633
:101DF0004F4BD3F8943013F0020F3AD1FFF7FEFEA9
:101E0000401B0228F4D9032099E1494A536823F082
:101E1000FE43216943EA01635360D9E7444A1368EA
:101E200023F480731360FFF7E9FE0546404B1B68FF
:101E300013F4806FCCD0FFF7E1FE401B0228F5D9E8
:101E400003207CE13A4AD2F8943023F00103C2F82F
:101E50009430FFF7D3FE0546354BD3F8943013F09A
:101E6000020F06D0FFF7CAFE401B0228F4D9032058
:101E700065E1236813F0040F00F081802C4B9B6D0B
:101E800013F0805F36D12A4B9A6D42F080529A65EA
:101E90009B6D03F080530193019B0125264B1B682A
:101EA00013F4807F28D0A368012B39D0052B45D0AF
:101EB0001F4BD3F8902022F00102C3F89020D3F8F2
:101EC000902022F00402C3F89020A368002B43D096
:101ED000FFF794FE0646164BD3F8903013F0020F2E
:101EE0004CD1FFF78BFE801B41F288339842F2D928
:101EF000032024E10025D1E70F4A136843F48073DF
:101F00001360FFF77BFE06460B4B1B6813F4807FC4
:101F1000C9D1FFF773FE801B0228F5D903200EE11B
:101F2000034AD2F8903043F00103C2F89030CCE776
:101F3000001002400400002000700040884BD3F8DD
:101F4000902042F00402C3F89020D3F8902042F091
:101F50000102C3F89020B8E7FFF750FE0646804B19
:101F6000D3F8903013F0020F08D0FFF747FE801B24
:101F700041F288339842F2D90320E0E0E5B92368C2
:101F800013F0200F35D0A369E3B1754AD2F8983029
:101F900043F00103C2F89830FFF730FE0546704B5E
:101FA000D3F8983013F0020F23D1FFF727FE401B20
:101FB0000228F4D90320C2E0694A936D23F08053CC
:101FC0009365DCE7664AD2F8983023F00103C2F843
:101FD0009830FFF713FE0546614BD3F8983013F0A5
:101FE000020F06D0FFF70AFE401B0228F4D9032097
:101FF000A5E0E369002B00F0A180594A926802F045
:102000000C020C2A64D0022B13D0554A136823F01B
:1020100080731360FFF7F2FD0446514B1B6813F009
:10202000007F4ED0FFF7EAFD001B0228F5D9032000
:1020300085E04B4A136823F080731360FFF7DEFDE1
:102040000546474B1B6813F0007F06D0FFF7D6FD0F
:10205000401B0228F5D9032071E0414AD368414969
:102060001940236A606A013843EA0013A06A43EA10
:102070000023206B4008013843EA4053606B40085E
:10208000013843EA4063E06A43EAC0631943D16020
:10209000136843F080731360D36843F08073D36098
:1020A000FFF7ACFD04462E4B1B6813F0007F06D1F2
:1020B000FFF7A4FD001B0228F5D903203FE0002014
:1020C0003DE0274AD168284B0B40D360002036E022
:1020D000012B36D0224BDB6803F00301226A9142C8
:1020E00031D103F0F002616A0139B2EB011F2CD14A
:1020F00003F4FE42A16AB2EB012F28D103F078422B
:10210000E16AB2EBC16F24D103F4C001226B520823
:10211000013AB1EB425F1ED103F0C063626B52081B
:10212000013AB3EB426F18D1002008E0012070475C
:10213000012004E0012002E0012000E0002002B0C4
:1021400070BD0120FBE70120F9E70120F7E701203E
:10215000F5E70120F3E70120F1E70120EFE700BFF9
:10216000001002400C809F01FCFFEEFE1E4B9B689E
:1021700003F00C03042B33D01B4B9B6803F00C03C0
:10218000082B2FD0184B9B6803F00C030C2B01D0AD
:1021900000207047144BDA6802F00302DB68C3F3D7
:1021A00003130133032A11D01048B0FBF3F00E4B98
:1021B000DB68C3F3062303FB00F00B4BDB68C3F3C0
:1021C000416301335B00B0FBF3F070470848B0FB9C
:1021D000F3F0054BDB68C3F3062303FB00F0ECE7E9
:1021E0000248704702487047001002400024F40083
:1021F00000127A00002800F0E680F8B50C4605468B
:10220000744B1B6803F00F038B420BD2714A1368A7
:1022100023F00F030B431360136803F00F038B428B
:1022200040F0D3802E6816F001065FD06B68032B58
:102230002FD0022B4DD0684B1B6813F4806F00F039
:10224000C680FFF793FF654B98424DD9624A936869
:1022500023F0F00343F08003936080265E4A936886
:1022600023F0030369680B439360FFF7C7FC07463D
:10227000594B9B6803F00C036A68B3EB820F35D0AF
:10228000FFF7BCFCC01B41F288339842F0D9032011
:1022900078E0514B1B6813F0007F01D1012071E001
:1022A000FFF7C6FC4D4B98421AD94B4B9B6813F075
:1022B000F00F05D02E6816F00206CFD0AB688BB9B0
:1022C000454A936823F0F00343F08003936080262F
:1022D000C4E7414B1B6813F4003FB2D1012051E029
:1022E0000026BBE70026B9E70026B7E72B6813F006
:1022F000020F48D013F0040F04D0374A936843F418
:10230000E06393602B6813F0080F06D0324A93689D
:1023100023F47C5343F4E06393602F4A936823F0E3
:10232000F003A9680B4393602A4B1B6803F00F036B
:10233000A34230D82B6813F0040F06D0264A9368C6
:1023400023F4E063E9680B4393602B6813F0080FF4
:1023500007D0214A936823F46053296943EAC103F3
:102360009360FFF703FF1C4B9B68C3F303131C4AE6
:10237000D35C03F01F03D8401A4B18601A4B18683F
:10238000FFF7F8FBF8BD802ECED1134A936823F0F7
:10239000F0039360C8E70F4A136823F00F03234349
:1023A0001360FFF72BFC06460A4B1B6803F00F0374
:1023B000A342BFD0FFF722FC801B41F28833984232
:1023C000F2D90320DEE7012070470120DAE701207F
:1023D000D8E700BF002002400010024000B4C4044F
:1023E00054F703080800002004000020F0B583B073
:1023F000002366E085685E000324B44025EA0405F6
:10240000CC68B4402C438460456825EA0C054C68D0
:10241000C4F300149C402C43446063E08C68012C9E
:1024200065D173E0DD08083550F8254003F0070C4E
:102430004FEA8C0C4FF00F0E0EFA0CFE24EA0E0E33
:102440000C6904FA0CF444EA0E0440F8254062E0FA
:10245000052400E0002404FA0EF42C430CF1020CD5
:10246000564D45F82C40564CA568D44325EA020643
:102470004F6817F4801F01D042EA0506504DAE6048
:10248000ED6804EA05064F6817F4001F01D042EA20
:1024900005064B4DEE606D6804EA05064F6817F4BB
:1024A000003F01D042EA0506454D6E602D682C4084
:1024B0004E6816F4803F01D042EA0504404A146099
:1024C00001330A6832FA03F476D04FF0010C0CFAAB
:1024D00003FC1CEA0202F3D04C6804F00304013C44
:1024E000012C87D94C6804F00304032C96D0C468EF
:1024F0004FEA430E4FF0030C0CFA0EFC24EA0C0CCE
:102500008C6804FA0EF444EA0C04C4604C6804F0CD
:102510000304022C86D004684FEA430E4FF0030CEC
:102520000CFA0EFC24EA0C0C4C6804F0030404FAC8
:102530000EF444EA0C0404604C6814F4403FBFD02D
:10254000204C256E45F001052566246E04F001043B
:102550000194019C4FEA930C0CF10205174C54F8BE
:10256000255003F0030E4FEA8E0E0F2404FA0EF4EA
:1025700025EA0405B0F1904F3FF46CAF124CA04235
:1025800012D004F58064A04210D004F58064A0420B
:102590000ED004F58064A0420CD004F58064A04203
:1025A0003FF456AF062456E7012454E7022452E7CD
:1025B000032450E704244EE703B0F0BD00000140BF
:1025C0000004014000100240000400480369194261
:1025D00001D001207047002070470AB18161704727
:1025E00081627047002808DB0901C9B200F1604030
:1025F00000F5614080F80013704700F00F000901FA
:10260000C9B2014B1954704714ED00E000B500F059
:102610000700C0F1070CBCF1040F28BF4FF0040CF9
:10262000031D062B0ED9C31E4FF0FF3E0EFA0CF011
:1026300021EA000199400EFA03FE22EA0E0241EA65
:10264000020000BD0023EFE7074AD36823F4E063EC
:102650001B041B0C000200F4E060034343F0BF6363
:1026600043F40033D360704700ED00E010B504463A
:10267000054BD868C0F30220FFF7C8FF014620468B
:10268000FFF7B0FF10BD00BF00ED00E00138B0F172
:10269000807F0BD24FF0E0235861054AF02182F889
:1026A00023100020986107221A61704701207047AB
:1026B00000ED00E0034AD2F8883043F47003C2F81A
:1026C0008830704700ED00E010B503460C4A0D4914
:1026D0000D48006840B10C4800680344521A934208
:1026E00006D8094A136010BD0748084C0460F2E799
:1026F00039F08EFF0C2303604FF0FF30F3E700BF8B
:102700000000022000040000201C0020781F01208F
:1027100008B310B504464FF4017200211AF09AFF75
:102720004FF4497104F108000EF0DAF84FF4A27189
:1027300004F148000EF0D4F8074BA366012384F897
:1027400028300323E365B0232363452363670348ED
:102750000EF008FC10BDFEE7D4C3B2A1CDAB34121D
:10276000154B1B7903B1704710B5134C2046FFF78A
:10277000CFFF1AF0B1F909F0E9FB2AF01FF90FF0C9
:10278000DBFF0FF09FFF0DF03BFF0BF0B7FF0CF0EE
:102790001FF900F0B9F808F0D8FD10F0C7F905F0FE
:1027A00071FD07F001FB002108460BF0B9FC1AF09F
:1027B0006BF80123237110BD241C002070B5054661
:1027C00000200BF0BFFE0446002603E020460BF07D
:1027D000B9FE044664B120460BF0C8FE012806D0BD
:1027E00020460BF0CDFE8542F0D12646EEE7264688
:1027F000304670BD2DE9F047037F13F0010F6ED115
:1028000006468A469146C5684FF001080027E5B1A3
:10281000012357B32BB129463046C84705468742A6
:1028200068D0002DF3D0286800F03EFE10F4007F41
:10283000EDD12C681CB30121204600F079FDC0B910
:10284000204606F06EFD0446F4E7337F13F0080FD0
:1028500001D1002F48D1B8F1000F42D03046D04707
:1028600005464FF000084346D3E7002D3FD02F46E2
:10287000D0E70121204600F05BFD0028C7D1F368B6
:10288000AB423AD08BB11C683046FFF797FF024647
:102890001421204602F09DFA012802D04FF00008D2
:1028A0001FE0F368186803F082FAF5602C68304680
:1028B000FFF784FF02461321204602F08AFA01281E
:1028C00002D04FF000080CE0F368186803F06FFACC
:1028D0003369ABB1304698474FF0010801E04FF043
:1028E00000084046BDE8F0874FF00008F9E74FF0D8
:1028F0000008F6E74FF00008F3E74FF00008F0E7B4
:102900004FF00108EDE7000008B5202101480DF067
:10291000E7FF08BD5C1C0020014B586C704700BFEE
:10292000241C002060B110B50446064A0649FFF792
:1029300061FF63691BB110B901212046984710BDA2
:10294000FEE700BF7D0901086D09010860B110B5FF
:102950000446064A0649FFF74DFF63691BB110B9EB
:1029600000212046984710BDFEE700BF85090108F9
:102970007509010838B50446037FC3F3C00543F069
:1029800008030377DBB213F0040F06D1FFF7CAFF89
:10299000237F65F3C303237738BDFFF7D7FFF7E73E
:1029A00070B5064600F092FD002849D00546C36880
:1029B00013B11B68B34213D0EB6813B11B68B34269
:1029C00030D028460DF0D2FF0446002C38D02368C2
:1029D000B3422AD0214628460DF0D0FF0446F4E742
:1029E000037F13F0010F03D0037F23F0010303776C
:1029F00028460DF0BBFFEB68834203D02846FFF763
:102A0000B9FFD9E728460DF0B5FFEB688342F5D151
:102A10001C682846FFF7D2FE02461421204602F029
:102A2000D8F9C9E70023EB60CBE7214628460DF033
:102A3000DFFF20460FF0A0FEB3680BB100225A6002
:102A400070BDF0B170B50C4605460846FFF7A8FF0B
:102A5000A3686BB1A3685D6028460DF068FF064669
:102A600050B1046028460DF081FF864205D070BD4C
:102A7000204601F014F8EDE7FEE72846FFF77AFF5D
:102A8000F5E7704718B1C06808B100687047704733
:102A9000D8B170B50446037FC3F340038B4213D013
:102AA000037F61F341030377FFF7ECFF054658B15D
:102AB000E3681E682046FFF781FE02461321304678
:102AC00002F087F9012801D070BDFEE7284603F027
:102AD0006EF9F9E718B1007FC0F34000704700209D
:102AE000704710B590F808C0BCF1FF0F0CD0046817
:102AF0004FEA8C0E00239C451BD904EB0E00C05CF2
:102B0000884211D00133F6E70468002304EBC30CBC
:102B100014F8330070B1884201D00133F6E7DCF8D5
:102B200004301360012005E054F8233013600120C5
:102B300000E0002010BD30B589B005460C460846BF
:102B40000AF0C0FE48224FF48031284605F0A8FB69
:102B50000190C0B284F83A0002283AD83A224FF4E1
:102B60008031284605F09CFB0190C0B284F83B0000
:102B7000022847D851224FF48031284605F090FBB7
:102B80000190C0B284F83D00022862D84FF4803131
:102B9000284605F056FDFC280BD894F83A3003FB84
:102BA00000F0C0F3072084F83A0084F83B0084F872
:102BB0003D00638F13B994F83D0040B178224FF483
:102BC0008031284605F06CFB0190A062012009B01D
:102BD00030BD49224FF48031284605F061FB019059
:102BE000ADF80C00030C8DF80E30039BADF80830E7
:102BF0001B0C8DF80A30BDF80820DBB2E28784F8A0
:102C00004030ABE738224FF48031284605F048FBCE
:102C10000190E067002803DC002384F83B30A9E73B
:102C200039224FF48031284605F03AFB0190ADF887
:102C30001400030C8DF81630059BADF810301B0CFA
:102C40008DF81230049BA4F878301B0C84F87A308D
:102C500090E74A224FF48031284605F021FB01908D
:102C6000C4F89000002803DC002384F83D308DE791
:102C700063224FF48031284605F012FB0190C4F81E
:102C80009C0058224FF48031284605F009FB019042
:102C9000ADF81C00030C8DF81E30079BADF8183002
:102CA0001B0C8DF81A30069BA4F88C301B0C84F892
:102CB0008E306BE7F0B5BFB004460E463AAD36AA8B
:102CC000294604F075FC28460CF0FEF818B936A821
:102CD0000CF0FAF828B10EA92046FFF72CFF0128C6
:102CE00001D03FB0F0BD89224FF48031204605F07D
:102CF000D7FA0546009001A809F0A2F8189B0C939A
:102D000088224FF48031204605F0CAFA00900B90DB
:102D10003AA80CF0D9F878B12DBB002703973AAC4C
:102D2000224601A9304609F094F8109722460EA9D0
:102D300030460AF052FEEDB136A80CF0C5F8002876
:102D4000CFD001230393DDB90123109336AA0EA936
:102D500030460AF042FE002DC3D136AA01A9304602
:102D600009F077F8BDE701AA4FF48031204601F061
:102D70001EFED2E7224601A9304609F06AF8DBE7D9
:102D800036AA01A9304609F064F8DDE72DE9F041E3
:102D9000BAB006460DF01EFB044630460DF016FB99
:102DA0000546A4F11A03062B00F2D680DFE813F0E3
:102DB0000700D400D4009400E900D4002701304675
:102DC0000DF00CFB04460378022B00F0C580802236
:102DD0000021284605F064FA129010B102232370F6
:102DE000BAE078220021284605F05AFA06461290E9
:102DF00004220021284605F053FA074612900522C6
:102E00000021284605F04CFA024612906B69129395
:102E1000AB691393EB6914932B6A15930DF1480872
:102E2000394640460CF05AF83246414660680CF08C
:102E3000C0FB10B9012323708EE0482200212846F0
:102E400005F02EFA0590C0B2FC2802D801232370A9
:102E500082E070220021284605F022FA0590C0B2D7
:102E6000FC2802D80123237076E02922002128467D
:102E700005F016FA059010F0FF0F14D02B22002158
:102E8000284605F00DFA0590C0B2FC2802D80123AF
:102E9000237061E02A220021284605F001FA0590FE
:102EA000C3B2FC2BF3D928220021284605F0F8F9FB
:102EB000059070B10023827A9A420AD903EB83020B
:102EC0000244D278FC2A01D90133F4E701232370AC
:102ED00042E0002323703FE0304602F00FF8044642
:102EE00012A80AF0EFFC169404220021284605F0EF
:102EF000D7F90646059005220021284605F0D0F9AD
:102F0000024605906B690193AB690293EB690393E9
:102F10002B6A0493314601A80BF0E0FF89220021BF
:102F2000284605F0BDF90590C8B912AA0021284627
:102F300001F011F93B220021284605F0B1F9059076
:102F400028B19DF8C83043F020038DF8C83001AA9D
:102F500012A920460AF041FD3AB0BDE8F08105AE65
:102F6000304608F06DFF32460021284601F01FFD73
:102F70001C9B1093099401AA3146204608F069FF72
:102F8000D3E7304601F0BAFF0446892200212846E3
:102F900005F086F912900028DED10422002128468F
:102FA00005F07EF90646129005220021284605F01C
:102FB00077F9024612906B690593AB690693EB694A
:102FC00007932B6A089305AF314638460BF086FF0E
:102FD00012AE304608F034FF32460021284601F098
:102FE000E6FC78220021284605F05AF901901D9050
:102FF00016943A463146204608F02BFFACE730469F
:1030000001F07CFF044601462846FFF753FE3822B4
:103010000021284605F044F9129000289CD03B225C
:103020000021284605F03CF91290002894D00DF1BB
:10303000480840460AF046FC00268DF882608DF86C
:103040007F608DF884608DF8856016944246314625
:10305000284601F080F804223146284605F020F980
:103060000746059005223146284605F019F9024623
:1030700005906B690593AB690693EB6907932B6A1F
:10308000089305AD394628460BF028FF2A464146ED
:1030900020460AF0A2FC5FE72DE9F04182B00C4621
:1030A0004D6805B3284603F0B9FE0746284603F0ED
:1030B0005EFE8046AE6918220021284605F0F0F831
:1030C00001903318A3EB0803A361013B23626E69EF
:1030D0001A220021284605F0E3F801900644F01B6F
:1030E00060610138E0610223636241F202036362BE
:1030F0002DB143F20203636243F202336362636AF7
:1031000043F00402626243F01402626243F034024C
:10311000626243F07402626243F4076242F00402A6
:10312000626225B143F4084343F07403636202B062
:10313000BDE8F0812DE9F04F87B00B460291018D7B
:10314000994200F0C8800746ADF816101A4605F0FF
:103150003CF98146B8B1384602F029FE029B3B8516
:10316000384605F0AAFA97F82C3013F0010F13D067
:103170004FF420700FF0EEFA05464FF00008444679
:10318000CDF80C9058E0029B3B850DF116022821EA
:10319000384601F01EFE9EE0384602F008FEB9F106
:1031A000020F06D00DF116022821384601F011FE5B
:1031B00091E0384601F000FDF4E7013294420FD966
:1031C00002EB820305EB830359681FFA81FC01F4CB
:1031D0007F011B7A8342F0D1B142EED1CC45ECD3D2
:1031E00094420AD00EF1010EDBF8003013F80E0005
:1031F00000B31F2C1ED80022E0E7DBF80C3004EBF4
:10320000840105EB810225F82130DBF81030538072
:10321000DBF80830D360DBF8003013F80E3013729F
:10322000DBF804301361DAF80430C3F3170353609A
:103230000134D7E708F101087B8DC3F3051343453B
:103240004CD91F2C1ED8FB6803EBC80ADAF80460BF
:103250001FFA86F906F47F06029A39EA0202E9D1DA
:103260009AF8072012F0020FE4D104AA762153F84D
:103270003800FFF736FC0128DCD1DDF810B04FF044
:10328000000EB1E7DDF80C900026DDF808800EE0B6
:1032900006EB860305EB8303596800934346BDF8AC
:1032A000162001F47F01384605F0BEFC0136B44219
:1032B000EED828460FF060FAB9F1010F14D0B9F139
:1032C000030F18D0B9F1020F1CD00DF116022821FE
:1032D000384601F07EFD07B0BDE8F08FDDF80C90B8
:1032E0000026DDF80880E2E7FF224FF4702138461F
:1032F00005F0FEF9E9E7FF224FF47021384605F0AA
:10330000F7F9E2E7384602F052FD384601F054FC86
:10331000DBE7000010B50146044800F00FFC20B1C7
:10332000044600F09BFC204610BDFEE764F703084E
:1033300028B1436A99430CBF012000207047FEE783
:1033400040B138B50C460546038D194334EA0303F2
:1033500001D138BDFEE7FFF7EDFE4FF480012846AE
:10336000FFF7E6FF0028F4D02146284600F001F8D8
:10337000EFE7F8B506460F4606F04CF80546002480
:1033800000E00134AC4209D22146304605F0FCFF92
:103390000028F6D03946FFF7D3FFF2E7F8BD50B169
:1033A00038B50D460446028DCB431BB202EA030139
:1033B0009A4301D138BDFEE7FFF7BCFE4FF4800110
:1033C0002046FFF7B5FF0028F4D02946204600F03C
:1033D00001F8EFE7F8B506460F4606F01BF805467C
:1033E000002400E00134AC4209D22146304605F009
:1033F000CBFF0028F6D03946FFF7D1FFF2E7F8BD42
:1034000008B512B1FFF79CFF08BDFFF7C8FFFBE747
:1034100028B1406A0840003818BF01207047FEE715
:1034200050B12DE9F04188B00C460546FFF7F0FF9A
:1034300018B908B0BDE8F081FEE7284601F056FF54
:10344000064614F0100F14D16B6A23EA04036B6272
:1034500014F0010F1CD1284601F048FFB04202D100
:1034600014F0C07FE5D0284605F05BFF01F05CFF5B
:10347000DFE704AF3A466946284604F099F8694602
:10348000284602F081FC3946284602F07DFCDBE745
:10349000284602F08CFC284605F043FF01F044FF6B
:1034A000284601F041FFD6E708B1008D7047FEE7DE
:1034B00028B1008D0840003818BF01207047FEE792
:1034C00018B190F82B00C0097047FEE718B180686A
:1034D00000B140687047FEE72DE9F04188B00D4625
:1034E00008460CF077FF044628460CF06FFF0646AE
:1034F000631E322B00F24182DFE813F033003F02FB
:10350000A8003F023F023F023F023F023F023F024C
:103510003700C1013F02C6013F023F02BB003F022C
:103520009001DE013F023F0242024B024F023C0289
:1035300034023F023C023C023F023C023F023F0297
:103540006F003F023F023F023F023F023F023F0245
:1035500004023F022B023F023F023F023F02E20110
:10356000AC008021FFF7ECFE07E28021FFF717FF98
:1035700028460CF033FF0BF02DF8002840F0FD81B9
:1035800008213046FFF7D4FE002800F0F681042120
:103590003046FFF78DFF04463046FFF785FF10F0F9
:1035A000040F10D104213046FFF7CAFE0421304633
:1035B000FFF77EFFA04200F0E08100222321304689
:1035C00001F007FCD9E13046FFF77AFF0028EDD182
:1035D00004213046FFF7E3FEE8E7FFF771FF00281C
:1035E00000F0CB8104213046FFF762FF002800F095
:1035F000C481304605F095FE8046002800F0BD816C
:1036000005F008FF0746002500E00135BD4280F0C7
:10361000B4812946404605F0B7FE04468642F4D000
:10362000FFF74EFF0028F0D004212046FFF740FFAF
:103630000028EAD004212046FFF7B1FE0022232112
:10364000204601F0C6FB0128DFD096E18021FFF77C
:10365000A6FE92E105F0DEFE0546002406E0B36812
:103660001B6853F8240001F05FFE0134AC42F6D32E
:1036700083E10821FFF75CFE70B3284601F04FFCA0
:10368000044604213046FFF713FF0546A4F1110359
:10369000032B07D8DFE803F0021602160421304698
:1036A000FFF74EFE0A2C00F0688104213046FFF738
:1036B000FFFEA84200F0618100222321304601F084
:1036C00088FB5AE13046FFF7FBFE0028EAD10421CF
:1036D0003046FFF764FEE5E74FF401613046FFF73F
:1036E00027FE002800F04981304600F08DFA0028BE
:1036F00040F04381304603F091FB0746304603F02B
:10370000F3FB0446284601F00AFCA0F11103032B49
:1037100000F23381DFE803F014022654304603F050
:103720001FFB0446304601F075FE011E06DB002239
:1037300004EBA101304603F0ADFD1EE10331F6E7D5
:10374000304603F00DFB0446304601F063FE011ED7
:1037500006DB0022A4EBA101304603F09BFD0CE147
:103760000331F6E7304603F0DAFA10F0030F13D016
:10377000002F01DC002C0FDD304603F0EAFA04468E
:10378000304601F040FE011E18DB002204EBA101CF
:10379000304603F06BFDF0E0304603F0E1FA0446FA
:1037A000304601F037FE011E06DB002204EBA101CA
:1037B000304603F06FFDE0E00331F6E70331E4E764
:1037C000304603F0ACFA10F0030F13D0002F01DCE9
:1037D000002C0FDD304603F0BCFA0446304601F001
:1037E00012FE011E18DB0022A4EBA101304603F0FB
:1037F0003DFDC2E0304603F0B3FA0446304601F026
:1038000009FE011E06DB0022A4EBA101304603F0F5
:1038100041FDB2E00331F6E70331E4E74FF48061A4
:10382000FFF786FDB0B93046FFF750FEFFF752F9BB
:1038300004460AF095FE90B10AF098FE022812D0D4
:10384000042812D0082194B141F020013046FFF73E
:1038500077FD92E00121304603F08CFEE3E7284635
:1038600001F03AFBE8E71821EDE71821EBE73046D5
:10387000FFF766FD20213046FFF791FD7DE04FF414
:103880008071FFF75DFD78E04FF48071FFF787FDF1
:10389000304603F03BFA02286FD104AC2246694659
:1038A000304603F085FE6946304602F06DFA214647
:1038B000304602F069FA60E03821FFF770FD5CE005
:1038C0001222002104F0ECFC0490C4B284220021F6
:1038D000304604F0E5FC049080B200B914B13046E3
:1038E00001F022FD304605F095FD0546002406E076
:1038F000B3681B6853F8240001F016FD0134AC4294
:10390000F6D33AE00122002104F0CAFC04460490F8
:1039100002220021304604F0C3FC05460490122226
:103920000021304604F0BCFC0490C7B28422002180
:10393000304604F0B5FC049083B233B92FB96FF070
:1039400040439C4201D09D4217D1304601F0ECFC2F
:1039500013E090F82A3043F0020380F82A3001F097
:10396000E3FC0AE0002101F042F80146284601F09C
:10397000F0FA02E02846FFF709FA08B0BDE8F08146
:103980008021FFF70CFD4FF480713046FFF707FDF3
:10399000F3E74021FFF7D4FCEFE74021FFF7FFFCFE
:1039A000EBE710B50C4608460CF022FD002004F0B1
:1039B00071FC204604F0BAFF012004F06BFC0021EA
:1039C00020460BF039F82046FFF780FD10B1204665
:1039D000FEF7E6FFA3687BB1186820B10EF0CCFEBD
:1039E000A36800221A60A06808300CF0D7FCA06819
:1039F0000EF0C2FE0023A36010BD40B1F0B589B047
:103A00000C460546FFF794FC10B109B0F0BDFEE787
:103A1000284601F06BFC064614F0010725D16B6ABD
:103A200023436B622FBB284601F060FCB04202D1F9
:103A300014F0C07F07D0284605F073FC01F074FC39
:103A4000284601F071FC14F0100FDED004AC2246C1
:103A50006946284603F0ACFD6946284602F094F911
:103A60002146284602F090F9CFE7284602F09FF958
:103A7000D5E708212846FFF71BFD0028D3D02846AC
:103A8000FFF724FD07460028CDD0FEF74BFF384650
:103A9000FEF7F8FF0028C6D002F089F9C3E720B18D
:103AA00010B5044683680BB110BDFEE734200EF05C
:103AB00051FEA06058B1438E43F470734386A268F0
:103AC00092F8323043F0030382F83230ECE7FEE73D
:103AD00028B10068884214BF0020012070470020F0
:103AE0007047036800E01B681BB18B42FBD10120CB
:103AF00070470020704770B505460C460E68336865
:103B00001BB10B60FFF7F7FF266023685B6813B1FA
:103B100021462846984770BD00E0006820B1026A3F
:103B2000054B1340002BF8D018B1006AC0F30F10FA
:103B300070470020704700BFF0FF0F0070B50646C9
:103B40000C46FFF7E9FF0EF005FE0546C0B1066022
:103B50004460BCB1A368002B43D0A268138E01332C
:103B60001386A668318E890030680EF00FFE306033
:103B7000A3681A681B8E03F18043013B42F823506F
:103B8000284670BD07F048F8044600B3D0F8BC02E0
:103B900010B3D4F8D812013189000EF0F7FDF8B156
:103BA000D4F8D822511CC4F8D812C4F8BC0240F88A
:103BB000225000246C61AC61204607F041F80138C6
:103BC000E861204607F052F801382862D8E7284615
:103BD0000EF0D2FD2546D3E70023C4F8D832D8E74B
:103BE000FEE72046FFF75BFFB7E710B50446006825
:103BF00083680BB12146984723681B681BB123607B
:103C00002046FFF7F2FF10BD036800E01B6823B1F8
:103C100093F8202012F0030FF8D043B193F820005E
:103C200000F00300012814BF00200120704700208D
:103C30007047036800E01B6823B193F8202012F05E
:103C40000C0FF8D043B193F8200000F00C000428CA
:103C500014BF00200120704700207047C0B338B562
:103C6000044601F061FB002004F014FB20460EF036
:103C7000DAFD21462068FFF73EFF012004F00AFB31
:103C8000FF224FF47021204604F032FD204601F05F
:103C9000B0FEFEF741FE054618B12046FFF7C9FF0A
:103CA00088B9204605F03DFB054658B122462B2138
:103CB00001F08FF822462C21284601F08AF8204690
:103CC00002F075F838BD21462846FEF7BAFEE8E74F
:103CD000704710B582B013697BB119B993F84E00E3
:103CE00002B010BD93F84E40702204F0D9FA019052
:103CF000C0B204FB00F0000AF2E704F0A2FCEFE718
:103D000030B585B004460D46492204F0C9FA024692
:103D100002902946204604F052FB0190ADF80C00B9
:103D2000030C8DF80E3000209DF80C3063F3070073
:103D30009DF80D3063F30F209DF80E3063F31740AC
:103D400005B030BD30B585B004460D462C2204F0D8
:103D5000A7FA024602902946204604F030FB019063
:103D6000ADF80C00030C8DF80E3000209DF80C30DF
:103D700063F307009DF80D3063F30F209DF80E30BC
:103D800063F3174005B030BD30B585B004460D462D
:103D9000392204F085FA024602902946204604F0B2
:103DA0000EFB0190ADF80C00030C8DF80E300020D6
:103DB0009DF80C3063F307009DF80D3063F30F207E
:103DC0009DF80E3063F3174005B030BD30B585B0B7
:103DD00004460D46412204F063FA02460290294649
:103DE000204604F0ECFA0190ADF80C00030C8DF8BD
:103DF0000E3000209DF80C3063F307009DF80D3065
:103E000063F30F209DF80E3063F3174005B030BD0B
:103E100030B585B004460D465C2204F041FA0246F6
:103E200002902946204604F0CAFA0190ADF80C0031
:103E3000030C8DF80E3000209DF80C3063F3070062
:103E40009DF80D3063F30F209DF80E3063F317409B
:103E500005B030BD30B585B004460D46342204F0BF
:103E60001FFA024602902946204604F0A8FA019063
:103E7000ADF80C00030C8DF80E3000209DF80C30CE
:103E800063F307009DF80D3063F30F209DF80E30AB
:103E900063F3174005B030BD30B585B004460D461C
:103EA000582204F0FDF9024602902946204604F00B
:103EB00086FA0190ADF80C00030C8DF80E3000204E
:103EC0009DF80C3063F307009DF80D3063F30F206D
:103ED0009DF80E3063F3174005B030BD30B585B0A6
:103EE00004460D46592204F0DBF9024602902946A9
:103EF000204604F064FA0190ADF80C00030C8DF834
:103F00000E3000209DF80C3063F307009DF80D3053
:103F100063F30F209DF80E3063F3174005B030BDFA
:103F200030B585B004460D465A2204F0B9F9024670
:103F300002902946204604F042FA0190ADF80C00A8
:103F4000030C8DF80E3000209DF80C3063F3070051
:103F50009DF80D3063F30F209DF80E3063F317408A
:103F600005B030BD30B585B004460D465B2204F087
:103F700097F9024602902946204604F020FA019063
:103F8000ADF80C00030C8DF80E3000209DF80C30BD
:103F900063F307009DF80D3063F30F209DF80E309A
:103FA00063F3174005B030BD10B586B001939DF89E
:103FB000204013691BB39B6C0393D9B914B19DF8CE
:103FC0000F3003BB9DF80F3043B3039B04930020D5
:103FD0009DF8103063F307009DF8113063F30F2054
:103FE0009DF8123063F317409DF8133063F31F60A0
:103FF00006B010BD1A4604F0CCFF0390DEE705F0D2
:1040000005F80390DAE7214601980BF067FD0146B9
:10401000059003980CF03BF80490D8E721460198EE
:104020000BF05CFD0490D2E700B587B001931369F3
:10403000C3B39B6C039381BB9DF80C209DF80D10BE
:104040009DF80E000BF0E1FD8DF81400C0F307237E
:104050008DF81530C0F307408DF816009DF80F203D
:10406000019905980BF021FF8DF81000C0F307238C
:104070008DF81130C0F307408DF8120000209DF834
:10408000103063F307009DF8113063F30F209DF8A3
:10409000123063F3174007B000BD1A4604F079FFF1
:1040A0000390C9E704F0B2FF0390C5E770B584B090
:1040B00005460E461446942204F0F2F80190C0B270
:1040C000E07608B904B070BD90223146284604F06D
:1040D000E7F8019040F31300E36960F31303E36131
:1040E00091223146284604F0DBF80190A08292220A
:1040F0003146284604F0D4F80190E08293223146FC
:10410000284604F0CDF80190ADF80C00030C8DF8B2
:104110000E30039BADF808301B0C8DF80A30029B63
:1041200023831B0CA376A369224631462846FFF75A
:104130007BFF2076C0F307236376C0F30740A076A9
:1041400095223146284604F0ABF80190A37F60F336
:104150000613A377B6E7F0B587B006460D461446BA
:1041600010605160FFF7B5FD07460DB102284FD929
:1041700078222946304604F093F80590A06294F81E
:104180003A30002B50D194F83B30002B40F0DE80C9
:1041900094F83C30002B40F01A8194F83730002B13
:1041A00040F0538194F83D30002B40F0D581FC2F36
:1041B00027D894F83A3007FB03F3C3F3072384F8B6
:1041C0003A3094F8373007FB03F3C3F3072384F83E
:1041D000373094F83B3007FB03F3C3F3072384F82D
:1041E0003B3094F83D3007FB03F3C3F3072384F817
:1041F0003D3094F83C3003FB07F7C7F3072784F8FA
:104200003C70224629463046FFF750FF07B0F0BD0C
:10421000002384F83A3084F8373084F83B3084F84F
:104220003C3084F83D30F1E748222946304604F01E
:1042300037F80590C0B284F83A000228A3D929467D
:104240003046FFF75DFD8DF80C00C0F307238DF8B5
:104250000D30C0F307408DF80E00039B224629461F
:104260003046FFF7E1FE84F83E00C0F3072384F8F0
:104270003F30C0F3074084F84000282229463046EA
:1042800004F00EF8059018B1C37A13F00F0F56D151
:1042900029222946304604F003F8059094F84F305F
:1042A00060F3030384F84F30DBB213F00F0F3FF4D9
:1042B0006AAFE28F94F84030A4F8442084F8463086
:1042C00029463046FFF73EFD8DF81000C0F3072366
:1042D0008DF81130C0F307408DF81200049B224680
:1042E00029463046FFF7A0FE84F84900C0F30723B3
:1042F00084F84A30C0F3074084F84B002D22294649
:10430000304603F0CDFF059084F848002E22294660
:10431000304603F0C5FF059084F84D002A22294657
:10432000304603F0BDFF059084F847002B22294654
:10433000304603F0B5FF059084F84C0023E73022A7
:10434000014604F1440019F0F1F81CE7382229462F
:10435000304603F0A5FF0590E06700283FF418AF52
:104360003A222946304603F09BFF0590C0B284F8FC
:104370003B0002287FF60CAF3C222946304603F072
:104380008FFF059094F8803060F3040384F8803048
:1043900029463046FFF7F8FC8DF81400C0F30723D8
:1043A0008DF81530C0F307408DF81600059B2246A6
:1043B00029463046FFF738FE84F87800C0F307231B
:1043C00084F87930C0F3074084F87A00E0E64022B0
:1043D0002946304603F064FF0590C4F884000028A5
:1043E0003FF4DBAE42222946304603F059FF0590E8
:1043F000C0B284F83C0002287FF6CFAE43222946A3
:10440000304603F04DFF0590C4F888002946304639
:10441000FFF7DCFC8DF81400C0F307238DF815308E
:10442000C0F307408DF81600059B2246294630460A
:10443000FFF7FAFD84F88100C0F3072384F8823087
:10444000C0F3074084F88300A7E6302229463046AF
:1044500003F026FF0590E06200283FF4A3AE31226E
:104460002946304603F01CFF0590C0B284F837009F
:1044700002287FF697AEE06A08F018F9022845D0C6
:1044800029463046FFF7E6FC8DF80C00C0F3072301
:104490008DF80D30C0F307408DF80E00322229460A
:1044A000304603F0FDFE0590C0B20090039B22460B
:1044B00029463046FFF778FD04909DF8133084F8C4
:1044C00038309DF810209DF811109DF812000BF067
:1044D0009CFB84F83400C0F3072384F83530C0F324
:1044E000074084F8360033222946304603F0D8FED0
:1044F0000590003818BF012084F839006A22294647
:10450000304603F0CDFE059060674BE64D2229460C
:10451000304603F0C5FE0590206329463046FFF77C
:1045200077FC8DF81400C0F307238DF81530C0F325
:1045300007408DF81600059B224629463046FFF7B6
:1045400073FD84F83400C0F3072384F83530C0F3DA
:10455000074084F83600D1E74A222946304603F066
:104560009FFE0590C4F8900000283FF420AE94F818
:104570003D30022B7FF61BAE51222946304603F018
:104580008FFE0590C3B284F83D30022B7FF60FAE4C
:1045900061222946304603F083FE0590C4F894005A
:1045A00062222946304603F07BFE0590C4F898004D
:1045B00063222946304603F073FE0590C4F89C0040
:1045C00029463046FFF768FC8DF81400C0F3072336
:1045D0008DF81530C0F307408DF81600059B224674
:1045E00029463046FFF720FD84F88C00C0F30723EE
:1045F00084F88D30C0F3074084F88E00D7E570B59D
:1046000082B005460E46144610605160542203F0F5
:1046100047FE0090C3B284F86630022B01D802B086
:1046200070BD224631462846FFF753FBFC2807D8C9
:1046300094F8663003FB00F0C0F3072084F86600AE
:1046400094F86630022BEAD931462846FFF7E0FBA2
:104650008DF80400C0F307238DF80530C0F3074040
:104660008DF80600019B224631462846FFF7DCFC08
:1046700084F83800C0F3072384F83930C0F30740CA
:1046800084F83A0066223146284603F009FE00907D
:10469000206467223146284603F002FE0090E06362
:1046A0006E223146284603F0FBFD009094F86830F6
:1046B00060F3020384F868304D223146284603F047
:1046C000EFFD0090606365223146284603F0E8FD67
:1046D000009084F86400224631462846FFF7E6FC45
:1046E0009DE7F0B587B005460E4614461060516050
:1046F000502203F0D5FD0390C3B284F85C30022B46
:1047000001D807B0F0BD224631462846FFF7E1FA4E
:10471000FC2807D894F85C3003FB00F0C0F30720B6
:1047200084F85C0094F85C30022BEAD90023E36340
:104730004FF480732364636405F1140738460AF06C
:1047400038FD00EBD0704010206538460AF036FD89
:1047500000EBD0704010606531462846FFF7BEFB85
:104760008DF81400C0F307238DF81530C0F307400F
:104770008DF816004E223146284603F091FD039035
:10478000C0B20090059B224631462846FFF70CFC3C
:1047900004909DF8133084F85B309DF810209DF84C
:1047A00011109DF812000BF030FA84F85800C0F395
:1047B000072384F85930C0F3074084F85A006A226E
:1047C0003146284603F06CFD039020662EB9224640
:1047D00031462846FFF76AFC93E77A22314628469D
:1047E00003F05EFD039094F85D3060F3030384F8FA
:1047F0005D30ECE770B582B005460E461446106099
:104800005160522203F04CFD0090C3B284F8503046
:10481000022B01D802B070BD224631462846FFF770
:1048200058FAFC2807D894F8503003FB00F0C0F386
:10483000072084F8500094F85030022BEAD94B221C
:104840003146284603F02CFD009060640028E1D03A
:1048500031462846FFF764FB8DF80400C0F30723B8
:104860008DF80530C0F307408DF80600019B224605
:1048700031462846FFF7D8FB84F84000C0F30723F1
:1048800084F84130C0F3074084F842006422314686
:10489000284603F005FD0090A064C8B9692231469E
:1048A000284603F0FDFC0090003818BF012094F862
:1048B000513060F3000384F85130DBB260F3410300
:1048C00084F85130224631462846FFF7EFFBA1E736
:1048D00068223146284603F0E3FC0090E064DDE7FF
:1048E00070B582B005460E461446106051604C22E9
:1048F00003F0D6FC0090E06208B902B070BD53220C
:104900003146284603F0CCFC0090C0B284F8460043
:104910000228F2D9224631462846FFF7DAF9FC2868
:1049200007D894F8463003FB00F0C0F3072084F862
:10493000460094F84630022BDFD931462846FFF76F
:1049400011FB8DF80400C0F307238DF80530C0F388
:1049500007408DF80600019B224631462846FFF7A6
:1049600063FB84F82800C0F3072384F82930C0F3E0
:10497000074084F82A0060223146284603F090FC64
:10498000009020646F223146284603F089FC009095
:10499000003818BF012094F8473060F3000384F812
:1049A0004730224631462846FFF780FBA5E770B521
:1049B00082B005460E46144610605160882203F00E
:1049C0006FFC0190A0628A223146284603F068FC01
:1049D000019084F83000E36A0BB102B070BD782218
:1049E0003146284603F05CFC0190E062F5E7F0B543
:1049F00083B004460D464A2203F052FC019007465C
:104A000048BB40222946204603F04AFC0646019056
:104A1000002850D194222946204603F041FC019001
:104A200010F0FF0F5BD100203E18042229462046DB
:104A300003F036FC0746019005222946204603F084
:104A40002FFC0190B842B8BF3846002800DD06446C
:104A5000304603B0F0BD51222946204603F020FC29
:104A60000190C0B2022801D80027CAE707EBD77629
:104A70007610013663222946204603F011FC01908E
:104A8000064461222946204603F00AFC07460190AD
:104A900062222946204603F003FC01900028B8BF9B
:104AA0004042002FB8BF7F42B842ACBF3618F6195B
:104AB00026EAE677A5E742222946204603F0F0FBE6
:104AC0000190C0B20228A5D943222946204603F00E
:104AD000E7FB01900644B742B8BF37469AE79122F8
:104AE0002946204603F0DCFB019000282EDD9122B0
:104AF0002946204603F0D4FB06460190922229461F
:104B0000204603F0CDFB0190002827DD92222946A4
:104B1000204603F0C5FB019086422FDD91222946F5
:104B2000204603F0BDFB019000281FDD912229469D
:104B3000204603F0B5FB0190064690222946204608
:104B400003F0AEFB0190013030446DE7912229461D
:104B5000204603F0A5FB01904642CFE7922229466A
:104B6000204603F09DFB01904042D5E79122294663
:104B7000204603F095FB01904642DEE7922229464B
:104B8000204603F08DFB0190002807DD9222294684
:104B9000204603F085FB01900646CEE79222294687
:104BA000204603F07DFB01904642C6E783680BB1C7
:104BB000D86A704700207047A8B130B583B004466A
:104BC000FFF7F4FF05460023019301AA1B212046AD
:104BD00000F0FFF8A3683BB1019ADA62019BAB4297
:104BE0000CD103B030BDFEE7019B002BF6D0204670
:104BF000FEF755FFA368019ADA62EFE7204601F05D
:104C0000D6F8EEE7836823B193F83300C0F3810050
:104C10007047002070470000037E13F0040F1FD17F
:104C200010B5044683682C3B012B01D8012010BD30
:104C30004FF480410068FEF77BFB0028F7D0A368A3
:104C4000162B0FD0F3D3352BF1D81A2BEFD31A3BF9
:104C5000054A22FA03F313F0010FE8D00020E6E73B
:104C6000002070470020E2E7FF090F0B037E13F0DE
:104C7000080F01D00020704710B504464FF4001112
:104C80000068FEF755FB78B1A368162B0DD00BD347
:104C9000352B09D81A2B07D31A3B054A22FA03F3FE
:104CA00013F0010F00D0002010BD0020FCE700BF72
:104CB000FF090F0B10B50C4608B1006803E00B6844
:104CC000186800E0006810B1C368002BFAD060B12A
:104CD000C36863B10023E360C36821469847237E1D
:104CE00013F0010F05D1012010BD0120FCE70120C8
:104CF000FAE70020F8E72DE9F041044609F030FC1E
:104D000030B1237E13F002055FD113F0010F5DD1A6
:104D10002768BE6806B108360122214630460BF0EE
:104D20005DFA0546012851D1237E13F0020F4DD1C3
:104D300021460020FFF7BEFF0546012846D1237E0D
:104D400013F0020F42D10022214630460BF046FA02
:104D5000054601283AD1237E13F0020F36D1206890
:104D600004F0DFFA064618B12046FFF755FF78B980
:104D7000012D2BD12046FFF779FF38B3384604F0D8
:104D800049FB8046237E43F004032376002606E099
:104D900026602046FFF7AFFF0546E9E701364645A6
:104DA00014D2012D12D1237E13F0020F0ED1314601
:104DB000384604F0E9FA0028F0D020602046FFF7DA
:104DC0009AFF05460128E9D000E001252846BDE804
:104DD000F08130B589B040B3019002900391002377
:104DE000049305929DF81C2063F300028DF81C20AB
:104DF000D2B263F382028DF81C20D2B263F3410277
:104E00008DF81C20D2B263F3C3028DF81C2001ADD3
:104E100028460BF0D5F92846FFF76DFF04462846D3
:104E20000BF0D6F9204609B030BD0124FAE770B185
:104E3000F8B50C4615461E460746FEF730FEB86824
:104E400033462A46214608300BF05DFAF8BDFEE7EE
:104E500030B108B5806820B108300BF075FA08BD94
:104E6000FEE70020FBE730B108B5806810B10830DC
:104E70000BF070FA08BDFEE730B108B5806820B1CC
:104E800008300BF079FA08BDFEE70020FBE748B1D7
:104E9000F8B50D460646FFF7DBFF0746A8B1441EEE
:104EA000002701E0FEE7013C002C0EDB21463046E6
:104EB000FFF7D9FF0028F6D00368AB42F3D12146B3
:104EC0003046FFF7D9FF0137EDE73846F8BD08B5A2
:104ED0000BF07EFA08BD00008268192A08D808B5D0
:104EE000054BD34013F0010F04D00BF077FA08BD47
:104EF000002070470020FAE71EDF3B0308B58368F7
:104F0000A3F11C02022A05D9202B03D01F2B01D0AC
:104F1000212B02D10BF062FA08BD0020FCE708B596
:104F20008368112B01D0002008BD0BF057FA08B19F
:104F30000068F9E70020F7E708B58368122B01D075
:104F4000002008BD0BF04AFA08B10068F9E700201C
:104F5000F7E783681B2B00D0704710B50C460BF0A9
:104F60003DFA03689C42B8BF1C46046010BD08B5FA
:104F70008368282B01D0002008BD0BF02FFA08B160
:104F80000088F9E70020F7E700E0406850B1836847
:104F9000002BFAD093F8333003F00C03082BF4D134
:104FA0000120704770472DE9F04182B005460E465A
:104FB0001B2203F075F904460190804638223146E1
:104FC000284603F06DF9074601903C2231462846F9
:104FD00003F066F9019010F0080F01D004EB070808
:104FE000404602B0BDE8F0812DE9F04182B00546AF
:104FF0000E461A2203F054F90446019080463822E6
:105000003146284603F04CF9074601903C223146D0
:10501000284603F045F9019010F0040F01D004EB8D
:105020000708404602B0BDE8F0812DE9F04182B0AA
:1050300005460E46182203F033F9044601908046D7
:1050400038223146284603F02BF9074601903C22CE
:105050003146284603F024F9019010F0020F01D0E8
:1050600004EB0708404602B0BDE8F081F0B583B01C
:1050700006460F46192203F013F904460190382220
:105080003946304603F00CF9054601903C2239467A
:10509000304603F005F9019000F0010005FB0040E7
:1050A00003B0F0BD2DE9F04F8BB00446059190465A
:1050B0001D469C22002103F0F3F806460790834624
:1050C00098220021204603F0EBF80746079081461E
:1050D0000128B8BF4FF0010999220021204603F0B2
:1050E000DFF8079082460128B8BF4FF0010A16B9D1
:1050F000B7F5807F3DD09A220021204603F0D0F8FA
:10510000079008909B220021204603F0C9F80790E1
:105110000990089F07F0C042B2F1005F2DD0099FAF
:1051200007F0C042B2F1005F44D06369089A1344AB
:105130000893A369099A1344099355B1C6F1000B6A
:105140004FF6FF7309EB030292FBF9F9534493FB0B
:10515000FAFA85F00105029508AB0193CDF800A09D
:105160004B465A464146059809F02CFF0BB0BDE866
:10517000F08FB0F5807FBED1F8E727F0C0476FF021
:1051800060439F42CBDAB7F1805F05DBC7F17F67F1
:1051900007F57F2707F6FF7704F114000AF009F8F6
:1051A00007FB00F0124B83FB0023C017C0EB63101A
:1051B0000890B4E727F0C0476FF060439F42B4DA2D
:1051C000B7F1805F05DBC7F17F6707F57F2707F63B
:1051D000FF7704F1140009F0F1FF07FB00F0044B26
:1051E00083FB0023C017C0EB631009909DE700BF4D
:1051F0001F85EB5190B130B583B00C4605460023B6
:1052000001AA102103F0BAF8012808D020B9002221
:105210002146284603F05DFF03B030BDFEE7019B49
:10522000A342F4D1F2E790B130B583B00C46054605
:10523000002301AA112103F0A1F8012808D020B908
:1052400000222146284603F04EFF03B030BDFEE7A2
:10525000019BA342F4D1F2E748B138B514460546A4
:10526000FFF7C8FF21462846FFF7DDFF38BDFEE700
:1052700090B130B583B00C460546002301AA012148
:1052800003F07CF8012808D020B9002221462846E6
:1052900003F001FF03B030BDFEE7019BA342F4D150
:1052A000F2E790B130B583B00C460546002301AA61
:1052B000022103F063F8012808D020B9002221461A
:1052C000284603F0FCFE03B030BDFEE7019BA3427D
:1052D000F4D1F2E748B138B514460546FFF7C8FFE8
:1052E00021462846FFF7DDFF38BDFEE730B583B025
:1052F00004460C49FEF78CF818B10025284603B087
:1053000030BD0546204604F00CF80028F6D0842273
:10531000002102F0C5FF019080B20028EED00125E7
:10532000ECE700BF0100060008B590F82A2042F023
:10533000010280F82A2003F0F8FF90F82A2042F0BA
:10534000040280F82A2003F0FDFF0022392105F035
:10535000FEFE08BD48B110B50446002289B203F034
:105360008BFF2046FFF7E0FF10BDFEE770B5044657
:1053700015461E46002203F0C0FE3246294620464E
:10538000FFF76AFF70BD40B142690A6082694A60F6
:10539000C2698A60036ACB607047FEE788B138B59E
:1053A000044603F0BEFF054660B164694369E41A30
:1053B00001F0CFFC044400212846FFF715FE201A17
:1053C00038BDFEE76069FBE788B138B5044603F0F5
:1053D000A8FF054660B1A4698369E41A01F0C0FC26
:1053E000044400212846FFF720FE201A38BDFEE7BE
:1053F000A069FBE700B583B01122002102F050FF45
:10540000019003B000BD20B108B5143009F0D1FE01
:1054100008BDFEE720B108B5143009F0CFFE08BD85
:10542000FEE748B138B50546FFF7CEFF04462846EB
:10543000FFF7F0FF204438BDFEE780B170B50446A9
:105440000021FFF7D1FD064600212046FFF7ABFD06
:1054500005462046FFF7D7FF801B401B70BDFEE7C7
:1054600080B170B504460021FFF7DFFD064600213C
:105470002046FFF7FBFD05462046FFF7CBFF801BCC
:10548000401B70BDFEE708B338B50C460546FFF774
:105490007AFF00212846FFF7A7FD23680344236015
:1054A00000212846FFF77FFDA3681B1AA360002197
:1054B0002846FFF7BAFD636803446360002128466D
:1054C000FFF7D4FDE3681B1AE36038BDFEE7000078
:1054D00000B583B000230093044B01936A46352145
:1054E000FFF777FC009803B000BD00BF010000E0AB
:1054F0002DE9F04F85B0044601F02BFC0190A36824
:105500000BB100221A6200212046FFF74CFD8046B5
:1055100000212046FFF768FD81462046FFF7D8FFAF
:1055200000EB09054544794B0393012203A920466A
:1055300009F0F4F878B1A26812B1019B5B421362E2
:10554000039B724A934202D09D42B8BF1D46284633
:1055500005B0BDE8F08F204603F05CFF8246812253
:105560000021204602F09CFE0290C0B201285ED0CD
:10557000002694E012220021384602F091FE0290AB
:10558000C0B208280BD840F24913C34013F0010FF2
:1055900005D0E3697A699B1A03F1010B34E010220C
:1055A0000021384602F07CFE029010B1DFF85CB1B9
:1055B0002AE007F1140009F0FCFD00EB080B2222A1
:1055C0000021384602F06CFE029083441CE00393F5
:1055D000013656452DD2A3681B6853F826704C49F6
:1055E0003846FDF715FF0028F2D197F82B3013F05D
:1055F000200FEDD13846FFF779FE0028BAD0E369D5
:105600007A699B1A03F1010B22220021384602F02D
:1056100047FE02905844039B9842D8DB2222002187
:10562000384602F03DFE02900BEB0003CFE7002668
:10563000CFE7039B354A93423FF47DAF4B4403933E
:1056400079E712220021384602F02AFE0290C0B209
:1056500007280AD89323C34013F0010F05D0FB6934
:1056600062699B1A03F1010B34E0102200213846D5
:1056700002F016FE029010B1DFF890B02AE007F1B8
:10568000140009F096FD00EB090B23220021384697
:1056900002F006FE029083441CE003930136564557
:1056A0002BD2A3681B6853F8267019493846FDF7BA
:1056B000AFFE0028F2D197F82B3013F0200FEDD178
:1056C0003846FFF713FE0028BBD0FB6962699B1ABE
:1056D00003F1010B23220021384602F0E1FD029084
:1056E0005844039B9842D8DB23220021384602F01D
:1056F000D7FD02900BEB0003CFE7039B034A9342D5
:105700003FF419AF4344039315E700BF010000E0E5
:105710000100040070B582B005461446012904D08A
:10572000082902D0092900D0FEE70A4600212846B0
:1057300002F0B6FD01906FF04042904206D000F0BA
:10574000C042B2F1005F10D002B070BD24B1236836
:10575000002B05DB2068F7E72846FFF7C9FEF3E7D3
:105760002846FFF7C5FE2060F4E720F0C0446FF044
:1057700060439C42E8DA284603F0D3FDFFF75DFE64
:105780000346B4F1805F05DBC4F17F6404F57F2438
:1057900004F6FF7404FB03F30B4A82FB0312DC17CD
:1057A000C4EB621422220021284602F079FD06464D
:1057B000009023220021284602F072FD034600904B
:1057C0003344E01AC0E700BF1F85EB5108B5002243
:1057D000FFF7A0FF08BD000000B583B0054B0093A4
:1057E000002301936A463521FFF7F3FA019803B0CD
:1057F00000BD00BF010000E02DE9F04F85B0044678
:1058000001F0AEFA0190A3680BB100225A620021A8
:105810002046FFF70AFC824600212046FFF726FCBF
:1058200081462046FFF7D8FF00EB0A074F443E4B66
:105830000393002203A9204608F070FF78B1A26804
:1058400012B1019B5B425362039B374A934202D0E1
:105850009F42B8BF1F46384605B0BDE8F08F2046CE
:1058600003F0D8FD8346002528E0122200213046AF
:1058700002F016FD0290C0B2032805D8336AA2696F
:105880009B1A03F1010834E011220021304602F096
:1058900007FD029010B1DFF890802AE006F11400B5
:1058A00009F08CFC00EB0A0820220021304602F0AF
:1058B000F7FC029080441CE0039301355D452BD238
:1058C000A3681B6853F8256018493046FDF7A0FD12
:1058D0000028F2D196F82B3013F0100FEDD130469E
:1058E000FFF704FD0028C0D0336AA2699B1A03F1B8
:1058F000010821220021304602F0D2FC02904044EF
:10590000039B9842D8DB21220021304602F0C8FCDC
:10591000029008EB0003CFE7039B034A93428ED02B
:105920004B4403938BE700BF010000E0010004003B
:1059300070B582B005461446022904D00A2902D067
:105940000B2900D0FEE70A460021284602F0A8FCF9
:1059500001906FF04042904206D000F0C042B2F198
:10596000005F10D002B070BD24B12368002B05DBAE
:105970002068F7E72846FFF73FFFF3E72846FFF7E1
:105980003BFF2060F4E720F0C0446FF060439C428E
:10599000E8DA284603F0C5FCFFF762FD0346B4F1E0
:1059A000805F05DBC4F17F6404F57F2404F6FF7497
:1059B00004FB03F30B4A82FB0312DC17C4EB6214F3
:1059C00020220021284602F06BFC0646009021228E
:1059D0000021284602F064FC034600903344E01A9C
:1059E000C0E700BF1F85EB5108B50022FFF7A0FFFD
:1059F00008BD30B583B005460122002102F050FCFD
:105A00000446019002220021284602F049FC019040
:105A10006FF040439C4201D0984205D12846FFF7E1
:105A200083FC012003B030BD0020FBE72DE9F047E7
:105A300080468A4691461F4603F0ECFC0646002449
:105A400000E00134B4421FD2D8F808301D6855F880
:105A5000245037B14FF480212846FDF769FC002817
:105A6000EFD16B6953446B61AB694B44AB61EB693C
:105A70005344EB612B6A4B442B6200234A46514648
:105A80002846FFF7D3FFDCE7BDE8F08700283FD0CA
:105A90002DE9F0470F4616461C468046FFF7B2F840
:105AA000054604F0010904F00203002B14BF4FF077
:105AB000010A4FF0000A16D0B9F1000F03D1022DF0
:105AC0000AD0BDE8F087404603F02BFC234632465F
:105AD0003946FFF7DBFFF2E7534632463946404688
