:020000040800F2
:1000000000000220F91B0008EF0E0008F10E0008A6
:10001000F30E0008F50E0008F70E000800000000BF
:10002000000000000000000000000000F90E0008C1
:10003000FB0E000800000000FD0E0008FF0E000887
:10004000491C0008491C0008491C0008491C0008FC
:10005000491C0008491C0008491C0008491C0008EC
:10006000491C0008491C0008491C0008491C0008DC
:10007000491C0008491C0008491C0008491C0008CC
:10008000491C0008491C0008491C0008491C0008BC
:10009000491C0008491C0008491C0008491C0008AC
:1000A000491C0008491C0008491C0008491C00089C
:1000B000491C0008491C0008491C0008491C00088C
:1000C000491C0008491C0008491C0008491C00087C
:1000D000491C0008491C0008491C0008491C00086C
:1000E000491C0008491C0008491C0008491C00085C
:1000F000491C0008491C0008491C0008491C00084C
:10010000491C0008491C0008491C0008491C00083B
:10011000491C0008491C0008491C0008491C00082B
:10012000491C0008491C0008491C0008491C00081B
:10013000491C0008491C0008491C0008491C00080B
:10014000491C0008491C0008491C0008491C0008FB
:10015000491C0008491C0008491C0008491C0008EB
:10016000491C0008491C0008491C0008491C0008DB
:10017000491C0008491C0008491C0008491C0008CB
:10018000491C0008491C0008491C0008491C0008BB
:10019000491C000800000000491C0008491C000818
:1001A000491C0008491C0008491C0008491C00089B
:1001B000491C0008491C0008491C0008491C00088B
:1001C000491C0008491C0008491C0008491C00087B
:0801D000491C0008491C00084D
:1001E00010B5054C237833B9044B13B10448AFF371
:1001F00000800123237010BD5C000020000000007F
:10020000C425000808B5034B1BB103490348AFF3ED
:10021000008008BD0000000060000020C425000828
:1002200001F0FF01102A2BDB10F0070F08D010F8A7
:10023000013B013A8B422DD010F0070F42B3F6D1AB
:10024000F0B441EA012141EA014122F007047FF0C4
:1002500000070023F0E80256083C85EA010586EA1B
:10026000010685FA47F5A3FA87F586FA47F6A5FA57
:1002700087F68EB9EED1F0BC01F0FF0102F0070263
:1002800032B110F8013B013A83EA010313B1F8D10E
:100290000020704701387047002D06BF35460338EF
:1002A000073815F0010F07D1013015F4807F02BF28
:1002B000013015F4C03F0130F0BC0138704700BF79
:1002C00072B6FEE730B595B006AD3822002128465B
:1002D00001F0F2FC00240194029403940494059428
:1002E0004FF4007000F02CFE022306934FF480734D
:1002F000099340230A930D94284600F039FF68B90A
:100300000F2301930123029300210391049105918E
:1003100001A801F0E3F918B915B030BDFFF7D0FF1F
:10032000FFF7CEFF08B500F0C1FEFFF7CBFF00F0EE
:1003300003F800F011F8FEE782B0064BDA6C42F0E9
:100340000102DA64DB6C03F001030193019B02B04C
:10035000704700BF0010024008B500F073F800F0CD
:10036000F1F830B100F078F84FF47A7000F0C0FE88
:10037000FAE700F001F900F01FF900F0DFF8C820FB
:1003800000F0B6FEF7E7B5EEC00AF1EE10FA0CDAAF
:10039000F2EE047A20EE270AF6EE007A30EE670AD3
:1003A000BDEEC00A10EE100A7047F2EE047A20EE9D
:1003B000270AF6EE007A30EE270ABDEEC00AF1E712
:1003C0002DE9F04184B006460F4690461C46FFF7E3
:1003D000DAFF0C4B83FB0023C517C5EBA30505EB28
:1003E0008503B0EB43030BD402940193009543467D
:1003F000054A3946304601F029FC04B0BDE8F081D9
:100400005B42F1E767666666DC25000810B582B0DE
:10041000002000F087F9002400944FF6FF73074A8C
:1004200014210A2000F0F8F9009440F2FF73044A06
:1004300028210A2000F0F0F902B010BDEC250008D8
:10044000FC25000808B500F079F9002000F06AF9F1
:10045000FFF7DCFF08BD000010B582B0002000F0FF
:1004600061F9002400944FF6FF73074A14210A2013
:1004700000F0D2F900944FF47843044A96210A2000
:1004800000F0CAF902B010BDEC25000808260008EB
:1004900070B590B00DA800230D934360836008935E
:1004A00009930A930B930C93039304930593069378
:1004B000079300F09BF898BB002400947823AC22AB
:1004C0003C21204600F000F900944FF6FF73164AD5
:1004D00014210A2000F0A0F908AE144B9DED0D0A7E
:1004E000134A14213046FFF76BFF03AD114B9DED0E
:1004F0000E0A114A14212846FFF762FF00944FF6B6
:10050000E073324650210A2000F086F9009440F250
:10051000FF732A466E210A2000F07EF910B070BDEC
:10052000FFF79AFFFAE700BFEC250008182600083D
:100530001C260008242600082826000808B5FFF716
:10054000A7FF08BD08B5094A0023136053600023C4
:100550001372074A1370074A136000F0A3F918B921
:10056000034B01221A7008BD0120FCE78000002027
:100570007C0000207800002000B583B000230093A9
:1005800001930B4B1B788BB1684600F037FA40B9EA
:10059000084B009A1A60019A5A6001221A7203B03D
:1005A00000BD044B00221A720320F8E70220F6E790
:1005B0007C0000208000002008B500F093FD094B6E
:1005C0001B7863B1084B1B68C31AB3F5FA6F01D2ED
:1005D000002008BD044B1860FFF7CEFFF9E70220AA
:1005E000F7E700BF7C00002078000020034650B1F0
:1005F000074A127A4AB10649086818604968596082
:100600001A7200207047012070470120704700BF18
:100610008000002010B50446000A00F0EAFAE0B2BB
:1006200000F0E7FA10BDF8B50E461F46AB2800D91A
:10063000AB20AB2A00D9AB22B6F5A07F01D340F2A4
:100640003F16B7F5A07F01D340F23F17904202D882
:10065000134602461846BE4202D83B4637461E465F
:10066000223295B2223084B22A2000F0B6FA28460F
:10067000FFF7D0FF2046FFF7CDFF2B2000F0ADFAAB
:100680003846FFF7C7FF3046FFF7C4FF2C2000F0C5
:10069000A4FAF8BD10B50446000A00F0AAFAE0B2C8
:1006A00000F0A7FA10BDAB280DD810B51446B1F56F
:1006B000A07F00D310BD0B460246FFF7B4FF2046D3
:1006C000FFF7E8FFF6E7704770B5BDF8106042B37A
:1006D0001C4615462BB3AB2823D8B1F5A07F20D2FA
:1006E0008318AC2B02D9C0F1AC05ADB20B19B3F530
:1006F000A07F02D9C1F5A074A4B22A1892B2013A1F
:1007000063189BB2013B9BB292B2FFF78CFF04FBD4
:1007100005F5002403E03046FFF7BCFF0134AC428E
:10072000F9D370BD00B583B000904FF4A073AC2234
:1007300000210846FFF7C8FF03B000BD08B500F070
:10074000E7F900F03EFA112000F047FA782000F0B7
:10075000CFFC132000F041FA3A2000F03EFA552079
:1007600000F047FA362000F038FA002000F041FA95
:10077000212000F032FA292000F02FFA142000F096
:10078000B7FC0020FFF7CEFF08BD00002DE9F84FB1
:10079000BDF828A0AB283BD806460F469B46B1F5CE
:1007A000A07F35D2A2F12003DBB25E2B00D920223C
:1007B000203A02EB8202174B02EB030900251FE0EF
:1007C0004FF0000822E05246FFF76DFF0134A4B25B
:1007D000072C13D8A81980B2E11989B2AB28F5D833
:1007E000B1F5A07FF2D2062CEDD80123A34013EA85
:1007F000080FE8D05A46FFF756FFE7E70135ADB2DC
:10080000052D05D8042DDBD819F805800024DFE775
:10081000BDE8F88F382600082DE9F04182B0044683
:100820000F461E46BDF82080154672B12A7862B187
:10083000AB2C0AD8CDF80080334639462046FFF766
:10084000A5FF0634A4B20135F0E702B0BDE8F0819F
:1008500010B582B071238DF8073098B1044601229B
:100860000DF10701382000F0ECFA10B1012002B0C0
:1008700010BD01222146382000F00BFB0028F6D0E5
:100880000120F4E70120F2E710F0800F01D10020F1
:1008900070470120704710F0080000D17047012018
:1008A000FCE7000010B582B000238DF8073000F09F
:1008B000D7F9282000F01CFC0DF10700FFF7C8FF56
:1008C00040BB04469DF80700FFF7E5FF10B1204646
:1008D00002B010BD104B1B68ADF804301B0C8DF836
:1008E0000630032201A9382000F0ABFA08B1012438
:1008F000EDE70A2000F0FCFB0DF10700FFF7A8FF71
:1009000004460028F3D19DF80700FFF7C4FF002834
:10091000DDD1ECE70124DAE73026000800B583B02A
:10092000084B1B68ADF804301B0C8DF80630032211
:1009300001A9382000F085FA08B903B000BD0120F4
:10094000FBE700BF34260008B0B110B50446FFF73E
:10095000E5FF08B1012010BD502000F0C9FB0622C0
:100960002146382000F095FA40B92078FFF78CFF37
:100970000028F0D00120EEE7012070470120EAE7CF
:1009800080B389B343788278120142EA0332C37894
:1009900042EA131207EE102A1B0403F470230279B3
:1009A00043EA02234279134307EE903AB8EE477ABE
:1009B000DFED0E6A27EE267A9FED0D6A27EE067AA6
:1009C00081ED017AF8EE677A67EEA67A9FED097AF3
:1009D00067EE877A9FED087A77EEC77AC1ED007AE5
:1009E00000207047012070470120704700008035CB
:1009F0000000C842000048430000484210B582B0E1
:100A000000230093ADF8043078B104466846FFF740
:100A10009BFF10B1012002B010BD21466846FFF7D0
:100A2000AFFF0028F7D00120F5E70120F3E782B0FF
:100A30000823019303E000BF019B013B0193019B4D
:100A4000002BF8D102B0704708B501224FF4806145
:100A5000014801F036F808BD0004004808B500223E
:100A60004FF48061014801F02CF808BD00040048F3
:100A700008B501224FF40061014801F022F808BDD9
:100A80000004004808B500224FF40061014801F05D
:100A900018F808BD0004004808B501224FF4805141
:100AA000014801F00EF808BD0004004808B5002216
:100AB0004FF48051014801F004F808BD00040048DB
:100AC00008B501224FF40051014800F0FAFF08BDBB
:100AD0000004004808B500224FF40051014800F01E
:100AE000F0FF08BD0004004808B501224FF40041A2
:100AF000014800F0E6FF08BD0004004808B50022E8
:100B00004FF40041014800F0DCFF08BD000400483C
:100B1000F0B587B001AC00250195029503950495C9
:100B20000595164BDA6C42F00202DA64DB6C03F0D6
:100B300002030093009B4FF4E053019301260296B9
:100B400004960F4F2146384600F0C4FE4FF4204370
:100B5000019302960395022304932146384600F040
:100B6000B9FEFFF771FFFFF797FFFFF78BFFFFF766
:100B7000B1FFFFF7C3FF07B0F0BD00BF0010024098
:100B80000004004808B550B1FFF7AEFFFFF798FF2B
:100B9000FFF74DFFFFF79EFFFFF749FF08BDFFF787
:100BA000ADFFF3E738B50446002507E004F0800008
:100BB000FFF7E8FF6400E4B20135EDB2072DF5D987
:100BC00038BD08B5FFF74AFF142000F091FAFFF78F
:100BD0003BFF782000F08CFA08BD10B50446FFF703
:100BE00051FFFFF763FF2046FFF7DCFFFFF754FFDD
:100BF00010BD10B50446FFF73BFFFFF757FF204637
:100C0000FFF7D0FFFFF748FF10BD82B0002301932C
:100C100003E000BF019B01330193019B312BF8D905
:100C200002B0704708B501224021024800F049FF98
:100C300008BD00BF0004004808B50022402102485A
:100C400000F03FFF08BD00BF0004004808B50122C6
:100C50008021024800F035FF08BD00BF00040048B5
:100C600030B587B001AC0023019302930393049342
:100C7000059303F1804303F50433DA6C42F002027A
:100C8000DA64DB6C03F002030093009B0E4D01223B
:100C90004021284600F015FF01228021284600F05F
:100CA00010FFC02301931123029301230393022316
:100CB00004932146284600F00DFEFFF7B3FFFFF72F
:100CC000C5FF07B030BD00BF0004004808B50022D2
:100CD0008021024800F0F5FE08BD00BF0004004876
:100CE00008B58021034800F0E5FE012800D000206F
:100CF00008BD00BF0004004808B5FFF7A7FFFFF7D5
:100D000091FFFFF782FFFFF7E1FFFFF77EFFFFF79D
:100D100093FFFFF77AFF08BD08B5FFF7D7FFFFF78E
:100D200074FFFFF77FFFFFF770FFFFF78FFFFFF7FD
:100D30006CFF08BD10B50446FFF77EFF64B1FFF7F6
:100D400085FFFFF762FFFFF76DFFFFF75EFFFFF71D
:100D500073FFFFF75AFF10BDFFF7B8FFF1E710B5BB
:100D6000FFF76AFFFFF772FFFFF74FFFFFF75AFF2A
:100D7000FFF74BFFFFF7B4FF0446FFF75DFFFFF7F8
:100D800044FF204610BD10B5FFF760FFFFF73DFFA1
:100D9000FFF748FFFFF739FFFFF7A2FF044600B156
:100DA0000124FFF749FFFFF730FF204610BD08B5CB
:100DB000FFF742FFFFF78AFFFFF727FFFFF732FF3A
:100DC000FFF723FFFFF738FFFFF71FFFFFF73EFF97
:100DD00008BD08B5FFF730FFFFF738FFFFF715FF35
:100DE000FFF720FFFFF711FFFFF726FFFFF70DFFCB
:100DF00008BD38B50446002507E004F08000FFF781
:100E000099FF6400E4B20135EDB2072DF5D9FFF783
:100E1000BAFF38BD70B5064600252C4607E06400D1
:100E2000E4B2FFF79CFF0443E4B20135EDB2072DB5
:100E3000F5D91EB1FFF7BBFF204670BDFFF7C9FF14
:100E4000FAE7F8B5044615460E4691B1FFF754FF90
:100E5000600000F0FE00FFF7CCFF074668B90024F1
:100E6000AC4212D2305DFFF7C4FF50B90134A4B2D6
:100E7000F6E7002AEAD0012709E0FFF74DFF012736
:100E800005E0FFF749FF012701E0FFF745FF38467E
:100E9000F8BD2DE9F04122B304460F46164619B3BA
:100EA000FFF72AFF6000C0B240F00100FFF7A1FF8A
:100EB000804608B900240DE0FFF72EFF4FF001082F
:100EC0000CE0651CB5422CBF00200120FFF7A2FFFB
:100ED0003855ACB2B442F4D3FFF71EFF4046BDE82C
:100EE000F0814FF00008F9E74FF00108F6E7FEE760
:100EF000FEE7FEE7FEE7FEE770477047704708B57C
:100F000000F0E4F808BD000000B583B00B4B1A6E8A
:100F100042F001021A661A6E02F001020092009A73
:100F20009A6D42F080529A659B6D03F08053019355
:100F3000019B00F08BF803B000BD00BF0010024021
:100F4000002836D13E4B1B6803F4C063B3F5806FB5
:100F500008D03B4AD2F8803023F48073C2F8803046
:100F600000207047364AD2F8803023F48073C2F8EC
:100F70008030136823F4C06343F400731360314B73
:100F80001B68322202FB03F32F4AA2FB03239B0CB4
:100F9000013300E0013B2A4A526912F4806F01D00C
:100FA000002BF7D1264B5B6913F4806F44D10020EE
:100FB0007047B0F5007F08D0214A136823F4C0635E
:100FC00043F480631360002070471D4B1B6803F4DB
:100FD000C063B3F5806F08D0194AD2F8803043F46B
:100FE0008073C2F8803000207047154AD2F88030F4
:100FF00043F48073C2F88030136823F4C06343F471
:10100000007313600F4B1B68322202FB03F30E4A7E
:10101000A2FB03239B0C013300E0013B084A526909
:1010200012F4806F01D0002BF7D1054B5B6913F4EC
:10103000806F03D100207047032070470320704762
:10104000007000400800002083DE1B43024A9368C2
:1010500043F480439360704700700040104B1B685E
:101060000BB90120704710B504460E4A10684FF4C2
:101070007A72B2FBF3F3B0FBF3F000F07BFD68B9DA
:101080000F2C01D901200AE0002221464FF0FF3049
:1010900000F060FD044B1C60002000E0012010BD4A
:1010A00000000020080000200400002010B50320EC
:1010B00000F03EFD0F20FFF7D1FF10B101242046C4
:1010C00010BD0446FFF720FFF9E70000034A13684C
:1010D000034909680B441360704700BF8C0000206F
:1010E00000000020014B1868704700BF8C000020F2
:1010F00038B50446FFF7F6FF0546B4F1FF3F02D0CE
:10110000044B1B681C44FFF7EDFF401BA042FAD3C1
:1011100038BD00BF00000020124BDA6802F0030265
:10112000DB68C3F303130133032A11D00E48B0FB6D
:10113000F3F00C4BDB68C3F3062303FB00F0094B11
:10114000DB68C3F3416301335B00B0FBF3F070472E
:101150000648B0FBF3F0034BDB68C3F3062303FB45
:1011600000F0ECE7001002400024F40000127A00C6
:10117000002800F04F8270B582B00446036813F077
:10118000010F37D0A44A936803F00C03D26802F031
:1011900003020C2B23D0082B23D06368B3F5803FC8
:1011A0004ED0B3F5A02F51D09B4B1A6822F4803259
:1011B0001A601A6822F480221A606368002B52D0E9
:1011C000FFF790FF0546944B1B6813F4003F11D1C5
:1011D000FFF788FF401B6428F5D9032023E2032A88
:1011E000D9D18D4B1B6813F4003F03D06368002BEB
:1011F00000F01282236813F0020F5DD0864A9368D4
:1012000003F00C03D26802F003020C2B3AD0042B3B
:101210003AD0E368002B75D07F4A136843F480739B
:101220001360FFF75FFF05467B4B1B6813F4806F6D
:101230005FD1FFF757FF401B0228F5D90320F2E1E9
:10124000754A136843F480331360B6E703F18043B3
:10125000A3F53C331A6842F480221A601A6842F4FB
:1012600080321A60A9E7FFF73DFF05466A4B1B680D
:1012700013F4003FBED0FFF735FF401B6428F5D9BB
:101280000320D0E1022AC2D1634B1B6813F4806FA4
:1012900003D0E368002B00F0C1815F4A536823F05C
:1012A000FE43216943EA016353605C4B1868FFF712
:1012B000D5FE002840F0B481236813F0080F4CD00D
:1012C00063699BB3544AD2F8943043F00103C2F8E7
:1012D0009430FFF707FF05464F4BD3F8943013F0D7
:1012E000020F3AD1FFF7FEFE401B0228F4D903207B
:1012F00099E1494A536823F0FE43216943EA0163B7
:101300005360D9E7444A136823F480731360FFF7EE
:10131000E9FE0546404B1B6813F4806FCCD0FFF705
:10132000E1FE401B0228F5D903207CE13A4AD2F8BD
:10133000943023F00103C2F89430FFF7D3FE054642
:10134000354BD3F8943013F0020F06D0FFF7CAFEE6
:10135000401B0228F4D9032065E1236813F0040F31
:1013600000F081802C4B9B6D13F0805F36D12A4BAF
:101370009A6D42F080529A659B6D03F08053019301
:10138000019B0125264B1B6813F4807F28D0A3689E
:10139000012B39D0052B45D01F4BD3F8902022F0DC
:1013A0000102C3F89020D3F8902022F00402C3F881
:1013B0009020A368002B43D0FFF794FE0646164BFF
:1013C000D3F8903013F0020F4CD1FFF78BFE801B47
:1013D00041F288339842F2D9032024E10025D1E775
:1013E0000F4A136843F480731360FFF77BFE0646D1
:1013F0000B4B1B6813F4807FC9D1FFF773FE801B72
:101400000228F5D903200EE1034AD2F8903043F0C8
:101410000103C2F89030CCE7001002400400002025
:1014200000700040884BD3F8902042F00402C3F8CB
:101430009020D3F8902042F00102C3F89020B8E742
:10144000FFF750FE0646804BD3F8903013F0020FA2
:1014500008D0FFF747FE801B41F288339842F2D94B
:101460000320E0E0E5B9236813F0200F35D0A3692D
:10147000E3B1754AD2F8983043F00103C2F89830CE
:10148000FFF730FE0546704BD3F8983013F0020F8B
:1014900023D1FFF727FE401B0228F4D90320C2E026
:1014A000694A936D23F080539365DCE7664AD2F86E
:1014B000983023F00103C2F89830FFF713FE054679
:1014C000614BD3F8983013F0020F06D0FFF70AFEF5
:1014D000401B0228F4D90320A5E0E369002B00F0AB
:1014E000A180594A926802F00C020C2A64D0022BA7
:1014F00013D0554A136823F080731360FFF7F2FD91
:101500000446514B1B6813F0007F4ED0FFF7EAFDF5
:10151000001B0228F5D9032085E04B4A136823F00D
:1015200080731360FFF7DEFD0546474B1B6813F021
:10153000007F06D0FFF7D6FD401B0228F5D9032017
:1015400071E0414AD36841491940236A606A013811
:1015500043EA0013A06A43EA0023206B40080138E5
:1015600043EA4053606B4008013843EA4063E06A55
:1015700043EAC0631943D160136843F0807313607A
:10158000D36843F08073D360FFF7ACFD04462E4B65
:101590001B6813F0007F06D1FFF7A4FD001B022893
:1015A000F5D903203FE000203DE0274AD168284BD1
:1015B0000B40D360002036E0012B36D0224BDB6895
:1015C00003F00301226A914231D103F0F002616A13
:1015D0000139B2EB011F2CD103F4FE42A16AB2EB38
:1015E000012F28D103F07842E16AB2EBC16F24D118
:1015F00003F4C001226B5208013AB1EB425F1ED1E5
:1016000003F0C063626B5208013AB3EB426F18D12A
:10161000002008E001207047012004E0012002E0E2
:10162000012000E0002002B070BD0120FBE7012096
:10163000F9E70120F7E70120F5E70120F3E70120B2
:10164000F1E70120EFE700BF001002400C809F018E
:10165000FCFFEEFE1E4B9B6803F00C03042B33D003
:101660001B4B9B6803F00C03082B2FD0184B9B6877
:1016700003F00C030C2B01D000207047144BDA68E8
:1016800002F00302DB68C3F303130133032A11D012
:101690001048B0FBF3F00E4BDB68C3F3062303FBEB
:1016A00000F00B4BDB68C3F3416301335B00B0FB1D
:1016B000F3F070470848B0FBF3F0054BDB68C3F369
:1016C000062303FB00F0ECE702487047024870472E
:1016D000001002400024F40000127A00002800F0FC
:1016E000E680F8B50C460546744B1B6803F00F0303
:1016F0008B420BD2714A136823F00F030B43136024
:10170000136803F00F038B4240F0D3802E6816F06D
:1017100001065FD06B68032B2FD0022B4DD0684B96
:101720001B6813F4806F00F0C680FFF793FF654BD2
:1017300098424DD9624A936823F0F00343F0800346
:10174000936080265E4A936823F0030369680B4325
:101750009360FFF7C7FC0746594B9B6803F00C03E7
:101760006A68B3EB820F35D0FFF7BCFCC01B41F2B7
:1017700088339842F0D9032078E0514B1B6813F06E
:10178000007F01D1012071E0FFF7C6FC4D4B98426C
:101790001AD94B4B9B6813F0F00F05D02E6816F04A
:1017A0000206CFD0AB688BB9454A936823F0F003AB
:1017B00043F0800393608026C4E7414B1B6813F419
:1017C000003FB2D1012051E00026BBE70026B9E777
:1017D0000026B7E72B6813F0020F48D013F0040F70
:1017E00004D0374A936843F4E06393602B6813F0A6
:1017F000080F06D0324A936823F47C5343F4E06325
:1018000093602F4A936823F0F003A9680B43936019
:101810002A4B1B6803F00F03A34230D82B6813F048
:10182000040F06D0264A936823F4E063E9680B436B
:1018300093602B6813F0080F07D0214A936823F4B4
:101840006053296943EAC1039360FFF703FF1C4B10
:101850009B68C3F303131C4AD35C03F01F03D840F7
:101860001A4B18601A4B1868FFF7F8FBF8BD802E6A
:10187000CED1134A936823F0F0039360C8E70F4A70
:10188000136823F00F0323431360FFF72BFC064676
:101890000A4B1B6803F00F03A342BFD0FFF722FCE3
:1018A000801B41F288339842F2D90320DEE7012001
:1018B00070470120DAE70120D8E700BF002002408E
:1018C0000010024000B4C4041428000808000020DE
:1018D00004000020F0B583B0002366E085685E0058
:1018E0000324B44025EA0405CC68B4402C4384604A
:1018F000456825EA0C054C68C4F300149C402C4351
:10190000446063E08C68012C65D173E0DD08083524
:1019100050F8254003F0070C4FEA8C0C4FF00F0EE7
:101920000EFA0CFE24EA0E0E0C6904FA0CF444EADA
:101930000E0440F8254062E0052400E0002404FA8B
:101940000EF42C430CF1020C564D45F82C40564C2D
:10195000A568D44325EA02064F6817F4801F01D01A
:1019600042EA0506504DAE60ED6804EA05064F6890
:1019700017F4001F01D042EA05064B4DEE606D687A
:1019800004EA05064F6817F4003F01D042EA050655
:10199000454D6E602D682C404E6816F4803F01D096
:1019A00042EA0504404A146001330A6832FA03F43B
:1019B00076D04FF0010C0CFA03FC1CEA0202F3D0C3
:1019C0004C6804F00304013C012C87D94C6804F0F6
:1019D0000304032C96D0C4684FEA430E4FF0030C67
:1019E0000CFA0EFC24EA0C0C8C6804FA0EF444EA9F
:1019F0000C04C4604C6804F00304022C86D0046814
:101A00004FEA430E4FF0030C0CFA0EFC24EA0C0CC8
:101A10004C6804F0030404FA0EF444EA0C04046075
:101A20004C6814F4403FBFD0204C256E45F00105B2
:101A30002566246E04F001040194019C4FEA930C86
:101A40000CF10205174C54F8255003F0030E4FEA31
:101A50008E0E0F2404FA0EF425EA0405B0F1904F1F
:101A60003FF46CAF124CA04212D004F58064A04247
:101A700010D004F58064A0420ED004F58064A0422A
:101A80000CD004F58064A0423FF456AF062456E71C
:101A9000012454E7022452E7032450E704244EE7CC
:101AA00003B0F0BD000001400004014000100240FE
:101AB000000400480369194201D00120704700204A
:101AC00070470AB18161704781627047002808DB66
:101AD0000901C9B200F1604000F5614080F80013CF
:101AE000704700F00F000901C9B2014B195470474B
:101AF00014ED00E000B500F00700C0F1070CBCF1E8
:101B0000040F28BF4FF0040C031D062B0ED9C31E73
:101B10004FF0FF3E0EFA0CF021EA000199400EFA58
:101B200003FE22EA0E0241EA020000BD0023EFE7B5
:101B3000074AD36823F4E0631B041B0C000200F483
:101B4000E060034343F0BF6343F40033D360704766
:101B500000ED00E010B50446054BD868C0F3022044
:101B6000FFF7C8FF01462046FFF7B0FF10BD00BFDA
:101B700000ED00E00138B0F1807F0BD24FF0E023A0
:101B80005861054AF02182F823100020986107224D
:101B90001A6170470120704700ED00E0034AD2F857
:101BA000883043F47003C2F88830704700ED00E0DD
:101BB00010B503460C4A0D490D48006840B10C4869
:101BC00000680344521A934206D8094A136010BDB4
:101BD0000748084C0460F2E700F076F80C23036035
:101BE0004FF0FF30F3E700BF0000022000040000C8
:101BF00090000020E00100200D488546FFF7CEFF51
:101C00000C480D490D4A002302E0D458C450043357
:101C1000C4188C42F9D30A4A0A4C002301E013602D
:101C20000432A242FBD300F055F8FEF77BFBFEE73F
:101C300000000220000000205C000020682800084E
:101C40005C000020DC010020FEE700000CB430B591
:101C5000184B0C1E1D689DB008DA8B232B604FF0CB
:101C6000FF301DB0BDE8304002B070474FF4027342
:101C7000ADF814304FF000031B9314BF04F1FF3391
:101C80002346049307934FF6FF7302900690ADF836
:101C90001630209A21AB02A92846019300F0A6F93C
:101CA000431CBCBF8B232B60002CDAD0029B00228C
:101CB0001A70D6E70C00002002440346934200D17C
:101CC000704703F8011BF9E7014B1868704700BF24
:101CD0000C00002070B50D4B0D4D5B1B9C100026B9
:101CE000A64209D100F06EFC0A4D0B4B5B1B9C1009
:101CF0000026A64205D170BD55F8043B9847013631
:101D0000EEE755F8043B98470136F2E760280008F3
:101D100060280008602800086428000870477047A1
:101D20000A44914200F1FF3300D1704710B511F819
:101D3000014B03F8014F9142F9D110BD38B505466A
:101D4000002941D051F8043C0C1F002BB8BFE41807
:101D500000F0E0F81D4A136833B963601460284648
:101D6000BDE8384000F0DCB8A34208D9206821184B
:101D70008B4201BF19685B6809182160EDE71A46BC
:101D80005B680BB1A342FAD911685018A0420BD17D
:101D900020680144501883421160E0D118685B68E4
:101DA000536008441060DAE702D90C232B60D6E7B1
:101DB000206821188B4204BF19685B68636004BF08
:101DC000091821605460CAE738BD00BFD80100205F
:101DD00070B50F4E0C463168054611B900F0ACFBEA
:101DE00030602146284600F0A7FB431C03D14FF08A
:101DF000FF34204670BDC41C24F00304A042F8D078
:101E0000211A284600F098FB0130F2D1EFE700BF1D
:101E1000D40100202DE9F843CD1C25F00305083539
:101E20000C2D38BF0C25002D064601DBA94204D934
:101E30000C2333600020BDE8F883DFF8D48000F085
:101E400069F8D8F800301C4644BB29463046FFF7F5
:101E5000BFFF431C044658D1D8F800402746002F46
:101E600043D1002C4BD023683946304604EB03099C
:101E700000F062FB814542D121686D1A2946304647
:101E8000FFF7A6FF01303AD023682B442360D8F82F
:101E900000305A6862BBC8F800700FE02268521B1D
:101EA00020D40B2A17D96119A342256018BF5960A5
:101EB000636808BFC8F8001062514B60304600F0FC
:101EC0002FF804F10B00231D20F00700C21A1CBFDD
:101ED0001B1AA350AFE76268A3420CBFC8F80020EA
:101EE0005A60EBE723466468AEE73C467F68B6E796
:101EF0001A465B68A342FBD100235360DEE70C2344
:101F00003360304600F00CF894E70560D6E700BF78
:101F1000D80100200148FFF701BF00BFD001002019
:101F20000148FFF7FCBE00BFD00100202DE9F047BB
:101F30008E681F46BE4282460C469046334653D8B2
:101F4000B1F90C0010F4906F2BD065692368096912
:101F500005EB4505A3EB010905EBD5757B1C6D1061
:101F60004B44AB422A4684BF1D462A46430527D52B
:101F700011465046FFF74EFF064658B321694A46C0
:101F8000FFF7CEFEA38923F4906343F08003A3817F
:101F9000266165614E44A5EB09052660A5603E46B5
:101FA0003B461F4620683A46414600F0ABFAA3681C
:101FB0009B1BA36023683B4423600020BDE8F0879F
:101FC000504600F0C9FA06460028E1D12169504682
:101FD000FFF7B4FE0C23CAF80030A38943F0400396
:101FE000A3814FF0FF30E9E73E46DBE72DE9F047FC
:101FF0001F468B891B069CB006460D46144610D51D
:102000000B6973B94021FFF705FF2860286130B9DB
:102010000C2333604FF0FF301CB0BDE8F087402345
:102020006B610023099320238DF829300397302317
:10203000654F8DF82A304FF001082346994613F872
:10204000012B0AB1252AF9D1B9EB040A0BD053466A
:10205000224629463046FFF769FF013000F0A48090
:10206000099A5244099299F80030002B00F09C80A4
:1020700000234FF0FF32CDE9052309F10109049354
:1020800007938DF853301A934C464F4814F8011BB0
:102090000522FEF7C5F8049BD0B9D80644BF20221C
:1020A0008DF85320190744BF2B228DF8532099F83F
:1020B00000202A2A13D0079A4C4600204FF00A0C21
:1020C000214611F8013B303B092B49D968B913E08F
:1020D000C01B08FA00F018430490A146D4E7039A05
:1020E000111D12680391002A01DB079204E052429D
:1020F00043F002030792049323782E2B0AD16378CE
:102100002A2B32D1039B1A1D1B68039243EAE37307
:1021100002340593DFF8C090217803224846FEF789
:102120007FF838B1049BA0EB0900402282401343A2
:102130000134049314F8011B24488DF8281006225A
:10214000FEF76EF8002835D0214818BB039B0733F3
:1021500023F0070308330393099B034409936CE7B7
:102160000CFB02320C460120AAE700230134059340
:1021700019464FF00A0C204610F8012B303A092A74
:1021800003D9002BC6D00591C4E70CFB01210446FE
:102190000123F0E703AB00932A460E4B04A9304617
:1021A000AFF30080421CD7D1AB895B063FF532AF5D
:1021B000099831E703AB00932A46064B04A9304641
:1021C00000F07AF8EEE700BF242800082E28000867
:1021D000000000002D1F00082A2800082DE9F04704
:1021E000164698468A680B69DDF820909342B8BF7E
:1021F0001346336091F8432007460C460AB1013379
:1022000033602368990642BF336802333360256820
:1022100015F0060506D104F1190AE36832689B1A25
:10222000AB4226DC94F843302268003B18BF012300
:1022300092062BD404F1430241463846C847013088
:102240001ED02368226903F00603042B02BFE56851
:102250003368ED1AA3680CBF25EAE57500259342A3
:10226000C4BF9B1AED1800261A34B5421AD10020BB
:1022700008E00123524641463846C847013003D1A1
:102280004FF0FF30BDE8F0870135C6E7E1185A1C72
:10229000302081F84300224494F8451082F843101E
:1022A0000233C7E70123224641463846C84701307A
:1022B000E6D00136D9E700002DE9F0430D7E85B068
:1022C000782D90460C9E07460C46994601F1430234
:1022D00007D8622D0AD8002D00F0D780582D00F0C5
:1022E000BC8004F1420684F842503BE0A5F1630350
:1022F000152BF6D801A151F823F000BF5523000893
:1023000069230008E3220008E3220008E322000812
:10231000E322000869230008E3220008E322000802
:10232000E3220008E3220008712400089323000838
:1023300023240008E3220008E32200089324000875
:10234000E322000893230008E3220008E3220008A8
:102350002B24000833681A1D1B68326004F1420602
:1023600084F842300123A1E033682068191D3160F0
:10237000060601D51D6803E04506FBD5B3F90050FC
:10238000002D03DA2D236D4284F843305B480A2385
:1023900011E021683368080653F8045B02D449064B
:1023A00048BFADB23360237E54486F2B5CD1082305
:1023B000002184F843106668A660002E05DB2168C2
:1023C0002E4321F00401216050D01646B5FBF3F1F5
:1023D00003FB115C10F80CC006F801CDAC46634558
:1023E0000D46F3D9082B0BD12368DB0708D52369E9
:1023F00061689942DEBF302306F8013C06F1FF36E2
:10240000921B2261CDF80090434603AA214638462C
:10241000FFF7E4FE01304ED14FF0FF3005B0BDE8CC
:10242000F083236843F0200323603548782584F83F
:1024300045502368316813F0800F51F8045B03D1D5
:1024400013F0400F18BFADB23160D90744BF43F05D
:10245000200323601DB11023AAE72848E7E723687B
:1024600023F020032360F6E70A23A1E71646B9E725
:10247000336825686169181D30602E061B6801D518
:10248000196002E06806FBD5198000232361164617
:10249000B8E733681A1D32601E6862680021304652
:1024A000FDF7BEFE08B1801B6060636823610023F6
:1024B00084F84330A6E72369324641463846C84788
:1024C0000130A9D023689B0713D4E068039B98428E
:1024D000B8BF1846A2E70123324641463846C847EE
:1024E000013099D00135E36803995B1AAB42F2DC05
:1024F000EBE7002504F11906F5E700BF35280008D1
:1025000046280008884210B501EB020402D9844233
:10251000234607D8431EA14207D011F8012B03F828
:10252000012FF8E70244824200D110BD13F8011DCB
:1025300002F8011DF7E7000038B5064D00230446F8
:1025400008462B60FFF734FB431C02D12B6803B114
:10255000236038BDCC0100202DE9F0410746144628
:102560000D4621B9BDE8F0411146FFF753BC2AB929
:10257000FFF7E4FB25462846BDE8F08100F01AF895
:102580008442064602D8B4EB500FF4D821463846B0
:10259000FFF740FC804608B94546ECE7B4422246C6
:1025A000294628BF3246FFF7BBFB29463846FFF7CE
:1025B000C5FBF1E751F8043C181F002BBCBF0B58BA
:1025C000C0187047F8B500BFF8BC08BC9E467047FD
:0C25D000F8B500BFF8BC08BC9E46704780
:1025DC0025733A2025642E25642025730000000005
:1025EC004148543230204C434420546573740000ED
:1025FC005374617274696E672E2E2E0053656E7360
:10260C006F72204572726F72000000004300000070
:10261C0054656D70000000002500000048756D6960
:10262C0000000000BE080000AC33000000000000F9
:10263C000000005F00000007000700147F147F14E7
:10264C00242A7F2A1223130864623649552250002B
:10265C0005030000001C2241000041221C0014084C
:10266C003E081408083E080800503000000808080E
:10267C000808006060000020100804023E51494523
:10268C003E00427F400042615149462141454B3159
:10269C001814127F1027454545393C4A49493001E9
:1026AC00710905033649494936064949291E003640
:1026BC003600000056360000081422410014141491
:1026CC0014140041221408020151090632497941BF
:1026DC003E7E1111117E7F494949363E41414122CE
:1026EC007F4141221C7F494949417F090909013E2B
:1026FC004149497A7F0808087F00417F410020400A
:10270C00413F017F081422417F404040407F020C32
:10271C00027F7F0408107F3E4141413E7F09090939
:10272C00063E4151215E7F091929464649494931E6
:10273C0001017F01013F4040403F1F2040201F3FCF
:10274C004038403F63140814630708700807615150
:10275C00494543007F4141000204081020004141DB
:10276C007F0004020102044040404040000102048A
:10277C000020545454787F4844443838444444200E
:10278C00384444487F3854545418087E0901020CCC
:10279C005252523E7F0804047800447D4000204091
:1027AC00443D007F1028440000417F40007C041809
:1027BC0004787C0804047838444444387C14141499
:1027CC0008081414187C7C08040408485454542039
:1027DC00043F4440203C4040207C1C2040201C3CBA
:1027EC004030403C44281028440C5050503C446429
:1027FC00544C44000836410000007F000000413674
:10280C00080008082A1C0800000000000000000056
:10281C000102030406070809232D302B2000686CE5
:10282C004C006566674546470030313233343536E7
:10283C003738394142434445460030313233343520
:0C284C003637383961626364656600004D
:08285800C8D9FF7F0100000058
:042860000502000865
:04286400E101000886
:1028680001000000100000000024F4001000002007
:102878000000000094000020FC00002064010020FB
:102888000000000000000000000000000000000040
:102898000000000000000000000000000000000030
:1028A8000000000000000000000000000000000020
:0C28B80000000000000000000000000014
:0400000508001BF9DB
:00000001FF
